:020000040800F2
:10000000D0040020D5000008B11300083F130008F9
:1000100000000000000000000000000000000000E0
:10002000000000000000000000000000B513000800
:100030000000000000000000B3130008B713000820
:10004000E7000008E7000008E7000008E7000008F4
:10005000E7000008E7000008E7000008E7000008E4
:10006000E7000008E7000008E7000008E7000008D4
:10007000E7000008E7000008E7000008E7000008C4
:10008000E7000008E7000008E7000008E7000008B4
:10009000E7000008E7000008E7000008E7000008A4
:1000A000E7000008E7000008E7000008E700000894
:1000B000E1180008E7000008E7000008E700000872
:1000C0000348854600F08EF800480047F5190008FF
:1000D000D00400200448804704480047FEE7FEE7BC
:1000E000FEE7FEE7FEE7FEE731140008C100000866
:1000F00030B50B46014600202022012409E00D46C0
:10010000D5409D4205D31D469540491B2546954047
:1001100040191546521E002DF1DC30BDF0B51FB45C
:100120000646002082B005464024019100901BE065
:10013000019922460F46304600F020F8049A059BAC
:10014000801A994110D310461946224600F039F81A
:10015000361A8F410197224601200021009F00F0AE
:1001600030F838184D4100902046641E0028DFDC2E
:10017000019B00982946324607B0F0BD10B5202AF1
:1001800004DB0846203AD040002110BD0B46D34086
:10019000D0402024A21A91400843194610BDD2B283
:1001A00001E00270401C491EFBD270470022F6E7B6
:1001B00010B513460A4604461946FFF7F0FF2046DD
:1001C00010BD10B5202A04DB0146203A91400020E2
:1001D00010BD914020239C1A0346E34019439040F0
:1001E00010BD0000064C0125064E05E0E36807CC73
:1001F0002B430C3C98471034B442F7D3FFF764FF0D
:10020000901B0008B01B0008704770B5044600251D
:100210002120005D022803D00420A06301251EE0F8
:10022000206800680E218843216808602068006803
:1002300040084000216808600120216C8840E16B83
:10024000486001212120015500BF002120200155D7
:1002500000BF606B002802D02046616B88472846AB
:1002600070BD000078B503460022E2E0012696400A
:100270000C683440002C7DD04D68022D02D04D68B2
:10028000122D15D1D508AE001D462035A8595507A9
:10029000EE0E0F25B5400646AE4330465607F60E25
:1002A0000D69B5402843D508AD001E462036705173
:1002B000186856000325B5400646AE4330460D7912
:1002C000AD07AD0F5600B540284318604D68012DAD
:1002D00008D04D68022D05D04D68112D02D04D6813
:1002E000122D18D1986856000325B5400646AE4336
:1002F00030465600CD68B5402843986058680125BF
:1003000095400646AE43304610264D6835402D09CF
:10031000954028435860D86856000325B5400646E6
:10032000AE43304656008D68B5402843D86001265C
:1003300036074D683540B5427AD100BF404DAD69B2
:10034000012635433E4EB5613546AD69ED07ED0FEB
:10035000009500BF00BF3B4D9608B600A859950711
:100360002E0F0F25B5400646AE4330460925ED0653
:10037000AB4200E05CE001D1002514E0324DAB421D
:1003800001D101250FE0314DAB4201D102250AE038
:100390002F4DAB4201D1032505E02E4DAB4201D1DB
:1003A000042500E005259607360FB5402843254D66
:1003B0009608B600A851284D28680546A54328464A
:1003C000012636044D683540B54202D10546254325
:1003D0002846214D286068680546A5432846012621
:1003E00076044D683540B54202D10546254328467E
:1003F000194D6860A8680546A543284601263605BC
:100400004D683540B54202D1054625432846124D78
:10041000A860E8680546A5432846012676054D688C
:100420003540B54202D10546254328460A4DE860CD
:10043000521C0D68D540002D00D017E778BD000094
:100440000010024008000140000400480008004875
:10045000000C0048001000480004014001480068FA
:10046000704700002C000020034800680349097809
:1004700040180149086070472C000020340000201B
:1004800010B50648006810210843044908600020A0
:1004900000F006F800F02EF8002010BD0020024009
:1004A00070B50446104801787D20C000FFF720FE9B
:1004B000064631460D480068FFF71AFE054600F073
:1004C0009FFD002801D0012070BD042C07D200221E
:1004D0002146501E00F03CF80548046001E0012070
:1004E000F2E70020F0E70000340000203800002090
:1004F0003000002008B500BF0D4880690121084385
:100500000B49886108468069C007C00F009000BF92
:1005100000BF00BF0846C069090408430449C86118
:100520000846C06909040840009000BF00BF08BD2C
:10053000001002400146002905DBCB06DB0E01223C
:100540009A40024B1A6000BF7047000000E100E0D3
:1005500070B504460D4616462946204601F0FEF9C0
:1005600070BD0000F8B504460026002501210904ED
:100570002068084088427AD100276048C069090392
:10058000084000280DD100BF5C48C06908435B49A2
:10059000C8610846C06909040840009000BF00BF58
:1005A000012757480068FF2101310840002816D173
:1005B00053480068084352490860FFF74FFF06465A
:1005C00006E0FFF74BFF801B642801D90320F8BD2C
:1005D0004B480068FF21013108400028F1D047480E
:1005E000006A0321090208400546002D2DD06068ED
:1005F0000840A84229D04148006A884305463F4840
:10060000006A0121090408433C4908620846006A5F
:100610000121090488433949086208460562E80750
:10062000C00F002811D0FFF719FF064607E0FFF7BB
:1006300015FF801B3349884201D90320C7E72F48A3
:10064000006A022108400028F1D02C48006A0321EA
:10065000090288436168084328490862012F05D1CF
:100660000846C069090488432449C86100BF20784E
:10067000C007C00F002807D02048006B800880000A
:10068000A16808431D490863022120680840022828
:1006900008D11A48006B032109048843E168084324
:1006A00016490863202120680840202807D11348F4
:1006B000006B102188432169084310490863012118
:1006C000490420680840884207D10C48006B80210B
:1006D0008843A16908430949086301218902206808
:1006E0000840884207D10548006B40218843616972
:1006F000084302490863002069E700000010024037
:10070000007000408813000070B504460D46002CB0
:1007100001D1012070BD58480068C007C00FA84231
:100720000ED25548006840084000284352490860EE
:1007300008460068C007C00FA84201D00120E9E7C1
:10074000022120680840022814D1042120680840B2
:10075000042807D149484068072109028843401806
:100760004649486045484068F0218843A1680843ED
:10077000424948602078C007C00F002847D0606811
:10078000012808D13D48006801214904084000289B
:1007900021D10120BEE76068022808D137480068EF
:1007A000012149060840002815D10120B2E7606800
:1007B000032808D13148406B012109040840002872
:1007C00009D10120A6E72D48006802210840002831
:1007D00001D101209EE729484068800880006168B7
:1007E000084326494860FFF739FE064607E0FFF751
:1007F00035FE801B2249884201D903208AE71F4821
:1008000040680C210840616889008842EFD11A488D
:100810000068C007C00FA8420ED9174800684008FA
:10082000400028431449086008460068C007C00F0C
:10083000A84201D001206DE7042120680840042867
:1008400008D10E484068072109028843E16808433F
:100850000A49486000F032F808494968F02211401E
:100860000909084A515CC840074908600020FFF7A1
:1008700017FE00204EE7000000200240001002405A
:1008800088130000781B0008380000200148006829
:10089000704700003800002000B5FFF7F7FF05495A
:1008A0004968072212021140090A034A515CC840F4
:1008B00000BD000000100240881B0008F0B589B0A0
:1008C00035A001460EC9C06805AC0EC4089036A01C
:1008D00001460EC9C06801AC0EC404900025002476
:1008E0000027002600200090334845680C2028404F
:1008F000002849D0042804D0082805D00C2842D16B
:100900003EE02E48009042E00F2080042840800CFA
:1009100005A90E5C2848C06A0007000F01A90C5CFD
:100920000320C00328400121090488420AD122463D
:10093000002322481946FFF7F1FB314600F0F6FF8D
:1009400007461BE00320C00328400321C903884257
:100950000AD1224600231A481946FFF7DFFB314629
:1009600000F0E4FF074609E0224600231348194639
:10097000FFF7D4FB314600F0D9FF0746009706E0A9
:100980000F48009003E000BF0C48009000BF00BF7C
:10099000009809B0F0BD000002030405060708092D
:1009A0000A0B0C0D0E0F10100102030405060708B8
:1009B000090A0B0C0D0E0F100010024000127A00F5
:1009C000006CDC02FEB50446002C01D10120FEBD06
:1009D0002078C007C00F002872D0FC4840680C2166
:1009E000084004280CD0F94840680840082813D172
:1009F000F6484068490308400121090488420BD1A8
:100A0000F248006801214904084000286BD0606862
:100A1000002868D10120DAE700BF6068012807D10B
:100A2000EA480068012109040843E849086031E008
:100A3000606800280ED1E548006801210904884358
:100A4000E249086008460068012189048843DF49BB
:100A500008601FE0606805280ED1DC4800680121AD
:100A600089040843D949086008460068012109043F
:100A70000843D64908600DE0D44800680121090404
:100A80008843D249086008460068012189048843E8
:100A9000CE49086000BF6068002812D0FFF7DEFC76
:100AA000054606E0FFF7DAFC401B642801D9032065
:100AB0008DE7C64800680121490408400028F1D0AC
:100AC00011E0FFF7CBFC054606E0FFF7C7FC401B33
:100AD000642801D903207AE7BC4800680121490451
:100AE00008400028F1D1022120680840022862D184
:100AF000B64840680C21084000280CD0B348406834
:100B0000084008281CD1B148406849030840012129
:100B1000C903884214D1AD4800680221084000286A
:100B200004D0E068012801D0012050E7A748006800
:100B3000F82188432169C9000843A44908603AE0C4
:100B4000E068002820D0A1480068012108439F499F
:100B50000860FFF783FC054606E0FFF77FFC401BBB
:100B6000022801D9032032E7984800680221084092
:100B70000028F2D095480068F82188432169C9000F
:100B800008439249086016E0904800684008400019
:100B90008E490860FFF762FC054606E0FFF75EFC41
:100BA000401B022801D9032011E788480068022170
:100BB00008400028F2D1082120680840082831D1D7
:100BC000E069002817D08148406A012108437F4925
:100BD0004862FFF743FC054606E0FFF73FFC401B79
:100BE000022801D90320F2E67848406A0221084031
:100BF0000028F2D016E07548406A4008400073496A
:100C00004862FFF72BFC054606E0FFF727FC401B78
:100C1000022801D90320DAE66C48406A0221084024
:100C20000028F2D1042120680840042872D1002055
:100C300001906648C0698906084000280ED100BFAF
:100C40006248C06908436149C8610846C06909042F
:100C50000840009000BF00BF012001905C48006880
:100C6000FF2101310840002816D159480068084387
:100C700057490860FFF7F2FB054606E0FFF7EEFB79
:100C8000401B642801D90320A1E651480068FF21D8
:100C9000013108400028F1D000BFA068012806D12A
:100CA0004A48006A01210843484908622AE0A068CE
:100CB00000280BD14548006A4108490043480162B9
:100CC000006A04218843414908621BE0A0680528A6
:100CD0000CD13E48006A042108433C49086208469A
:100CE000006A01210843394908620BE03748006A6D
:100CF00040084000354908620846006A04218843DC
:100D00003249086200BFA068002813D0FFF7A6FB95
:100D1000054608E02BE0FFF7A1FB401B2D49884268
:100D200001D9032053E62948006A0221084000281F
:100D3000F1D011E0FFF792FB054607E0FFF78EFBCD
:100D4000411B2448814201D9032040E61F48006A24
:100D5000022108400028F1D10198012806D11B4842
:100D6000C0690121090788431849C86100BF1021E3
:100D70002068084010285FD1606901282CD11348F1
:100D8000406B04210843114948630846406B012128
:100D900008430E494863FFF761FB054606E0FFF78D
:100DA0005DFB401B022801D9032010E60748406B79
:100DB000022108400028F2D00448406BF821884303
:100DC000A169C90008430149486335E000100240A9
:100DD00000700040881300006069401D00280FD19A
:100DE0008648406B04218843844948630846406B29
:100DF000F8218843A169C9000843804948631BE082
:100E00007E48406B042108437C4948630846406B98
:100E1000400840004863FFF721FB054606E0FFF766
:100E20001DFB401B022801D90320D0E57348406B0D
:100E3000022108400028F2D1202120680840202803
:100E400052D16E4840680C2108400C280AD06B48EB
:100E500040680840082811D16848406849030840A4
:100E600088420BD16548406B0121090408400028E5
:100E70003AD0206A012837D00120A8E5206A00284E
:100E800019D05E48406B0121090408435B4948635F
:100E9000FFF7E4FA054606E0FFF7E0FA401B0228F8
:100EA00001D9032093E55548406B0121090408400E
:100EB0000028F1D018E05148406B01210904884313
:100EC0004E494863FFF7CAFA054606E0FFF7C6FA3F
:100ED000401B022801D9032079E54848406B0121D5
:100EE000090408400028F1D1606A00284FD0434827
:100EF00040680C210840082864D0606A022847D165
:100F00003E4800680121090688433C490860FFF714
:100F1000A5FA054606E0FFF7A1FA401B022801D911
:100F2000032054E53548006801214906084000289F
:100F3000F1D100BF3148C06A00090001216B0843AC
:100F40002E49C862A16AE06A08432C4949687B229D
:100F5000D203914308432949486000BF084600680E
:100F600001210906084325490860FFF777FA05467D
:100F700006E0FFF773FA401B022801D9032026E59B
:100F80001E4800680121490608400028F1D033E0DE
:100F90001A48006801210906884318490860FFF7CC
:100FA0005DFA054606E0FFF759FA401B022801D911
:100FB00003200CE51148006801214906084000287B
:100FC000F1D119E0606A012800D100E50B484668BC
:100FD000C76A0320C0033040A16A88420AD139079A
:100FE000090F206B814205D10F2080043040E16A57
:100FF000884201D00120EAE40020E8E40010024029
:1010000070B504462546681E0949884201D9012069
:101010000CE0681E074948610321081F00F09EFC90
:1010200000200449886107200861002070BD00008D
:10103000FFFFFF0000E000E070477047FEB5044688
:101040002068C56920680668206887687648284057
:101050000190019800280ED12020284000280AD0B5
:1010600020203040002806D0206E002802D02046E4
:10107000216E8847FEBD019800287DD0F807C00F7B
:10108000002804D1FF20213030400028F5D0E807A7
:10109000C00F00280BD0FF2001303040002806D0C0
:1010A000012021680862E06F01210843E067022007
:1010B000284000280AD0F807C00F002806D00220D8
:1010C00021680862E06F04210843E067042028409B
:1010D00000280AD0F807C00F002806D00420216895
:1010E0000862E06F02210843E067082028400028DA
:1010F0000ED020203040002803D1F807C00F002870
:1011000006D0082021680862E06F08210843E067E4
:101110000120C002284000280CD001208006304069
:10112000002807D00120C00221680862E06F20215A
:101130000843E067E06F002846D0202028400028C0
:1011400009D020203040002805D0206E002802D091
:101150002046216E8847E06F00902068806840211B
:101160000840402804D0282100980840002826D0B4
:10117000204600F01BFA00E027E02068806840214C
:101180000840402817D1206880688843216888601B
:10119000E06E00280BD02548E16E4863E06EFFF753
:1011A00034F8002810D0E06E416B88470CE02046F0
:1011B000FFF743FF08E02046FFF73FFF04E020462B
:1011C000FFF73BFF0020E06754E7012000052840BF
:1011D00000280CD0012080053840002807D00120CD
:1011E0000005216808622046FFF726FF42E78020BD
:1011F000284000280AD080203040002806D0606EA9
:10120000002802D02046616E884733E740202840FE
:10121000002807D040203040002803D0204600F0AE
:10122000D7F927E700BF25E70F080000951500084C
:1012300010B50446002C01D1012010BDA069002882
:1012400000D000E000BF606F002805D100217020B1
:101250000155204600F02CF82420606720680068C3
:101260004008400021680860204600F0C1F90128CC
:1012700000D1E2E7606A002802D0204600F0D9F8E9
:10128000206840680921C9028843216848602068B5
:1012900080682A21884321688860206800680121CD
:1012A000084321680860204600F03CF9C5E70000CB
:1012B00010B586B00446142101A8FEF777FF1D493A
:1012C0002068884234D100BF1B48C069012149040D
:1012D00008431949C8610846C0690121490408400A
:1012E000009000BF00BF00BF134840690843124987
:1012F000486108464069012149040840009000BF48
:1013000000BF0C20019002200290002003900320D7
:1013100004900120059001A90920C006FEF7A2FF54
:10132000002211461C20FFF713F91C20FFF702F9D9
:1013300006B010BD0044004000100240704700BFDE
:10134000FEE7000008B500BF0748406901214904D5
:10135000084305494861084640690121490408409D
:10136000009000BF00BF08BD0010024010B50E483D
:101370000E4908604B20C001486000210B48816085
:10138000C16001610C21416100218161C161016283
:101390000020064948620846FFF74AFF002801D0AE
:1013A000FEF732FF10BD0000004400404C0000205A
:1013B00070477047704710B5FFF756F810BD00B57D
:1013C00099B034210CA8FEF7F1FE00200890099096
:1013D0000A900B901C2101A8FEF7E8FE02200C9059
:1013E00001200F9010201090002015900CA8FFF7FE
:1013F000E9FA002801D0FEF707FF07200890002037
:1014000009900A900B90002108A8FFF77DF90028A9
:1014100001D0FEF7F9FE022001900020049001A8FF
:10142000FFF7A0F8002801D0FEF7EEFE19B000BDCE
:101430007047818CC907C90F002908D00168496825
:10144000012252049143826A1143026851600222D0
:10145000416A1140022907D101684968D2039143CA
:10146000C26A1143026851600422416A1140042992
:1014700007D10168496812049143026B1143026865
:1014800051600822416A1140082907D10168496862
:1014900012039143426B1143026851601022416A6A
:1014A0001140102907D10168896812029143826BAB
:1014B0001143026891602022416A1140202907D11E
:1014C0000168896812029143C26B114302689160FE
:1014D0004022416A1140402915D1016849689203B0
:1014E0009143026C11430268516001221205016CA4
:1014F000914208D101684968032252059143426C28
:101500001143026851608022416A1140802907D14D
:101510000168496812039143826C1143026851606B
:101520007047000038B504460020E067FEF796FFDC
:101530000546206800680821084008280BD1144897
:101540002B46002289040090204600F06BF9002809
:1015500001D0032038BD2068006804210840042819
:101560000BD10B482B46002209050090204600F0C5
:1015700059F9002801D00320ECE720206067A0671C
:1015800000BF00217020015500BF0020E2E70000ED
:10159000FFFFFF0170B505466C6A00215A20015318
:1015A000522001532046FFF748FD70BD01680968CD
:1015B000FF2221329143026811600168896849085D
:1015C000490002689160202181670021016670470F
:1015D00010B50446206800684021884321680860EF
:1015E00020206067002060662046FFF7A7FE10BD40
:1015F000FEB504460027002000902169A06808433A
:1016000061690843E16908430290206800687C49E9
:101610000840029908432168086020684068032157
:1016200009038843E168084321684860A069029083
:10163000206A029908430290206880680B21090201
:101640008843029908432168886000BF6D4920687B
:10165000884217D16C48006B8007800F002806D0A5
:10166000012808D0022808D0032808D101E000256D
:1016700007E0022505E0042503E0082501E0102528
:1016800000BF2BE06149206888421AD15E48006B98
:10169000032109040840002808D001210904401A48
:1016A00008D0401A08D0401A08D101E0002507E010
:1016B000022505E0042503E0082501E0102500BF10
:1016C0000CE053492068884201D1002506E05149C9
:1016D0002068884201D1002500E0102500BF0121CB
:1016E000C903E06988424AD1002D06D0022D10D0EE
:1016F000042D16D0082D29D11FE0FFF7CDF806469E
:10170000720063685B08D0186168FEF7F1FC87B26D
:101710001FE061684A08404BD018FEF7E9FC87B229
:1017200017E0FFF7CBF80646720063685B08D01835
:101730006168FEF7DDFC87B20BE061684A080123AF
:101740001B04D018FEF7D4FC87B202E00120009001
:1017500000BF00BF102F0FD3304887420CD82F484E
:101760000F38384001903807400F01990843019025
:1017700001982168C8603EE0012000903BE0002D08
:1017800006D0022D0ED0042D14D0082D25D11BE03B
:10179000FFF782F8064661684A089019FEF7A8FC30
:1017A00087B21DE061684A081D4BD018FEF7A0FC07
:1017B00087B215E0FFF782F8064661684A0890197B
:1017C000FEF796FC87B20BE061684A080123DB0351
:1017D000D018FEF78DFC87B202E00120009000BF18
:1017E00000BF102F05D30D48874202D82068C7607C
:1017F00001E0012000900020206660660098FEBD98
:10180000F369FFEF0038014000100240004400403F
:1018100000480040004C00400024F400FFFF00009E
:1018200000127A00FFB581B004460D4617460A9EA5
:101830004AE0701C002847D0FEF710FE0499401AB9
:10184000B04201D8002E17D120680068FF21A131D5
:10185000884321680860206880684008400021684B
:10186000886020206067A06700BF002170200155BC
:1018700000BF032005B0F0BD2068006804210840C7
:10188000002821D02068C06949020840C00A002809
:101890001AD008462168086220680068FF21A1313B
:1018A00088432168086020688068400840002168FB
:1018B000886020206067A067E06700BF002170207B
:1018C000015500BF0320D5E72068C0692840A84221
:1018D00001D1012000E00020B842AAD00020C9E7D1
:1018E00010B50F48C0694021084040280AD10C4873
:1018F000006A08430A49086200F0AEF8002009496E
:10190000086010BD0648C06920210840202802D187
:1019100000F0A2F8F5E70448FFF790FB00BFF0E7FE
:1019200000440040240000204C000020F8B582B2A2
:101930008BB2040C0D0C10465843002126465E4322
:10194000370C36048019794116466E43370C36043D
:101950008019794126466E438919F8BD10B50028D3
:1019600019DB1A4A03231B02D21883089B00D258A2
:101970008307DC0EFF23A3409A438B071B0E8407CB
:10198000E40EA3401A43114B032424021B198408BC
:10199000A4001A5118E00E4A03071B0F083B9B08CE
:1019A0009B00D2588307DC0EFF23A3409A438B078A
:1019B0001B0E8407E40EA3401A43054B0407240FB3
:1019C000083CA408A4001A5110BD000000E100E08A
:1019D0001CED00E002E008C8121F08C1002AFAD17D
:1019E00070477047002001E001C1121F002AFBD19F
:1019F00070470000FEF744FDFFF7E1FCFFF7A2FC93
:101A0000FFF7B4FC1048006A402108430E49086201
:101A100008460068402108430B49086008460068F2
:101A200020210843084908600D20084908700A2051
:101A3000487007480749086008460068007802496E
:101A40002031088100BFFEE7004400403C00002038
:101A500008000020000000203E490968002904D049
:101A600001291CD0022973D12EE03B490968491C89
:101A7000394A116011460968384A1268914207DAFA
:101A800037490968344A1268895C364A118105E091
:101A90000121304A116000212F4A116058E031497C
:101AA0008988C8B2232805D102212B4A1160294A0E
:101AB000116008E02C490968002904D101212A4A53
:101AC00011602849088143E026498988C8B2224923
:101AD00009680D2929DA25491F4A126888541E49C8
:101AE0000968491C1C4A1160232830D10021194A79
:101AF00011601E491A4A11600D2217490968491ED2
:101B00001A4B5A540A221946134B1B68CA541249DD
:101B10000968491C114A116000210F4A11601049DF
:101B2000096809780F4A118111E00021094A116002
:101B30000F490B4A11600F490968084A11600021DA
:101B4000054A1160064909680978064A118100BFF3
:101B500000BF704720000020280000200400002063
:101B60000000002020440040240000203C00002011
:101B70000F0000201C0000200000000000000000FA
:101B80000102030406070809000000000102030423
:101B9000B01B0008000000203C000000D419000821
:101BA000EC1B00083C00002094040000E41900082D
:101BB00000000000060000004369616F0D0A000D7F
:101BC0000A4572726F72650D0A0000000A0000007B
:101BD0000000000000000000000000000000000005
:0C1BE000040000000100000000127A0068
:04000005080000C12E
:00000001FF
