:020000040800F2
:1000000020040020D5000008410B0008B90A0008B0
:1000100000000000000000000000000000000000E0
:10002000000000000000000000000000450B000878
:100030000000000000000000430B0008470B000810
:10004000E7000008E7000008E7000008E7000008F4
:10005000E7000008E7000008E70000083102000898
:10006000E7000008E7000008E7000008E7000008D4
:10007000E7000008E7000008E7000008E7000008C4
:10008000E7000008E7000008E7000008E7000008B4
:10009000E7000008E7000008E7000008E7000008A4
:1000A000E7000008E7000008E7000008E700000894
:1000B000E7000008E7000008E7000008E700000884
:1000C0000348854600F0A2F800480047250C0008C8
:1000D000200400200448804704480047FEE7FEE76C
:1000E000FEE7FEE7FEE7FEE78F0B0008C100000811
:1000F00030B50B46014600202022012409E00D46C0
:10010000D5409D4205D31D469540491B2546954047
:1001100040191546521E002DF1DC30BD70B500248B
:100120002546002801DA01244042002901DA012590
:100130004942FFF7DDFFAC4200D04042002C00D026
:10014000494270BDF0B51FB40646002082B0054696
:100150004024019100901BE0019922460F46304651
:1001600000F020F8049A059B801A994110D310469C
:100170001946224600F039F8361A8F410197224677
:1001800001200021009F00F030F838184D41009008
:100190002046641E0028DFDC019B00982946324679
:1001A00007B0F0BD10B5202A04DB0846203AD04045
:1001B000002110BD0B46D340D0402024A21A91400C
:1001C0000843194610BDD2B201E00270401C491E1E
:1001D000FBD270470022F6E710B513460A460446E4
:1001E0001946FFF7F0FF204610BD10B5202A04DBAA
:1001F0000146203A9140002010BD914020239C1AD6
:100200000346E3401943904010BD0000064C012511
:10021000064E05E0E36807CC2B430C3C98471034AE
:10022000B442F7D3FFF750FF740C0008940C000899
:1002300010B50120400300F029F8094C206804287B
:1002400001DA401C00E0002020602168A0684843DB
:10025000192148436421FFF761FF606010BD000071
:100260000000002070B5044600F0D4F80546601C7C
:1002700002D004480078241800F0CCF8401BA042BB
:10028000FAD370BD0C0000207047000010B504497F
:100290004A69024202D04861FFF7F6FF10BD000034
:1002A00000040140F8B5002393E0224601249C405D
:1002B000A44622407ED04C68022C01D0122C0CD1D6
:1002C000DC08A40027183C6A5D07ED0E0F26AE403F
:1002D000B4430E69AE4026433E6205685E000324C7
:1002E000B4400F79A543BF07BF0FB7402F43076046
:1002F0004D68012D05D0022D03D0112D01D0122DF6
:100300000ED18568CF68A543B7402F438760476803
:100310006546AF430D79ED06ED0F9D403D434560C9
:10032000C568A5438C68B4402C43C4604C68E400A5
:100330004ED52B4CA56901263543A561A4699D08BE
:1003400034400094274CAD002F19BC689D072E0F38
:100350000F25B540AC430925ED06A84201D1002583
:1003600014E0214DA84201D101250FE01F4DA84204
:1003700001D102250AE01E4DA84201D1032505E066
:100380001C4DA84201D1042500E00525B5402543B8
:10039000BD60194C25684E689543F60300D515439A
:1003A000256065684E689543B60300D515436560C2
:1003B000A56800E00CE04E689543F60200D51543B1
:1003C000A560E5684E689543B60200D51543E56023
:1003D0005B1C0A681446DA4000D066E7F8BD0000EE
:1003E00000100240000001400004004800080048DE
:1003F000000C0048001000480004014042690A4215
:1004000000D0090481617047002A01D081617047E2
:100410008162704701488068704700000C0000202E
:100420000248816802788918816070470C000020BA
:1004300010B506480168102211430160002000F049
:1004400007F800F027F8002010BD0000002002404F
:1004500070B504460D4D7D202978C000FFF748FE99
:1004600001460B480068FFF743FE00F00DFB002833
:1004700009D1042C07D200222146401E00F02AF8A0
:1004800000206C6070BD012070BD00000C000020D9
:100490001800002008B508488169012211438161D4
:1004A000816911400091C26901040A43C261C069B7
:1004B0000840009008BD000000100240002805DB45
:1004C000C106C90E0120884001490860704700003C
:1004D00000E100E010B500F073FB10BDF8B50F4669
:1004E00006005FD03D4D2868C007C00FB84209D252
:1004F000286840084000384328602868C007C00FBB
:10050000B8424FD13068364C81070CD5400704D52E
:10051000606807210902084360606068F021884331
:10052000B168084360603078C0072CD0706801283B
:1005300010D0022811D0032812D021688907002981
:1005400030DA61688908890001436160FFF762FF62
:10055000009011E021688903F1E721688901EEE745
:10056000616BC903EBE7FFF755FF0099411A1D487E
:10057000814201D90320F8BD60680C2108407168F0
:1005800089008842EFD12868C007C00FB8420BD954
:10059000286840084000384328602868C007C00F1A
:1005A000B84201D00120F8BD3078400706D5606818
:1005B000072109028843F1680843606000F018F8D9
:1005C0006168094A0906090F515CC840074908607B
:1005D0000020FFF73DFF0020F8BD00000020024092
:1005E0000010024088130000640C0008180000206E
:1005F00030B519A30FCB89B06C460FC41AA30FCB2B
:100600000FC41D4A51680C200B4603401B48042BA5
:1006100005D01B4D082B04D00C2B00D1284609B067
:1006200030BD8B021B0F6C46E45CD26A04AB120730
:10063000120FC9039A5C890F022901D0032901D046
:10064000002301E0002328460021FFF77BFD21461F
:1006500000F09EFAE3E7000002030405060708091C
:100660000A0B0C0D0E0F10100102030405060708FB
:10067000090A0B0C0D0E0F100010024000127A0038
:10068000006CDC02FEB5040070D02078F94EFA4D03
:10069000C00748D068680007800F01281FD068682D
:1006A0000007800F022804D16868C003800F022869
:1006B00015D06168012919D001208004002901D0DA
:1006C000052917D02968B143296029688143296029
:1006D000606800281BD0FFF79DFE074613E02868DE
:1006E000800320D560680028CED01CE02868304305
:1006F0002860EDE7296801432960F7E7FFF78AFEE4
:10070000C01B642870D828688003F7D50BE0FFF77A
:1007100081FE074604E0FFF77DFEC01B6428F1D888
:1007200028688003F7D4207880073FD568680007E1
:10073000800F14D068680007800F022804D1686811
:10074000C003800F01280AD0E068002828681ED066
:10075000012108432860FFF75DFE07460CE028688A
:1007600080070CD5E068012800D108E080E1FFF7A0
:1007700051FEC01B0228C5D828688007F7D5286815
:10078000F82188432169C900084328600EE0400829
:1007900040002860FFF73EFE074604E0FFF73AFE00
:1007A000C01B0228AED828688007F7D4207800073D
:1007B00023D5E0690028686A0FD0012108436862E8
:1007C000FFF728FE074604E0FFF724FEC01B0228BF
:1007D00098D8686A8007F7D50FE040084000686243
:1007E000FFF718FE074605E0C3E0FFF713FEC01B46
:1007F000022887D8686A8007F7D420780427400742
:10080000002861DA00200190E869C00008D4E96995
:10081000B8060143E961E9690140012000910190B6
:1008200096480168C90511D4016882151143016019
:10083000FFF7F0FD009005E0FFF7ECFD0099401A8E
:10084000642898D88D480068C005F5D5A0680128AF
:100850000AD0002801D0052811D0286A400840009D
:100860002862286AB84302E0286A01210843286206
:10087000A068002812D0FFF7CDFD00900AE0286A9A
:1008800038432862F0E7FFF7C5FD0099411A7C481C
:1008900081426ED8286A8007F5D50DE0FFF7BAFDD2
:1008A000009006E0FFF7B6FD0099411A74488142B6
:1008B0005FD8286A8007F5D40198002804D0E96938
:1008C000012000078143E9612078C00635D56069C1
:1008D00001280CD0401D686B24D038436863686BD6
:1008E000400840006863FFF795FD074622E0686B0B
:1008F00038436863686B012108436863FFF78AFD2A
:10090000074604E0FFF786FDC01B022831D8686B5C
:100910008007F7D5686BF8218843A169C9000843AF
:1009200068630AE0B8436863F4E7FFF773FDC01B30
:1009300002281ED8686B8007F7D42078800637D548
:1009400068680007800F032814D068680007800FCC
:10095000022804D16868C003800F03280AD0206AE7
:100960000028686B16D030436863FFF753FD0646D6
:100970000CE062E0686BC0031AD5206A012877D1C9
:1009800016E0FFF747FD801B022856D8686BC003AE
:10099000F7D50DE0B0436863FFF73CFD064604E081
:1009A000FFF738FD801B022847D8686BC003F7D4D7
:1009B000606A002866D069680907890F022942D059
:1009C000012636060228286805D0B0432860FFF7C4
:1009D00021FD044633E0B0432860FFF71BFD0746C6
:1009E00004E0FFF717FDC01B022826D82868800105
:1009F000F7D4E86A216B000900010843E862A16AA4
:100A0000E06A084369687B22D20391430843686027
:100A1000286830432860FFF7FDFC044604E0FFF738
:100A2000F9FC001B022808D828688001F7D529E0C6
:100A3000FFF7F0FC001B022801D90320FEBD286847
:100A40008001F5D41EE00128F8D06868E96A032225
:100A5000D203A36A02409A420AD10907226B090F06
:100A6000914205D10F2189040840E16A884209D0EA
:100A70000120FEBD00000100001002400070004097
:100A8000881300000020F4E7094910B5401E884291
:100A900001D9012010BD074C60610321081F00F03F
:100AA0008FF80020A06107202061002010BD000009
:100AB000FFFFFF0000E000E0FEE7000030B587B078
:100AC00014216846FFF786FB1A4842690121C904D0
:100AD0000A43426142690A400592426989100A4309
:100AE0004261406909250840ED0605900022202159
:100AF0002846FFF789FC0120400300900E4800249F
:100B00000190694602940D48FFF7CCFB202000902D
:100B1000012001900294694603942846FFF7C2FB26
:100B2000002211460720FFF7D5FC0720FFF7C6FC7F
:100B300007B030BD0010024000001110000800484E
:100B400070477047704710B5FFF76AFC10BD10B5CD
:100B500092B034216846FFF73DFB00240F94022039
:100B600000900D9401200E9403901020099404909D
:100B700010946846FFF786FD07200D900E940F94A1
:100B8000002110940DA8FFF7A9FC12B010BD70470A
:100B9000F8B5040C8BB2264682B25E430D0C1046AB
:100BA000370C5843360480190021794116466E43AC
:100BB000370C36048019794126466E438919F8BDF1
:100BC0008307FF22DB0E9A408907090E994000280F
:100BD00008DB830809489B001B18186890430843EA
:100BE000186070470007000F0838830804489B000E
:100BF0001B18D86990430843D861704700E400E0AF
:100C000000ED00E002E008C8121F08C1002AFAD176
:100C100070477047002001E001C1121F002AFBD17C
:100C200070470000FFF704FCFFF791FFFFF746FF56
:100C300009250A4C0A4EED0620212846FFF7DEFB67
:100C40002068FFF70FFB20212846FFF7D7FB30680D
:100C50002168401AFFF706FBEEE7000004000020C1
:100C60000800002000000000000000000102030452
:100C700006070809940C0008000000201C00000072
:100C8000040C0008B00C00081C0000200404000044
:100C9000140C0008000000000000000064000000C8
:100CA00001000000040000000000000000127A00B3
:04000005080000C12E
:00000001FF
