:020000040800F2
:1000000068040020D5000008AD120008B3110008F4
:1000100000000000000000000000000000000000E0
:10002000000000000000000000000000B112000805
:100030000000000000000000AF120008B31200082A
:10004000E7000008E7000008E7000008E7000008F4
:10005000E7000008E7000008E70000083102000898
:10006000E7000008E7000008E7000008E7000008D4
:10007000E7000008E7000008E7000008E7000008C4
:10008000E7000008E700000811130008E700000877
:10009000E7000008E7000008E7000008E7000008A4
:1000A000E7000008E7000008E7000008E700000894
:1000B000E7000008E7000008E7000008E700000884
:1000C0000348854600F0A2F800480047D514000810
:1000D000680400200448804704480047FEE7FEE724
:1000E000FEE7FEE7FEE7FEE70F130008C100000889
:1000F00030B50B46014600202022012409E00D46C0
:10010000D5409D4205D31D469540491B2546954047
:1001100040191546521E002DF1DC30BD70B500248B
:100120002546002801DA01244042002901DA012590
:100130004942FFF7DDFFAC4200D04042002C00D026
:10014000494270BDF0B51FB40646002082B0054696
:100150004024019100901BE0019922460F46304651
:1001600000F020F8049A059B801A994110D310469C
:100170001946224600F039F8361A8F410197224677
:1001800001200021009F00F030F838184D41009008
:100190002046641E0028DFDC019B00982946324679
:1001A00007B0F0BD10B5202A04DB0846203AD04045
:1001B000002110BD0B46D340D0402024A21A91400C
:1001C0000843194610BDD2B201E00270401C491E1E
:1001D000FBD270470022F6E710B513460A460446E4
:1001E0001946FFF7F0FF204610BD10B5202A04DBAA
:1001F0000146203A9140002010BD914020239C1AD6
:100200000346E3401943904010BD0000064C012511
:10021000064E05E0E36807CC2B430C3C98471034AE
:10022000B442F7D3FFF750FFB8150008D8150008FF
:1002300010B50120400300F02DF810480068042894
:1002400005DA0E480068401C0C49086002E00020F6
:100250000A4908600A490968084A12685143192284
:10026000514308466421FFF759FF06490860002002
:10027000054908600549086010BD00000000002025
:100280000800002004000020100000200C000020C6
:100290007047704710B50446054840692040002863
:1002A00004D0034844612046FFF7F3FF10BD00006F
:1002B0000004014078B503460022E2E001269640A2
:1002C0000C683440002C7DD04D68022D02D04D6862
:1002D000122D15D1D508AE001D462035A859550759
:1002E000EE0E0F25B5400646AE4330465607F60ED5
:1002F0000D69B5402843D508AD001E462036705123
:10030000186856000325B5400646AE4330460D79C1
:10031000AD07AD0F5600B540284318604D68012D5C
:1003200008D04D68022D05D04D68112D02D04D68C2
:10033000122D18D1986856000325B5400646AE43E5
:1003400030465600CD68B54028439860586801256E
:1003500095400646AE43304610264D6835402D097F
:10036000954028435860D86856000325B540064696
:10037000AE43304656008D68B5402843D86001260C
:1003800036074D683540B5427AD100BF404DAD6962
:10039000012635433E4EB5613546AD69ED07ED0F9B
:1003A000009500BF00BF3B4D9608B600A8599507C1
:1003B0002E0F0F25B5400646AE4330460925ED0603
:1003C000AB4200E05CE001D1002514E0324DAB42CD
:1003D00001D101250FE0314DAB4201D102250AE0E8
:1003E0002F4DAB4201D1032505E02E4DAB4201D18B
:1003F000042500E005259607360FB5402843254D16
:100400009608B600A851284D28680546A5432846F9
:10041000012636044D683540B54202D105462543D4
:100420002846214D286068680546A54328460126D0
:1004300076044D683540B54202D10546254328462D
:10044000194D6860A8680546A5432846012636056B
:100450004D683540B54202D1054625432846124D28
:10046000A860E8680546A5432846012676054D683C
:100470003540B54202D10546254328460A4DE8607D
:10048000521C0D68D540002D00D017E778BD000044
:100490000010024008000140000400480008004825
:1004A000000C0048001000480004014042690A4066
:1004B000002A02D00A04826100E081617047002AAC
:1004C00001D0816100E0816270470000014800684E
:1004D00070470000180000200348006803490978AD
:1004E00040180149086070471800002020000020D3
:1004F00010B5064800681021084304490860002030
:1005000000F006F800F02EF8002010BD0020024098
:1005100070B50446104801787D20C000FFF7E8FD63
:10052000064631460D480068FFF7E2FD054600F03B
:10053000B5FC002801D0012070BD042C07D2002298
:100540002146501E00F03CF80548046001E00120FF
:10055000F2E70020F0E70000200000202400002047
:100560001C00002008B500BF0D4880690121084328
:100570000B49886108468069C007C00F009000BF22
:1005800000BF00BF0846C069090408430449C861A8
:100590000846C06909040840009000BF00BF08BDBC
:1005A000001002400146002905DBCB06DB0E0122CC
:1005B0009A40024B1A6000BF7047000000E100E063
:1005C00070B504460D4616462946204600F036FF13
:1005D00070BD000070B504460D46002C01D101200D
:1005E00070BD58480068C007C00FA8420ED25548D9
:1005F00000684008400028435249086008460068E7
:10060000C007C00FA84201D00120E9E702212068FD
:100610000840022814D1042120680840042807D18A
:100620004948406807210902884340184649486004
:1006300045484068F0218843A16808434249486022
:100640002078C007C00F002847D06068012808D173
:100650003D480068012149040840002821D10120BB
:10066000BEE76068022808D13748006801214906C2
:100670000840002815D10120B2E76068032808D19E
:100680003148406B012109040840002809D10120AC
:10069000A6E72D48006802210840002801D101206A
:1006A0009EE7294840688008800061680843264921
:1006B0004860FFF70BFF064607E0FFF707FF801BC8
:1006C0002249884201D903208AE71F4840680C214B
:1006D0000840616889008842EFD11A480068C00765
:1006E000C00FA8420ED917480068400840002843B0
:1006F0001449086008460068C007C00FA84201D02E
:1007000001206DE7042120680840042808D10E4824
:100710004068072109028843E16808430A494860A4
:1007200000F01AF808494968F02211400909084AFE
:10073000515CC840074908600020FFF7E9FE00202F
:100740004EE7000000200240001002408813000025
:10075000A015000824000020F0B589B035A001469E
:100760000EC9C06805AC0EC4089036A001460EC97B
:10077000C06801AC0EC404900025002400270026A8
:1007800000200090334845680C202840002849D0BC
:10079000042804D0082805D00C2842D13EE02E4879
:1007A000009042E00F2080042840800C05A90E5CD8
:1007B0002848C06A0007000F01A90C5C0320C00391
:1007C00028400121090488420AD1224600232248F8
:1007D0001946FFF7B7FC314600F018FE07461BE04C
:1007E0000320C00328400321C90388420AD12246BE
:1007F00000231A481946FFF7A5FC314600F006FE13
:10080000074609E02246002313481946FFF79AFCE1
:10081000314600F0FBFD0746009706E00F480090C8
:1008200003E000BF0C48009000BF00BF009809B073
:10083000F0BD000002030405060708090A0B0C0DB1
:100840000E0F10100102030405060708090A0B0C1D
:100850000D0E0F100010024000127A00006CDC0236
:10086000FEB50446002C01D10120FEBD2078C00752
:10087000C00F002872D0FC4840680C2108400428B2
:100880000CD0F94840680840082813D1F648406861
:10089000490308400121090488420BD1F24800684D
:1008A00001214904084000286BD06068002868D105
:1008B0000120DAE700BF6068012807D1EA48006834
:1008C000012109040843E849086031E06068002814
:1008D0000ED1E5480068012109048843E249086017
:1008E00008460068012189048843DF4908601FE049
:1008F000606805280ED1DC4800680121890408439E
:10090000D949086008460068012109040843D6490E
:1009100008600DE0D4480068012109048843D249E9
:10092000086008460068012189048843CE490860B0
:1009300000BF6068002812D0FFF7C8FD054606E03A
:10094000FFF7C4FD401B642801D903208DE7C6488A
:1009500000680121490408400028F1D011E0FFF7A8
:10096000B5FD054606E0FFF7B1FD401B642801D93F
:1009700003207AE7BC4800680121490408400028A8
:10098000F1D1022120680840022862D1B6484068AF
:100990000C21084000280CD0B348406808400828C3
:1009A0001CD1B1484068490308400121C90388426D
:1009B00014D1AD48006802210840002804D0E06846
:1009C000012801D0012050E7A7480068F82188439A
:1009D0002169C9000843A44908603AE0E06800289A
:1009E00020D0A1480068012108439F490860FFF713
:1009F0006DFD054606E0FFF769FD401B022801D9A1
:100A0000032032E798480068022108400028F2D00D
:100A100095480068F82188432169C9000843924934
:100A2000086016E090480068400840008E49086061
:100A3000FFF74CFD054606E0FFF748FD401B022886
:100A400001D9032011E788480068022108400028E6
:100A5000F2D1082120680840082831D1E069002837
:100A600017D08148406A012108437F494862FFF757
:100A70002DFD054606E0FFF729FD401B022801D9A0
:100A80000320F2E67848406A022108400028F2D0AC
:100A900016E07548406A4008400073494862FFF715
:100AA00015FD054606E0FFF711FD401B022801D9A0
:100AB0000320DAE66C48406A022108400028F2D19F
:100AC000042120680840042872D100200190664863
:100AD000C0698906084000280ED100BF6248C0697D
:100AE00008436149C8610846C0690904084000908C
:100AF00000BF00BF012001905C480068FF21013168
:100B00000840002816D15948006808435749086032
:100B1000FFF7DCFC054606E0FFF7D8FC401B642825
:100B200001D90320A1E651480068FF2101310840A6
:100B30000028F1D000BFA068012806D14A48006A09
:100B400001210843484908622AE0A06800280BD127
:100B50004548006A4108490043480162006A04218F
:100B60008843414908621BE0A06805280CD13E4833
:100B7000006A042108433C4908620846006A0121D2
:100B80000843394908620BE03748006A40084000D2
:100B9000354908620846006A0421884332490862E0
:100BA00000BFA068002813D0FFF790FC054608E0BE
:100BB0002BE0FFF78BFC401B2D49884201D9032015
:100BC00053E62948006A022108400028F1D011E0CC
:100BD000FFF77CFC054607E0FFF778FC411B244843
:100BE000814201D9032040E61F48006A02210840E3
:100BF0000028F1D10198012806D11B48C0690121C4
:100C0000090788431849C86100BF102120680840BF
:100C100010285FD1606901282CD11348406B042152
:100C20000843114948630846406B012108430E49B7
:100C30004863FFF74BFC054606E0FFF747FC401B07
:100C4000022801D9032010E60748406B0221084022
:100C50000028F2D00448406BF8218843A169C900FC
:100C600008430149486335E000100240007000402D
:100C7000881300006069401D00280FD18648406B32
:100C800004218843844948630846406BF82188431F
:100C9000A169C9000843804948631BE07E48406B56
:100CA000042108437C4948630846406B40084000E3
:100CB0004863FFF70BFC054606E0FFF707FC401B07
:100CC000022801D90320D0E57348406B0221084077
:100CD0000028F2D1202120680840202852D16E48F7
:100CE00040680C2108400C280AD06B484068084036
:100CF000082811D1684840684903084088420BD150
:100D00006548406B01210904084000283AD0206A58
:100D1000012837D00120A8E5206A002819D05E48B4
:100D2000406B0121090408435B494863FFF7CEFB90
:100D3000054606E0FFF7CAFB401B022801D9032045
:100D400093E55548406B0121090408400028F1D083
:100D500018E05148406B0121090488434E4948631B
:100D6000FFF7B4FB054606E0FFF7B0FB401B022887
:100D700001D9032079E54848406B01210904084066
:100D80000028F1D1606A00284FD0434840680C2108
:100D90000840082864D0606A022847D13E480068AD
:100DA0000121090688433C490860FFF78FFB05468F
:100DB00006E0FFF78BFB401B022801D9032054E516
:100DC000354800680121490608400028F1D100BFDC
:100DD0003148C06A00090001216B08432E49C862EE
:100DE000A16AE06A08432C4949687B22D2039143F7
:100DF00008432949486000BF0846006801210906E8
:100E0000084325490860FFF761FB054606E0FFF748
:100E10005DFB401B022801D9032026E51E4800681F
:100E20000121490608400028F1D033E01A48006843
:100E300001210906884318490860FFF747FB05466A
:100E400006E0FFF743FB401B022801D903200CE515
:100E5000114800680121490608400028F1D119E035
:100E6000606A012800D100E50B484668C76A032084
:100E7000C0033040A16A88420AD13907090F206BAC
:100E8000814205D10F2080043040E16A884201D0C0
:100E90000120EAE40020E8E40010024070B50446B6
:100EA0002546681E0949884201D901200CE0681EC8
:100EB000074948610321081F00F0C0FA00200449D7
:100EC000886107200861002070BD0000FFFFFF005F
:100ED00000E000E07047704730B502460B4600BFA7
:100EE0003C20805C012801D1022030BD01253C203E
:100EF000855400BF02253D20855410684468106861
:100F0000816870252046A843044618680443106889
:100F10004460114D1068A8420CD00125AD0710683F
:100F2000A84207D00D4D1068A84203D00C4D1068A0
:100F3000A84207D180250846A843014658680143C6
:100F40001068816001253D20855400BF00253C20AC
:100F5000855400BF0020C8E7002C01400004004079
:100F60000040014010B50446002C01D1012010BD05
:100F70003D20005D002805D100213C200155204680
:100F800000F00CF802213D200155211D206800F0E1
:100F9000E5F901213D2001550020E8E738B5044678
:100FA0000D492068884215D100BF0C48C069202136
:100FB00008430A49C8610846C069202108400090DA
:100FC00000BF00BF002211461220FFF7F9FA1220DD
:100FD000FFF7E8FA38BD000000140040001002409E
:100FE000704710B504462068006902210840400897
:100FF00000281CD02068C06808404008002816D08F
:10100000481F2168086101202077206880698007D7
:10101000800F002803D02046FFF7E2FF05E02046BE
:1010200000F0C3F8204600F0C1F8002020772068C7
:10103000006904210840800800281DD02068C0688D
:1010400008408008002817D0C843216808610220A2
:10105000207720688069032109020840002803D016
:101060002046FFF7BDFF05E0204600F09EF8204631
:1010700000F09CF8002020772068006908210840D3
:10108000C00800281CD02068C0680840C00800289C
:1010900016D0C84321680861042020772068C06901
:1010A0008007800F002803D02046FFF799FF05E056
:1010B000204600F07AF8204600F078F800202077EB
:1010C0002068006910210840000900281DD0206810
:1010D000C06808400009002817D0C843216808618B
:1010E000082020772068C0690321090208400028F1
:1010F00003D02046FFF774FF05E0204600F055F8C6
:10110000204600F053F80020207720680069C007CF
:10111000C00F01214840484000280CD02068C0681A
:10112000084048404840002805D0C81E2168086192
:10113000204600F03CF82068006980210840C00982
:1011400000280BD02068C0680840C009002805D0DE
:10115000C843216808612046FFF7BCFE206800698B
:1011600040210840800900280BD02068C068084052
:101170008009002805D0C84321680861204600F096
:1011800017F82068006920210840400900280BD08A
:101190002068C06808404009002805D0C84321687D
:1011A00008612046FFF797FE10BD704770477047F3
:1011B000704700BFFEE7000000B587B0142102A809
:1011C000FFF708F800BF224840690121C90408431D
:1011D0001F494861084640690121C904084001903F
:1011E00000BF00BF00BF1A48406989100843184972
:1011F000486108464069012149040840019000BF48
:1012000000BF002220210920C006FFF758F9012065
:10121000400302900F4803900020049002A90E485A
:10122000FFF748F82020029001200390002004904E
:10123000059002A90920C006FFF73CF800221146DC
:101240000720FFF7BDF90720FFF7ACF907B000BD95
:101250000010024000001110000800481CB50020DA
:10126000009001900E480F4908600120486000215D
:101270000C4881600C49C16000218161FFF772FE5A
:10128000002801D0FFF704F8002000900190694683
:101290000448FFF721FE002801D0FEF7F9FF1CBD2E
:1012A00000140040280000201027000070477047FD
:1012B000704710B5FFF710F910BD00B591B034219B
:1012C00004A8FEF787FF0020009001900290039091
:1012D00002200490012007901020089000200D901B
:1012E00004A8FFF7BDFA002801D0FEF7D1FF0720C0
:1012F0000090002001900290039000216846FFF7C3
:1013000069F9002801D0FEF7C3FF11B000BD704796
:1013100010B50E48FFF765FE0D48006800280BDD8C
:101320000B480068401E0A4908600A48006801210D
:1013300008430849086008E000200749086005489C
:101340000068400840000349086010BD28000020E4
:1013500014000020001400401000002010B50268A6
:10136000244B984206D001239B07984202D0224B7F
:10137000984205D170241346A3431A464B681A437A
:101380001C4B984212D001239B0798420ED01A4B57
:1013900098420BD0194B984208D0194B984205D06F
:1013A000184B984202D0184B984206D103242402CD
:1013B0001346A3431A46CB681A4380241346A3431B
:1013C0004C6923431A4602608B68C3620B688362D0
:1013D000084B984208D00A4B984205D0094B9842D6
:1013E00002D0094B984201D10B6903630123436189
:1013F00010BD0000002C014000040040002000400F
:10140000004001400044014000480140F8B582B26C
:101410008BB2040C0D0C10465843002126465E4347
:10142000370C36048019794116466E43370C360462
:101430008019794126466E438919F8BD10B50028F8
:1014400019DB1A4A03231B02D21883089B00D258C7
:101450008307DC0EFF23A3409A438B071B0E8407F0
:10146000E40EA3401A43114B032424021B198408E1
:10147000A4001A5118E00E4A03071B0F083B9B08F3
:101480009B00D2588307DC0EFF23A3409A438B07AF
:101490001B0E8407E40EA3401A43054B0407240FD8
:1014A000083CA408A4001A5110BD000000E100E0AF
:1014B0001CED00E002E008C8121F08C1002AFAD1A2
:1014C00070477047002001E001C1121F002AFBD1C4
:1014D00070470000002021490860FFF709F8FFF776
:1014E000ECFEFFF769FEFFF7B9FE0A201C49086011
:1014F0001C48C068012108431A49C860002048629E
:10150000086108460068012108431649086023E085
:101510001248006800280ED120210920C006FEF7DD
:10152000C5FF114800680E49086000F021F801204D
:101530000A49086010E020210920C006FEF7B6FF26
:101540000A48006808490968401A0549086000F01F
:101550000FF8002001490860DAE700000C000020C5
:1015600014000020001400400400002008000020A7
:1015700001200949086000200849486208610846BE
:101580000068012108430549086000BF024800685F
:101590000028FBD17047000010000020001400401C
:1015A0000000000000000000010203040607080913
:1015B0000000000001020304D8150008000000200C
:1015C00028000000B41400080016000828000020BD
:1015D00040040000C41400080000000000000000E7
:1015E00032000000000000000000000000000000C9
:1015F00000000000040000000100000000127A005A
:04000005080000C12E
:00000001FF
