:020000040800F2
:10000000E0040020D5000008B11A0008811400089F
:1000100000000000000000000000000000000000E0
:10002000000000000000000000000000B51A0008F9
:100030000000000000000000B31A0008B71A000812
:10004000E7000008E7000008E7000008E7000008F4
:10005000E7000008E7000008E7000008E7000008E4
:10006000E7000008E7000008E7000008E7000008D4
:1000700031020008E7000008E7000008E700000878
:10008000E7000008E70000081D1B0008E700000863
:10009000E7000008E7000008E700000885140008F2
:1000A000E7000008E7000008E7000008E700000894
:1000B000E7000008E7000008E7000008E700000884
:1000C0000348854600F0A2F800480047551C000888
:1000D000E00400200448804704480047FEE7FEE7AC
:1000E000FEE7FEE7FEE7FEE71B1B0008C100000875
:1000F00030B50B46014600202022012409E00D46C0
:10010000D5409D4205D31D469540491B2546954047
:1001100040191546521E002DF1DC30BD70B500248B
:100120002546002801DA01244042002901DA012590
:100130004942FFF7DDFFAC4200D04042002C00D026
:10014000494270BDF0B51FB40646002082B0054696
:100150004024019100901BE0019922460F46304651
:1001600000F020F8049A059B801A994110D310469C
:100170001946224600F039F8361A8F410197224677
:1001800001200021009F00F030F838184D41009008
:100190002046641E0028DFDC019B00982946324679
:1001A00007B0F0BD10B5202A04DB0846203AD04045
:1001B000002110BD0B46D340D0402024A21A91400C
:1001C0000843194610BDD2B201E00270401C491E1E
:1001D000FBD270470022F6E710B513460A460446E4
:1001E0001946FFF7F0FF204610BD10B5202A04DBAA
:1001F0000146203A9140002010BD914020239C1AD6
:100200000346E3401943904010BD0000064C012511
:10021000064E05E0E36807CC2B430C3C98471034AE
:10022000B442F7D3FFF750FFF01C0008101D000880
:100230007CB51F4800F0DAF81E4C20680425C00782
:10024000002806D02068012108432060A0682843C8
:10025000A060A068400727D516484030016868466E
:100260000180154E019600880A2148433146FFF768
:1002700055FF0190684600880A2148433146FFF740
:100280004DFF084600910A2148433146FFF746FFDB
:10029000084600910A2148433146FFF73FFF00908E
:1002A0006068A84360607CBDA0682843A0607CBDF6
:1002B00010000020002401407C300000F8B500252B
:1002C000044620340095227D012A3BD0012222756C
:1002D00003689E68760776D43F4F4E68BE4254D07E
:1002E0009E6A0F78BA4016439E620123C26A1B07BA
:1002F0009A421FD0012A1DD0022A1BD0032A19D0EE
:10030000042A17D0052A15D0062A13D0072A11D09F
:1003100002688B6856697607760FB3420AD0536934
:10032000DB08DB005361006842690B7A5B075B0FF7
:100330001A4342610868102806D0112804D01228F8
:1003400002D045E00220F8BD244A9368102809D065
:1003500011280AD001200006034393600868102882
:1003600006D035E00120C005F6E701208005F3E75F
:100370001C481B490068FFF7BBFE0A21484300E008
:10038000401E00900028FBD122E0986A0E78B2400F
:10039000904398620868102803D0112801D01228D1
:1003A00016D10E498A68102807D0112808D00120DC
:1003B000000682438A600BE005E00120C005F8E7F3
:1003C00001208005F5E7816B20221143816301251F
:1003D000002020752846F8BD0110000000270140CC
:1003E00040420F000C0000207047704770B5044673
:1003F00000680168490702D54168490705D40168CA
:10040000090730D5416809072DD5A16BC90604D469
:10041000A16B012252021143A163C1680C25090599
:10042000890F00291AD1A17E002917D10168090777
:1004300014D581684A070121002A08DB4268AA43D3
:100440004260A06B0A0290430843A06306E0A06BE1
:1004500020221043A063E06B0843E0632046FFF7CF
:10046000C3FF206805602068016809060DD5406853
:1004700000060AD5A06B012109040843A0632046A9
:1004800000F0D8F821688020086020680168C9065B
:1004900013D54168C90610D5A16A1025012902D0DB
:1004A000C168C90707D0E16B02221143E16305600F
:1004B0002046FFF79AFF2068056070BDF8B500265A
:1004C0000446002805D0A06B25462035002802D020
:1004D00007E00120F8BD0020E0632875204600F009
:1004E000ABF8A06B1022C006002870DB2068816882
:1004F00049076CD4A16B1301994302231943A163EB
:1005000081688907890F012905D10168C9070FD1C1
:10051000C16809040CD4C16818239943A36819431E
:10052000C160206801696368890089081943016115
:100530002068C1683D4B1940C160207E617E800308
:10054000C9030843A17E4B031843A36A012B02D0C1
:1005500001231B0300E000231843E36818432369C9
:10056000022B09D0002318432B79E57E5B0018434A
:100570000123012D02D00AE00423F4E7002927D04B
:10058000A16B20252943A163E16B1943E163E16974
:100590000D46FF3DC23D02D0256A2943084321682C
:1005A000CD680543CD600125E16A2D07A94213D02E
:1005B000012911D002290FD003290DD004290BD015
:1005C000052909D0062907D0072905D010E028E021
:1005D000012109040843DAE721684D69ED08ED00BF
:1005E0004D6121684D69A78D7F077F0F3D434D61A8
:1005F0002168C9680E4D2940814207D10020E0637F
:10060000A06B80088000401CA06308E0A06B022162
:1006100088431043A063E06B1843E0630126304633
:10062000F8BDA06B1043A063F8E700001902FEFFBD
:10063000E7FF3F837047000010B586B004461421E1
:100640006846FFF7C7FD14492068884221D1134846
:10065000826941150A43826182690A4005924269B2
:1006600009020A4342614069084005900120009058
:10067000032001900020029009206946C00600F086
:1006800033F8002211460C2000F05CFA0C2000F038
:100690004DFA06B010BD00000024014000100240D9
:1006A00070B50024014620314A78022A03D0042183
:1006B0008163012416E0026813680E25AB431360C2
:1006C000026813685B085B0013600122056C134627
:1006D000AB40C56B6B604A7000220A70416B002909
:1006E00000D08847204670BDF8B5002393E022462D
:1006F00001249C40A44622407ED04C68022C01D0AC
:10070000122C0CD1DC08A40027183C6A5D07ED0E02
:100710000F26AE40B4430E69AE4026433E620568E4
:100720005E000324B4400F79A543BF07BF0FB74055
:100730002F4307604D68012D05D0022D03D0112DE8
:1007400001D0122D0ED18568CF68A543B7402F4345
:10075000876047686546AF430D79ED06ED0F9D4014
:100760003D434560C568A5438C68B4402C43C460D4
:100770004C68E4004ED52B4CA56901263543A56194
:10078000A4699D0834400094274CAD002F19BC6823
:100790009D072E0F0F25B540AC430925ED06A84255
:1007A00001D1002514E0214DA84201D101250FE01F
:1007B0001F4DA84201D102250AE01E4DA84201D1D9
:1007C000032505E01C4DA84201D1042500E00525C4
:1007D000B5402543BD60194C25684E689543F60326
:1007E00000D51543256065684E689543B60300D56E
:1007F00015436560A56800E00CE04E689543F6027D
:1008000000D51543A560E5684E689543B60200D54E
:100810001543E5605B1C0A681446DA4000D066E7C1
:10082000F8BD000000100240000001400004004834
:1008300000080048000C0048001000480004014077
:10084000002A01D081617047816270470148806849
:10085000704700000000002070B502464032537817
:10086000202B1CD11378012B19D0012313702424C1
:100870005470046825689D432560046825681E033C
:10088000B5432560046825680D432560006801684C
:1008900019430160202050700020107070BD0220AC
:1008A00070BD70B5024640325378202B1BD11378AF
:1008B000012B18D0012414702423537003681D6881
:1008C000A5431D6005682B680F263602B343090255
:1008D000194329600068016821430160202050709D
:1008E0000020107070BD022070BD7047704770B559
:1008F00003689A691968D243D40508D4CC43240606
:1009000005D4446C01252C4344642C02DC6153055E
:1009100009D4CB431B0606D4436C08242343436409
:10092000E3010468E361920509D4C943090606D4CA
:10093000416C02221143416411020268D161416C91
:100940000B22114201D000F039FE70BD026891699E
:100950001268436B002B00D01847704770470000A7
:1009600070B5040006D0254640356878002600287A
:1009700002D005E0012070BD2E70204600F04CF83A
:1009800024206870206801684908490001600F212F
:100990006068090688432168086121688A68012027
:1009A000C00382438A60E1680129A16808D021223E
:1009B0009202114322689160E168022902D005E0A9
:1009C0000143F7E701212268C902516021684A68A2
:1009D0000F4B1A434A602168CA688243CA60616942
:1009E00020690843A169090208432168C860216A97
:1009F000E06908432168086020680168012211430A
:100A000001606664202068702663AE70002070BDAF
:100A1000008000027047000010B586B00446142123
:100A20006846FFF7D7FB16492068884226D1154C47
:100A300061690120800401436161616901400591A0
:100A40000320000200901220012101900320029156
:100A50000491039069460C48FFF746FEE1690120C6
:100A600040050143E161E169002201400591114621
:100A7000172000F067F8172000F058F806B010BDF6
:100A800000540040001002400004004870477047C6
:100A90000248816802788918816070470000002050
:100AA00010B506480168102211430160002000F0D3
:100AB00007F800F027F8002010BD000000200240D9
:100AC00070B504460D4D7D202978C000FFF710FB5E
:100AD00001460B480068FFF70BFB00F09DFB002868
:100AE00009D1042C07D200222146401E00F02AF82A
:100AF00000206C6070BD012070BD0000000000206F
:100B00000C00002008B50848816901221143816169
:100B1000816911400091C26901040A43C261C06940
:100B20000840009008BD000000100240002805DBCE
:100B3000C106C90E012088400149086070470000C5
:100B400000E100E010B501F053F810BDF8B504461F
:100B50000068434DC00352D5E8690026C00007D4A1
:100B6000E96928040143E961E9690140012600912E
:100B70003C480168C90510D4016882151143016021
:100B8000FFF764FE074604E0FFF760FEC01B642821
:100B900024D834480068C005F6D5286A03273F02E8
:100BA000384020D06168394081421CD0286A2A6AC6
:100BB000B843012109040A432A622A6A8A432A6245
:100BC0002862C0070FD0FFF741FE009008E0FFF752
:100BD0003DFE0099411A2448814201D90320F8BD05
:100BE000286A8007F3D5286A6168B84308432862F9
:100BF000002E04D0E869012109078843E8612078C4
:100C0000C00705D0286BA1688008800008432863CE
:100C10002078800706D5286B032109048843E16802
:100C2000084328632078800605D5286B1021884367
:100C30002169084328632068800305D5286B80213B
:100C40008843A169084328632088400505D5286B9F
:100C5000402188436169084328630020F8BD0000F3
:100C6000001002400070004088130000F8B50F46E5
:100C700006005FD03D4D2868C007C00FB84209D2BA
:100C8000286840084000384328602868C007C00F23
:100C9000B8424FD13068364C81070CD5400704D597
:100CA000606807210902084360606068F02188439A
:100CB000B168084360603078C0072CD070680128A4
:100CC00010D0022811D0032812D0216889070029EA
:100CD00030DA61688908890001436160FFF7B6FD79
:100CE000009011E021688903F1E721688901EEE7AE
:100CF000616BC903EBE7FFF7A9FD0099411A1D4895
:100D0000814201D90320F8BD60680C210840716858
:100D100089008842EFD12868C007C00FB8420BD9BC
:100D2000286840084000384328602868C007C00F82
:100D3000B84201D00120F8BD3078400706D5606880
:100D4000072109028843F1680843606000F018F841
:100D50006168094A0906090F515CC84007490860E3
:100D60000020FFF7ADFE0020F8BD0000002002408B
:100D70000010024088130000E01C00080C00002056
:100D800030B519A30FCB89B06C460FC41AA30FCB93
:100D90000FC41D4A51680C200B4603401B48042B0E
:100DA00005D01B4D082B04D00C2B00D1284609B0D0
:100DB00030BD8B021B0F6C46E45CD26A04AB120799
:100DC000120FC9039A5C890F022901D0032901D0AF
:100DD000002301E0002328460021FFF7B3F9214654
:100DE00000F0EEFEE3E70000020304050607080931
:100DF0000A0B0C0D0E0F1010010203040506070864
:100E0000090A0B0C0D0E0F100010024000127A00A0
:100E1000006CDC02FEB5040070D02078F94EFA4D6B
:100E2000C00748D068680007800F01281FD0686895
:100E30000007800F022804D16868C003800F0228D1
:100E400015D06168012919D001208004002901D042
:100E5000052917D02968B143296029688143296091
:100E6000606800281BD0FFF7F1FC074613E02868F4
:100E7000800320D560680028CED01CE0286830436D
:100E80002860EDE7296801432960F7E7FFF7DEFCFA
:100E9000C01B642870D828688003F7D50BE0FFF7E3
:100EA000D5FC074604E0FFF7D1FCC01B6428F1D84D
:100EB00028688003F7D4207880073FD5686800074A
:100EC000800F14D068680007800F022804D168687A
:100ED000C003800F01280AD0E068002828681ED0CF
:100EE000012108432860FFF7B1FC07460CE02868A1
:100EF00080070CD5E068012800D108E080E1FFF709
:100F0000A5FCC01B0228C5D828688007F7D528682B
:100F1000F82188432169C900084328600EE0400891
:100F200040002860FFF792FC074604E0FFF78EFCC4
:100F3000C01B0228AED828688007F7D420780007A5
:100F400023D5E0690028686A0FD001210843686250
:100F5000FFF77CFC074604E0FFF778FCC01B022883
:100F600098D8686A8007F7D50FE0400840006862AB
:100F7000FFF76CFC074605E0C3E0FFF767FCC01B0A
:100F8000022887D8686A8007F7D4207804274007AA
:100F9000002861DA00200190E869C00008D4E969FE
:100FA000B8060143E961E96901400120009101901F
:100FB00096480168C90511D4016882151143016082
:100FC000FFF744FC009005E0FFF740FC0099401A51
:100FD000642898D88D480068C005F5D5A068012818
:100FE0000AD0002801D0052811D0286A4008400006
:100FF0002862286AB84302E0286A0121084328626F
:10100000A068002812D0FFF721FC00900AE0286AAF
:1010100038432862F0E7FFF719FC0099411A7C4831
:1010200081426ED8286A8007F5D50DE0FFF70EFCE7
:10103000009006E0FFF70AFC0099411A74488142CB
:101040005FD8286A8007F5D40198002804D0E969A0
:10105000012000078143E9612078C00635D5606929
:1010600001280CD0401D686B24D038436863686B3E
:10107000400840006863FFF7E9FB074622E0686B21
:1010800038436863686B012108436863FFF7DEFB40
:10109000074604E0FFF7DAFBC01B022831D8686B73
:1010A0008007F7D5686BF8218843A169C900084318
:1010B00068630AE0B8436863F4E7FFF7C7FBC01B47
:1010C00002281ED8686B8007F7D42078800637D5B1
:1010D00068680007800F032814D068680007800F35
:1010E000022804D16868C003800F03280AD0206A50
:1010F0000028686B16D030436863FFF7A7FB0646ED
:101100000CE062E0686BC0031AD5206A012877D131
:1011100016E0FFF79BFB801B022856D8686BC003C4
:10112000F7D50DE0B0436863FFF790FB064604E097
:10113000FFF78CFB801B022847D8686BC003F7D4ED
:10114000606A002866D069680907890F022942D0C1
:10115000012636060228286805D0B0432860FFF72C
:1011600075FB044633E0B0432860FFF76FFB07468A
:1011700004E0FFF76BFBC01B022826D8286880011B
:10118000F7D4E86A216B000900010843E862A16A0C
:10119000E06A084369687B22D20391430843686090
:1011A000286830432860FFF751FB044604E0FFF74E
:1011B0004DFB001B022808D828688001F7D529E0DC
:1011C000FFF744FB001B022801D90320FEBD28685D
:1011D0008001F5D41EE00128F8D06868E96A03228E
:1011E000D203A36A02409A420AD10907226B090F6F
:1011F000914205D10F2189040840E16A884209D053
:101200000120FEBD000001000010024000700040FF
:10121000881300000020F4E7094910B5401E8842F9
:1012200001D9012010BD074C60610321081F00F0A7
:10123000DFFC0020A06107202061002010BD00001D
:10124000FFFFFF0000E000E070477047F0B5024686
:101250002032137F012B21D00125157702235377EC
:1012600006687468B3687027BC430F6827437760CB
:1012700000680B4CA04208D0AC07A04205D0094C36
:10128000A04202D0084CA04204D180244968A34364
:1012900019438160557700201077F0BD0220F0BD22
:1012A000002C0140000400400040014070B50400E3
:1012B00005D025462035687F002802D006E00120B1
:1012C00070BD00202877204600F00AF802206877D9
:1012D000211D206800F02AFC01206877002070BDE5
:1012E00008B50068094988420FD10948C269202120
:1012F0000A43C261C06900220840009011461220D2
:10130000FFF720FC1220FFF711FC08BD001400407D
:1013100000100240704770B504460068016900255E
:10132000C9438907002915DBC168C943890711D45E
:10133000E91E01610120207720688069800720462E
:1013400002D0FFF7E7FF04E000F096F8204600F037
:1013500094F8257720680169C943490717D4C16803
:10136000C943490713D40421C943016102202077EE
:10137000206880698005800F204602D0FFF7CAFFF1
:1013800004E000F079F8204600F077F8257720682F
:101390000169C943090716D4C168C943090712D4B2
:1013A0000821C9430161042020772068C0698007B3
:1013B000204602D0FFF7AEFF04E000F05DF82046C3
:1013C00000F05BF8257720680169C943C90617D486
:1013D000C168C943C90613D41021C943016108205B
:1013E00020772068C0698005800F204602D0FFF773
:1013F00091FF04E000F040F8204600F03EF8257729
:1014000020680169C943C90708D1C168C943C90730
:1014100004D1891E0161204600F030F8206801697E
:10142000C943090609D4C168C943090605D4802106
:10143000C94301612046FFF707FF20680169C943DE
:10144000490609D4C168C943490605D44021C943A6
:101450000161204600F013F820680169C94389063C
:1014600009D4C168C943890605D42021C943016153
:101470002046FFF7EAFE70BD70477047704770471F
:10148000FEE7000010B50648006880694005400F7F
:10149000034802D0FFF72BFA10BDFFF757FA10BD33
:1014A0005000002010B5406A0021826B5163C26B6E
:1014B0005163014640314A78602A02D0FFF74EFA64
:1014C00010BD20224A70FFF710FA10BDF0B5034698
:1014D0000022CE0740332824B025002E05D05E78A8
:1014E00042222746B74300D0F2228E0705D5442674
:1014F0005B7832439C4300D02A434B0701D5B82385
:101500001A4311238B4301D190231A4312238B4397
:1015100001D160210A430068016891430160F0BD78
:1015200001688A69D243920701D400228A62006866
:101530008169C943C90703D08169012211438161CF
:101540007047F8B505460446403568782821814340
:10155000206804D00821C16100202870F8BD81698D
:10156000C903CF0F8169FE230E0C81681E408A05D6
:10157000C168920D19408C46E168022916D10621F6
:10158000D3090E400B409E420FD1A16C491CA164AF
:10159000A16C0229E2D10021A1640823C361297052
:1015A00039462046FFF7A2F9F8BD664604212046D9
:1015B000FFF78CFF002028703246F1E7F8B50546AA
:1015C0000446403568780026AE702D4AE262668592
:1015D000626C0A4362642027282823D0292821D05E
:1015E0002A281FD007212046FFF770FF687860285F
:1015F00000D06F7026636663206801684A04214941
:10160000026819D501239B039A430260A06B00284E
:1016100026D041632E70A06BFFF742F800281FD040
:10162000A06B1BE003212046FFF750FF28206870C5
:10163000266315486063DFE7120412D502680123B0
:10164000DB039A430260E06B002809D041632E70EF
:10165000E06BFFF725F8002802D0E06B416B88476C
:10166000F8BD6878602804D02E702046FFF776F920
:10167000F8BD6F702E702046FFF737F9F8BD0000F7
:101680000000FFFFA51400083118000870B50446DB
:101690001648E06200252563202220464030064699
:1016A00042708570C8436563400712D42068406A61
:1016B000616A0870606A401C6062208D002808D052
:1016C000401E2085608D401E6085606C04210843AB
:1016D000606407212046FFF7F9FE21681020C861E9
:1016E00035702046FFF796F970BD00000000FFFF3F
:1016F000F8B50446006805680F462021C16107213E
:101700002046FFF7E3FE206841680122D20311431F
:10171000416020684168314A114041602046FFF72E
:10172000FFFEE843410401D4A06B02E0000405D4AD
:10173000E06B002802D0006840686085F8434007ED
:10174000042100280FDB20688F43406A626A107012
:10175000606A401C6062208D002804D0401E2085F5
:10176000608D401E6085608D002802D0606C08434B
:1017700060640026266325464035AE706663606C63
:1017800000280BD0616C2046FFF718FF68782828E6
:1017900003D139462046FFF779FFF8BDE06A104FC4
:1017A000B8420AD0204600F01DF8E7622020687099
:1017B0002E702046FFF72EF9F8BD6878222806D053
:1017C000202068702E702046FFF761F9F8BD2020B8
:1017D00068702E702046FFF759F9F8BD00E800FE4A
:1017E0000000FFFF70B50026044640340546A67091
:1017F0006178282029290ED061782A290AD16070C1
:101800002220286302212846FFF760FE2670284622
:10181000FFF73CF970BD6070212028630121284644
:10182000FFF754FE26702846FFF731F970BD00001F
:10183000FEB5C56A04460646403601913078012857
:1018400028D0012030700198D743C0430090800613
:10185000002805DBB80603D420460199FFF748FFAE
:1018600000983D493D4AC00630D4F8062ED4638D19
:101870001020002B10D02168C861606C042108433F
:101880006064002D01D0954262D1616C2046FFF763
:1018900095FE5DE00220FEBD7278282A08D1012263
:1018A0005206954204D120460199FFF7EFFE4FE022
:1018B0007278292A07D18D4205D02168C861204657
:1018C000FFF72EFE41E02168C86141E00098400723
:1018D00017D4780715D4608D00280CD02068406A92
:1018E000626A1070606A401C6062208D401E208514
:1018F000608D401E6085608D002829D18D4224D1E5
:1019000026E00098000706D4380704D42046019941
:10191000FFF717FE1CE00098800719D4B80717D40A
:10192000608D00280DD0606A216800788862606A46
:10193000401C6062608D401E6085208D401E2085A9
:1019400006E0954201D0002D02D12046FFF74AFF64
:1019500000203070FEBD00000000FFFF000000010D
:101960003EB500241549164800940194029412C013
:10197000046004224460C2600121816004744474E4
:101980008474C474FF22C2328461426102461832F8
:10199000147101620838FEF791FD012000030190E7
:1019A00000040290009469460548FEF787FC112068
:1019B000009069460248FEF781FC3EBD00240140CC
:1019C00010000020F0B587B014216846FEF702FC35
:1019D000244842690121C9040A43426142690A401C
:1019E0000592426989100A43426142690A400592A0
:1019F000426949000A43426140691B4F0840059013
:101A0000002209213846FEF71BFF11267601092026
:101A100000223146C006FEF713FF00220F211348B3
:101A2000FEF70EFF0920002401250090029469466C
:101A3000019503943846FEF757FE09200294694643
:101A4000C006009601950394FEF74EFE0F2000900D
:101A500002946946019503940448FEF745FE07B0D9
:101A6000F0BD0000001002400008004800040048DB
:101A700010B50D480B4901600C494160002181609F
:101A80000161416181610122C161C2600162FEF7B1
:101A900067FF00210448FEF7DFFE00210248FEF741
:101AA00000FF10BD00540040500000200E0900202F
:101AB00070477047704710B5FEF7EAFF10BD10B5CC
:101AC00098B034216846FEF785FB00240D940E94EF
:101AD0000F941C2111A81094FEF77CFB322000907B
:101AE000012003900890059010200490069009941E
:101AF0006846FFF78FF907200D9003200E900F9492
:101B0000012110940DA8FFF7B1F820201190159431
:101B100011A8FFF71BF818B010BD704710B50248A8
:101B2000FFF7F9FB10BD00009C000020F0B5026833
:101B30001D4B0124A4071D4D984203D0A04201D0A3
:101B4000A84203D17026B2434E683243184E194F53
:101B500098420DD0A0420BD0A84209D0164CA0420A
:101B600006D0B04204D0B84202D0144CA04204D1F6
:101B700003242402A243CC6822438024A2434C695C
:101B8000224302608A68C2620A688262984206D072
:101B9000B04204D0B84202D0084A904201D109694B
:101BA000016301214161F0BD002C014000040040AF
:101BB0000040014000440140002000400048014036
:101BC000F8B5040C8BB2264682B25E430D0C10466B
:101BD000370C5843360480190021794116466E436C
:101BE000370C36048019794126466E438919F8BDB1
:101BF0008307FF22DB0E9A408907090E99400028CF
:101C000008DB830809489B001B18186890430843A9
:101C1000186070470007000F0838830804489B00CD
:101C20001B18D86990430843D861704700E400E06E
:101C300000ED00E002E008C8121F08C1002AFAD136
:101C400070477047002001E001C1121F002AFBD13C
:101C5000704700001CB5FEF723FFFFF730FFFFF7CA
:101C6000B1FEFFF77DFEFFF703FF00241849194876
:101C70000094019412C0046017490461416008385F
:101C8000FFF714FB0094694612480194FFF7DEFA4F
:101C90001248816849084900816081684205114302
:101CA000816081680029FCDB0168CA070121002AE4
:101CB00002D002680A43026082680A438260426876
:101CC0000A4342604168042211434160FEE700007C
:101CD000001400409C00002080BB00000024014054
:101CE00000000000000000000102030406070809CC
:101CF000101D00080000002010000000341C000827
:101D0000201D000810000020D0040000441C000822
:101D100001000000040000000000000000127A0032
:04000005080000C12E
:00000001FF
