:020000040800F2
:10000000D0050020D500000849320008FF24000870
:1000100000000000000000000000000000000000E0
:100020000000000000000000000000004D32000849
:1000300000000000000000004B3200084F320008B2
:10004000E7000008E7000008E7000008E7000008F4
:10005000E7000008E7000008E7000008E7000008E4
:10006000E7000008E7000008E7000008E7000008D4
:1000700081070008E7000008E7000008E700000823
:10008000E7000008E7000008D5320008E700000894
:10009000E7000008E7000008E70000080525000861
:1000A000E7000008E7000008E7000008E700000894
:1000B0007D380008E7000008E7000008E7000008B6
:1000C0000348854600F04AFB004800475D3A0008B7
:1000D000D00500200448804704480047FEE7FEE7BB
:1000E000FEE7FEE7FEE7FEE7D3320008C1000008A6
:1000F00030B50B46014600202022012409E00D46C0
:10010000D5409D4205D31D469540491B2546954047
:1001100040191546521E002DF1DC30BD70B500248B
:100120002546002801DA01244042002901DA012590
:100130004942FFF7DDFFAC4200D04042002C00D026
:10014000494270BDF0B51FB40646002082B0054696
:100150004024019100901BE0019922460F46304651
:1001600000F020F8049A059B801A994110D310469C
:100170001946224600F02EFA361A8F410197224680
:1001800001200021009F00F025FA38184D41009011
:100190002046641E0028DFDC019B00982946324679
:1001A00007B0F0BD10B5202A04DB0846203AD04045
:1001B000002110BD0B46D340D0402024A21A91400C
:1001C0000843194610BDD2B201E00270401C491E1E
:1001D000FBD270470022F6E710B513460A460446E4
:1001E0001946FFF7F0FF204610BD0000F0B50746A6
:1001F0000846584087B0C00F049048000E4659008A
:1002000040084908BC1A884105D2384631461E4686
:1002100017460B4602465800400810434CD0300D9C
:10022000039040055900400D490D0590401A029079
:10023000402872DA18030121000B090508430190D8
:1002400004980092002805D001995242002088416C
:1002500000920190029840210A1A0199009800F03A
:10026000B9F905460C466B4607CB00F0C3F9C01937
:100270007141039A0E0D0023D71756401A467A4053
:10028000164344D0049A002A2DD0029A012A039AD8
:1002900015DC1205C01A914101263605001C71417A
:1002A000D20F059ED2070093019202962A4623465A
:1002B00000F001FA07B0F0BD38463146FAE71605FE
:1002C000224A0F46B218C01AB74101210905001C85
:1002D0004F4100187F41114618187941E20F104331
:1002E0006D19644113E0E2076D0815436408C20705
:1002F0001443039A01261205C01A91413605001CC9
:100300007141CE07400830434908C01851412A4680
:10031000234600F0C3F9CDE7FFE70498012240002F
:10032000C117121A00238B4104983146C417381A9A
:10033000A141EEE730B40124E407634030BC55E747
:1003400030B40124E407614030BC4FE70000E0FF17
:10035000F0B51FB488B00B9909980024484009995A
:10036000C00F490049080991C0070B990090490046
:1003700049080B9109990898A64608431CD00B9987
:100380000A98084318D0099801244000420D4800FB
:10039000410D099824050003000B204309900B9898
:1003A0000003000B20430B9050181C4940180022FA
:1003B00001901446104605E0002001460DB0F0BD46
:1003C000032801DA034600E003239C46C11A0AAE63
:1003D0000AE05F0008ADED5B4F00F75B7D4300274F
:1003E000AA187C41491C5B1E6145F2DD410004AB4B
:1003F0005A522104120C0A43240C401C0828DFDB4B
:10040000019802900099704601910090059B049A12
:100410000799069800F04FF9D0E700000DFCFFFFA8
:10042000F0B50C465C4085B0E40FE40703944C0043
:100430000026640859009446490802460296224361
:1004400021D062460A431ED06200570D4A000E03B7
:100450002303550D012402462C492405781B1B0B50
:10046000360B401823432643614600901C46501A21
:10047000B44103D30098401C009002E09218009809
:100480005B41002803DA0020014605B0F0BD0020E2
:10049000012109050746864611E064461D46141BE6
:1004A000B54106D36546521BB341744607430C431E
:1004B000A646CD0740084908284392185B410546E7
:1004C0000D43EAD11046184313D0604619465040F8
:1004D0007140084306D06046101AB34106D201228B
:1004E000002306E000220123DB0702E00122D243C1
:1004F0005310009874460105381C6141029C039D0D
:100500000019694100F0CAF8BFE70000FD030000D0
:100510000EB505490291002100910A460B46019152
:1005200000F0C9F803B000BD33040000C20F410061
:1005300040020123400ADB05D207090EC0187F29BB
:1005400001DA00207047962903DC9623591AC84027
:1005500001E096398840002AF4D0404270470000FC
:100560004A0009030123090B1B051943094B10B568
:10057000520D9A4201DA002010BD064B34339A42E4
:1005800003DC9A1AFFF70EFE10BD0349511888408C
:1005900010BD0000FF030000CDFBFFFFCB0FDB070A
:1005A000490010B5490802460A4307D00A0D07243E
:1005B0000903E401090B121B002A01DC002010BD15
:1005C000C900440F0C43C100E018D205801800F0A8
:1005D00024F810BD10B5202A04DB0146203A9140D2
:1005E000002010BD914020239C1A0346E34019438C
:1005F000904010BD10B5202A06DBCB170846203AE4
:100600001041C1170B4306E00B461341D040202494
:10061000A21A91400843194610BD002904DA401C73
:10062000490001D140084000704770B40024050C17
:1006300005D11024000402D1002921D01124050E77
:1006400001D100020834050F01D10001241D850FDE
:1006500001D18000A41C002801DB4000641C00299B
:1006600008D020252E1B0D46F540A14000D00121C9
:100670002943084301061B1B000ADB1D02D500208D
:1006800070BC7047DB05181880180029F8DA401C88
:100690004900F5D170BC40084000704710B5002BF0
:1006A00008DA0024401C614192185B411A4301D1D1
:1006B0004008400010BDF0B51FB482B005460C00E4
:1006C00003D0084603F000F902E003F0FDF8203003
:1006D0000246009021462846FFF77CFF049B059ABE
:1006E00004460F4618431143084314D018461043DC
:1006F0001BD0009840210A1A18460599FFF752FDB1
:1007000005460E46009A05990498FFF763FF0843D3
:1007100005D0012004E02046394607B0F0BD002096
:10072000C11705430E432C43374300990E986305C8
:10073000401A7905E40A00220C43FD0A0A3002D56A
:1007400000200146E9E70105101969410C9C0D9D47
:1007500000196941FFF7A2FFDFE70000064C012501
:10076000064E05E0E36807CC2B430C3C9847103459
:10077000B442F7D3FFF7A8FC703C0008903C000897
:10078000F0B589B04548408B089045480068C007DF
:10079000C00F00280BD0424800680121084340499F
:1007A000086008468068042108433D4988603C4849
:1007B00000680421084004286BD13948806AC007CA
:1007C000C00F002860D03648403004680898FFF712
:1007D0009FFE344A344B01910090FFF7B9FD05911B
:1007E0000490324909680A03511A0A225143084603
:1007F000FFF78EFE03910290059B049AFFF710FE0F
:1008000007910690FFF7ACFE06462046FFF780FEF4
:10081000274A284B03910290FFF79AFD264A274B5F
:1008200005910490FFF786FD07910690FFF7B6FE4D
:1008300007463846FFF77AFE04460A216143084618
:100840003146FFF755FC1E4908600A2161430846FE
:100850003146FFF74DFC0D460A21694308463146F3
:10086000FFF746FC164948600A21694308463146AD
:10087000FFF73EFC0D460A21694308463146FFF763
:1008800037FC0F49886004E005484030006807499C
:1008900008600C4800F0F2F809B0F0BDA0F7FF1FA7
:1008A000002401406666666666660A4030000020E5
:1008B000645DDC460378EF3F94F6065F984C653F35
:1008C000B40100206800002070470000F8B504461D
:1008D0000D4600260020009001210907E06A8842A9
:1008E00015D0E06A012812D0E06A02280FD0E06A31
:1008F00003280CD0E06A042809D0E06A052806D055
:10090000E06A062803D0E06A072800D000BF00BFD5
:100910003420005D012801D10220F8BD01213420DE
:10092000015500BF20688068042108408008002825
:100930007ED14D496868884264D02068806A2A78F0
:100940000121914008432168886201210907E06A7A
:10095000884229D0E06A012826D0E06A022823D004
:10096000E06A032820D0E06A04281DD0E06A052848
:100970001AD0E06A062817D0E06A072814D0A868C1
:10098000216849694907490F88420DD020684069AC
:10099000C008C0002168486120684069297A490779
:1009A000490F0843216848612868102805D0286845
:1009B000112802D0286812284FD12C488068296855
:1009C000102901D1C90407E02968112902D10121A8
:1009D000890501E001210906084324498860286847
:1009E00010283AD1224923480068FFF781FB0A21E9
:1009F0004843009002E00098401E009000980028B4
:100A0000F9D12AE02068816A2A7801209040814348
:100A1000206881622868102805D02868112802D033
:100A20002868122819D1114880682968102900E027
:100A30000EE001D1C90407E02968112902D1012182
:100A4000890501E00121090688430849886004E01E
:100A5000A06B20210843A063012600BF00213420A1
:100A6000015500BF304658E7011000000027014043
:100A700040420F00640000207047704710B50446E4
:100A80002068006804210840042804D120684068D8
:100A9000084004280AD02068006808210840082877
:100AA00040D120684068084008283BD1A06B102145
:100AB0000840002803D1A06B49010843A0632068C7
:100AC000C068032189020840002825D1A07E0028A3
:100AD00022D1206800680821084008281CD120681D
:100AE000806804210840800800280DD120684068F3
:100AF0000C21884321684860A06BFF2101318843A5
:100B000001210843A06307E0A06B20210843A063F4
:100B1000E06B01210843E0632046FFF7ADFF0C20A6
:100B200021680860206800688021084080280ED174
:100B3000206840680840802809D1A06B490208431A
:100B4000A063204600F008F9802021680860206832
:100B500000681021084010281AD120684068084019
:100B6000102815D1A06A012805D02068C068C007E8
:100B7000C00F002809D0E06B02210843E063102079
:100B8000216808602046FFF778FF10202168086080
:100B900010BD000070B5044600260025002C01D1D0
:100BA000012070BDA06B002806D1E0630021342035
:100BB0000155204600F0D2F8A06B10210840002813
:100BC0007ED1002EFCD12068806804210840800876
:100BD0000028F5D1A06B8901884302210843A06356
:100BE000206880688007800F01280DD12068006888
:100BF000C007C00F002805D12068C06889030840DD
:100C0000884201D1012000E0002000280FD1206897
:100C1000C06818218843A16808432168C86020681B
:100C200000698000800861680843216808612068C5
:100C3000C068474908402168C860207E8003617E03
:100C4000C9030843A17E49030843A16A012902D0D0
:100C50000121090300E000210843E16808432169FC
:100C6000022901D1042100E0002108432421095D6B
:100C7000490008430543E07E01280ED1A07E0028EC
:100C800003D101200004054307E0A06B20210843A5
:100C9000A063E06B01210843E063FF21C231E069FA
:100CA000884203D0216AE069084305432068C06890
:100CB00028432168C86001210907E06A884200E0F2
:100CC0003EE014D0E06A012811D0E06A02280ED07C
:100CD000E06A03280BD0E06A042808D0E06A0528FF
:100CE00005D0E06A062802D0E06A07280DD1206806
:100CF0004069C008C0002168486120684069A18D32
:100D00004907490F0843216848612068C0681149B4
:100D10000840A84208D10020E063A06B022188436C
:100D200001210843A06310E0A06B02218843102139
:100D30000843A063E06B01210843E063012604E05F
:100D4000A06B10210843A0630126304629E700006C
:100D50001902FEFFE7FF3F837047000010B586B021
:100D60000446142101A8FFF735FA1B492068884280
:100D70002FD100BF19488069491508431749886178
:100D80000846806949150840009000BF00BF00BFB9
:100D90001248406909020843104948610846406901
:100DA000012149040840009000BF00BF01200190CC
:100DB000032002900020039001A90920C00600F042
:100DC0003BF8002211460C2000F032FB0C2000F012
:100DD00021FB06B010BD00000024014000100240BD
:100DE00070B5044600252120005D022803D00420B0
:100DF000A06301251EE0206800680E218843216859
:100E000008602068006840084000216808600120F0
:100E1000216C8840E16B486001212120015500BF11
:100E200000212020015500BF606B002802D0204621
:100E3000616B8847284670BD78B503460022E2E022
:100E4000012696400C683440002C7DD04D68022D60
:100E500002D04D68122D15D1D508AE001D462035A3
:100E6000A8595507EE0E0F25B5400646AE4330464D
:100E70005607F60E0D69B5402843D508AD001E464D
:100E800020367051186856000325B5400646AE431B
:100E900030460D79AD07AD0F5600B54028431860B8
:100EA0004D68012D08D04D68022D05D04D68112DDB
:100EB00002D04D68122D18D1986856000325B54010
:100EC0000646AE4330465600CD68B540284398608C
:100ED0005868012595400646AE43304610264D68B9
:100EE00035402D09954028435860D86856000325A1
:100EF000B5400646AE43304656008D68B54028439F
:100F0000D860012636074D683540B5427AD100BF1A
:100F1000404DAD69012635433E4EB5613546AD695C
:100F2000ED07ED0F009500BF00BF3B4D9608B600E2
:100F3000A85995072E0F0F25B5400646AE433046FB
:100F40000925ED06AB4200E05CE001D1002514E08C
:100F5000324DAB4201D101250FE0314DAB4201D101
:100F600002250AE02F4DAB4201D1032505E02E4DAD
:100F7000AB4201D1042500E005259607360FB540A8
:100F80002843254D9608B600A851284D28680546E7
:100F9000A5432846012636044D683540B54202D1A6
:100FA000054625432846214D286068680546A54327
:100FB0002846012676044D683540B54202D10546E3
:100FC00025432846194D6860A8680546A54328466C
:100FD000012636054D683540B54202D10546254308
:100FE0002846124DA860E8680546A5432846012614
:100FF00076054D683540B54202D105462543284661
:101000000A4DE860521C0D68D540002D00D017E74E
:1010100078BD0000001002400800014000040048B4
:1010200000080048000C004800100048000401407F
:10103000002A01D0816100E08162704701480068A8
:10104000704700005800002002464120805C2028A4
:101050002FD100BF4020805C012801D102207047C1
:1010600001234020835400BF24234120835410686F
:101070000068400840001368186010680068012389
:101080001B039843136818601068006808431368CE
:101090001860106800680123184313681860202343
:1010A0004120835400BF00234020835400BF002010
:1010B000D5E70220D3E710B502460B464120805CFD
:1010C00020282ED100BF4020805C012801D10220C1
:1010D00010BD01244020845400BF242441208454A6
:1010E00010680068400840001468206010680168BB
:1010F0000F2424020846A043014618020143106849
:1011000001601068006801242043146820602024D6
:101110004120845400BF00244020845400BF00209C
:10112000D6E70220D4E770477047F8B50446206838
:10113000856920680668FF2001302840000A0028E1
:101140000BD080203040C009002806D0606C0121FF
:101150000843606408022168C861012080022840B9
:10116000800A00280BD080203040C009002806D01B
:10117000606C082108436064C8012168C8610120CF
:1011800040022840400A00280BD080203040C0098F
:10119000002806D0606C02210843606408022168C0
:1011A000C861676C0B203840002803D039462046C0
:1011B00001F0C0FCF8BD70B5044620688569206860
:1011C0000668606B002804D0324629462046636BCF
:1011D000984770BD7047000010B50446002C01D13F
:1011E000012010BD4120005D002805D100214020D4
:1011F0000155204600F05CF824214120015520686B
:10120000006840084000216808600F2109066068F6
:10121000884321680861206880680121C9038843E8
:1012200021688860E068012806D10121C903A0680F
:1012300008432168886005E021218902A0680843ED
:1012400021688860E068022802D180022168486035
:101250002068406814490843216848602068C068D5
:101260000121C90388432168C86061692069084376
:10127000A169090208432168C860216AE06908433E
:10128000216808602068006801210843216808601F
:1012900000206064202141200155002020630021AE
:1012A0004220015500209CE70080000270470000AA
:1012B00010B586B00446142101A8FEF78BFF1E4925
:1012C0002068884236D100BF1C484069012189044A
:1012D00008431A49486108464069012189040840C9
:1012E000009000BF00BF0320000201901220029076
:1012F00001200390032004900120059001A91048CB
:10130000FFF79AFD00BF0D48C06901214905084358
:101310000A49C8610846C069012149050840009092
:1013200000BF00BF00221146172000F081F81720EF
:1013300000F070F806B010BD0054004000100240EC
:101340000004004870477047034800680349097863
:1013500040180149086070475800002060000020D4
:1013600010B50648006810210843044908600020B1
:1013700000F006F800F02EF8002010BD002002401A
:1013800070B50446104801787D20C000FEF7B0FE1D
:10139000064631460D480068FEF7AAFE054600F0F5
:1013A0009FFD002801D0012070BD042C07D200222F
:1013B0002146501E00F03CF80548046001E0012081
:1013C000F2E70020F0E70000600000206400002049
:1013D0005C00002008B500BF0D488069012108436A
:1013E0000B49886108468069C007C00F009000BFA4
:1013F00000BF00BF0846C069090408430449C8612A
:101400000846C06909040840009000BF00BF08BD3D
:10141000001002400146002905DBCB06DB0E01224D
:101420009A40024B1A6000BF7047000000E100E0E4
:1014300070B504460D4616462946204602F082FA4B
:1014400070BD0000F8B504460026002501210904FE
:101450002068084088427AD100276048C0690903A3
:10146000084000280DD100BF5C48C06908435B49B3
:10147000C8610846C06909040840009000BF00BF69
:10148000012757480068FF2101310840002816D184
:1014900053480068084352490860FFF7CFFD0646ED
:1014A00006E0FFF7CBFD801B642801D90320F8BDBF
:1014B0004B480068FF21013108400028F1D047481F
:1014C000006A0321090208400546002D2DD06068FE
:1014D0000840A84229D04148006A884305463F4851
:1014E000006A0121090408433C4908620846006A71
:1014F0000121090488433949086208460562E80762
:10150000C00F002811D0FFF799FD064607E0FFF74E
:1015100095FD801B3349884201D90320C7E72F4836
:10152000006A022108400028F1D02C48006A0321FB
:10153000090288436168084328490862012F05D1E0
:101540000846C069090488432449C86100BF20785F
:10155000C007C00F002807D02048006B800880001B
:10156000A16808431D490863022120680840022839
:1015700008D11A48006B032109048843E168084335
:1015800016490863202120680840202807D1134805
:10159000006B102188432169084310490863012129
:1015A000490420680840884207D10C48006B80211C
:1015B0008843A16908430949086301218902206819
:1015C0000840884207D10548006B40218843616983
:1015D000084302490863002069E700000010024048
:1015E000007000408813000070B504460D46002CC2
:1015F00001D1012070BD58480068C007C00FA84243
:101600000ED25548006840084000284352490860FF
:1016100008460068C007C00FA84201D00120E9E7D2
:10162000022120680840022814D1042120680840C3
:10163000042807D149484068072109028843401817
:101640004649486045484068F0218843A1680843FE
:10165000424948602078C007C00F002847D0606822
:10166000012808D13D4800680121490408400028AC
:1016700021D10120BEE76068022808D13748006800
:10168000012149060840002815D10120B2E7606811
:10169000032808D13148406B012109040840002883
:1016A00009D10120A6E72D48006802210840002842
:1016B00001D101209EE729484068800880006168C8
:1016C000084326494860FFF7B9FC064607E0FFF7E4
:1016D000B5FC801B2249884201D903208AE71F48B4
:1016E00040680C210840616889008842EFD11A489F
:1016F0000068C007C00FA8420ED91748006840080C
:10170000400028431449086008460068C007C00F1D
:10171000A84201D001206DE7042120680840042878
:1017200008D10E484068072109028843E168084350
:101730000A49486000F032F808494968F02211402F
:101740000909084A515CC840074908600020FFF7B2
:1017500017FE00204EE7000000200240001002406B
:1017600088130000583C000864000020014800680D
:10177000704700006400002000B5FFF7F7FF05493F
:101780004968072212021140090A034A515CC84005
:1017900000BD000000100240683C0008F0B589B0B0
:1017A00035A001460EC9C06805AC0EC4089036A02D
:1017B00001460EC9C06801AC0EC404900025002487
:1017C0000027002600200090334845680C20284060
:1017D000002849D0042804D0082805D00C2842D17C
:1017E0003EE02E48009042E00F2080042840800C0C
:1017F00005A90E5C2848C06A0007000F01A90C5C0F
:101800000320C00328400121090488420AD122464E
:10181000002322481946FEF795FC314602F06BF88A
:1018200007461BE00320C00328400321C903884268
:101830000AD1224600231A481946FEF783FC314696
:1018400002F059F8074609E02246002313481946DA
:10185000FEF778FC314602F04EF80746009706E0A6
:101860000F48009003E000BF0C48009000BF00BF8D
:10187000009809B0F0BD000002030405060708093E
:101880000A0B0C0D0E0F10100102030405060708C9
:10189000090A0B0C0D0E0F100010024000127A0006
:1018A000006CDC02FEB50446002C01D10120FEBD17
:1018B0002078C007C00F002872D0FC4840680C2177
:1018C000084004280CD0F94840680840082813D183
:1018D000F6484068490308400121090488420BD1B9
:1018E000F248006801214904084000286BD0606874
:1018F000002868D10120DAE700BF6068012807D11D
:10190000EA480068012109040843E849086031E019
:10191000606800280ED1E548006801210904884369
:10192000E249086008460068012189048843DF49CC
:1019300008601FE0606805280ED1DC4800680121BE
:1019400089040843D9490860084600680121090450
:101950000843D64908600DE0D44800680121090415
:101960008843D249086008460068012189048843F9
:10197000CE49086000BF6068002812D0FFF75EFB08
:10198000054606E0FFF75AFB401B642801D90320F7
:101990008DE7C64800680121490408400028F1D0BD
:1019A00011E0FFF74BFB054606E0FFF747FB401B46
:1019B000642801D903207AE7BC4800680121490462
:1019C00008400028F1D1022120680840022862D195
:1019D000B64840680C21084000280CD0B348406845
:1019E000084008281CD1B14840684903084001213B
:1019F000C903884214D1AD4800680221084000287C
:101A000004D0E068012801D0012050E7A748006811
:101A1000F82188432169C9000843A44908603AE0D5
:101A2000E068002820D0A1480068012108439F49B0
:101A30000860FFF703FB054606E0FFF7FFFA401BCF
:101A4000022801D9032032E79848006802210840A3
:101A50000028F2D095480068F82188432169C90020
:101A600008439249086016E090480068400840002A
:101A70008E490860FFF7E2FA054606E0FFF7DEFA56
:101A8000401B022801D9032011E788480068022181
:101A900008400028F2D1082120680840082831D1E8
:101AA000E069002817D08148406A012108437F4936
:101AB0004862FFF7C3FA054606E0FFF7BFFA401B8E
:101AC000022801D90320F2E67848406A0221084042
:101AD0000028F2D016E07548406A4008400073497B
:101AE0004862FFF7ABFA054606E0FFF7A7FA401B8E
:101AF000022801D90320DAE66C48406A0221084036
:101B00000028F2D1042120680840042872D1002066
:101B100001906648C0698906084000280ED100BFC0
:101B20006248C06908436149C8610846C069090440
:101B30000840009000BF00BF012001905C48006891
:101B4000FF2101310840002816D159480068084398
:101B500057490860FFF772FA054606E0FFF76EFA8C
:101B6000401B642801D90320A1E651480068FF21E9
:101B7000013108400028F1D000BFA068012806D13B
:101B80004A48006A01210843484908622AE0A068DF
:101B900000280BD14548006A4108490043480162CA
:101BA000006A04218843414908621BE0A0680528B7
:101BB0000CD13E48006A042108433C4908620846AB
:101BC000006A01210843394908620BE03748006A7E
:101BD00040084000354908620846006A04218843ED
:101BE0003249086200BFA068002813D0FFF726FA28
:101BF000054608E02BE0FFF721FA401B2D498842FB
:101C000001D9032053E62948006A02210840002830
:101C1000F1D011E0FFF712FA054607E0FFF70EFAE0
:101C2000411B2448814201D9032040E61F48006A35
:101C3000022108400028F1D10198012806D11B4853
:101C4000C0690121090788431849C86100BF1021F4
:101C50002068084010285FD1606901282CD1134802
:101C6000406B04210843114948630846406B012139
:101C700008430E494863FFF7E1F9054606E0FFF720
:101C8000DDF9401B022801D9032010E60748406B0C
:101C9000022108400028F2D00448406BF821884314
:101CA000A169C90008430149486335E000100240BA
:101CB00000700040881300006069401D00280FD1AB
:101CC0008648406B04218843844948630846406B3A
:101CD000F8218843A169C9000843804948631BE093
:101CE0007E48406B042108437C4948630846406BAA
:101CF000400840004863FFF7A1F9054606E0FFF7FA
:101D00009DF9401B022801D90320D0E57348406BA0
:101D1000022108400028F2D1202120680840202814
:101D200052D16E4840680C2108400C280AD06B48FC
:101D300040680840082811D16848406849030840B5
:101D400088420BD16548406B0121090408400028F6
:101D50003AD0206A012837D00120A8E5206A00285F
:101D600019D05E48406B0121090408435B49486370
:101D7000FFF764F9054606E0FFF760F9401B02280B
:101D800001D9032093E55548406B0121090408401F
:101D90000028F1D018E05148406B01210904884324
:101DA0004E494863FFF74AF9054606E0FFF746F952
:101DB000401B022801D9032079E54848406B0121E6
:101DC000090408400028F1D1606A00284FD0434838
:101DD00040680C210840082864D0606A022847D176
:101DE0003E4800680121090688433C490860FFF726
:101DF00025F9054606E0FFF721F9401B022801D925
:101E0000032054E5354800680121490608400028B0
:101E1000F1D100BF3148C06A00090001216B0843BD
:101E20002E49C862A16AE06A08432C4949687B22AE
:101E3000D203914308432949486000BF084600681F
:101E400001210906084325490860FFF7F7F8054610
:101E500006E0FFF7F3F8401B022801D9032026E52E
:101E60001E4800680121490608400028F1D033E0EF
:101E70001A48006801210906884318490860FFF7DD
:101E8000DDF8054606E0FFF7D9F8401B022801D926
:101E900003200CE51148006801214906084000288C
:101EA000F1D119E0606A012800D100E50B484668CD
:101EB000C76A0320C0033040A16A88420AD13907AB
:101EC000090F206B814205D10F2080043040E16A68
:101ED000884201D00120EAE40020E8E4001002403A
:101EE00070B504462546681E0949884201D901207B
:101EF0000CE0681E074948610321081F01F022FD1C
:101F000000200449886107200861002070BD00009E
:101F1000FFFFFF0000E000E07047704730B5024669
:101F20000B4600BF3C20805C012801D1022030BD5F
:101F300001253C20855400BF02253D2085541068B2
:101F400044681068816870252046A84304461868D4
:101F5000044310684460114D1068A8420CD001255C
:101F6000AD071068A84207D00D4D1068A84203D0F5
:101F70000C4D1068A84207D180250846A8430146A9
:101F8000586801431068816001253D20855400BFD9
:101F900000253C20855400BF0020C8E7002C0140EC
:101FA000000400400040014010B50446002C01D15F
:101FB000012010BD3D20005D002805D100213C20FE
:101FC0000155204600F00CF802213D200155211D4D
:101FD000206801F0A5F901213D2001550020E8E726
:101FE00038B504460D492068884215D100BF0C4819
:101FF000C069202108430A49C8610846C0692021F8
:102000000840009000BF00BF002211461220FFF7D9
:102010000FFA1220FFF7FEF938BD0000001400404F
:1020200000100240704710B5044620680069022184
:102030000840400800281CD02068C06808404008BC
:10204000002816D0481F21680861012020772068E9
:1020500080698007800F002803D02046FFF7E2FF49
:1020600005E0204600F0C3F8204600F0C1F800204B
:1020700020772068006904210840800800281DD0CE
:102080002068C06808408008002817D0C84321682D
:102090000861022020772068806903210902084036
:1020A000002803D02046FFF7BDFF05E0204600F0E2
:1020B0009EF8204600F09CF80020207720680069F8
:1020C00008210840C00800281CD02068C0680840CB
:1020D000C008002816D0C843216808610420207772
:1020E0002068C0698007800F002803D02046FFF7D2
:1020F00099FF05E0204600F07AF8204600F078F8D5
:10210000002020772068006910210840000900287D
:102110001DD02068C06808400009002817D0C843B7
:1021200021680861082020772068C069032109021E
:102130000840002803D02046FFF774FF05E0204642
:1021400000F055F8204600F053F800202077206872
:102150000069C007C00F01214840484000280CD04A
:102160002068C068084048404840002805D0C81E84
:1021700021680861204600F03CF820680069802151
:102180000840C00900280BD02068C0680840C0097A
:10219000002805D0C843216808612046FFF7BCFE2F
:1021A0002068006940210840800900280BD0206881
:1021B000C06808408009002805D0C843216808612C
:1021C000204600F017F820680069202108404009E7
:1021D00000280BD02068C06808404009002805D0BE
:1021E000C843216808612046FFF797FE10BD70477D
:1021F000704770477047704770470000FEB504464F
:102200002068C56920680668206887687648284085
:102210000190019800280ED12020284000280AD0E3
:1022200020203040002806D0206E002802D0204612
:10223000216E8847FEBD019800287DD0F807C00FA9
:10224000002804D1FF20213030400028F5D0E807D5
:10225000C00F00280BD0FF2001303040002806D0EE
:10226000012021680862E06F01210843E067022035
:10227000284000280AD0F807C00F002806D0022006
:1022800021680862E06F04210843E06704202840C9
:1022900000280AD0F807C00F002806D004202168C3
:1022A0000862E06F02210843E06708202840002808
:1022B0000ED020203040002803D1F807C00F00289E
:1022C00006D0082021680862E06F08210843E06713
:1022D0000120C002284000280CD001208006304098
:1022E000002807D00120C00221680862E06F202189
:1022F0000843E067E06F002846D0202028400028EF
:1023000009D020203040002805D0206E002802D0BF
:102310002046216E8847E06F009020688068402149
:102320000840402804D0282100980840002826D0E2
:10233000204601F009F900E027E02068806840218C
:102340000840402817D12068806888432168886049
:10235000E06E00280BD02548E16E4863E06EFEF782
:102360003FFD002810D0E06E416B88470CE020460E
:10237000FFF742FF08E02046FFF73EFF04E020465B
:10238000FFF73AFF0020E06754E7012000052840EE
:1023900000280CD0012080053840002807D00120FB
:1023A0000005216808622046FFF725FF42E78020EC
:1023B000284000280AD080203040002806D0606ED7
:1023C000002802D02046616E884733E7402028402D
:1023D000002807D040203040002803D0204601F0DC
:1023E000C5F827E700BF25E70F08000031350008D2
:1023F00010B50446002C01D1012010BDA0690028B1
:1024000000D000E000BF606F002805D100217020DF
:102410000155204600F02CF82420606720680068F1
:102420004008400021680860204601F0AFF801280C
:1024300000D1E2E7606A002802D0204600F0C8FF21
:10244000206840680921C9028843216848602068E3
:1024500080682A21884321688860206800680121FB
:10246000084321680860204601F02AF8C5E700000B
:1024700010B586B00446142101A8FDF7ABFE1D4936
:102480002068884234D100BF1B48C069012149043B
:1024900008431949C8610846C06901214904084038
:1024A000009000BF00BF00BF1348406908431249B5
:1024B000486108464069012149040840009000BF76
:1024C00000BF0C2001900220029000200390032006
:1024D00004900120059001A90920C006FEF7ACFC7C
:1024E000002211461C20FEF7A3FF1C20FEF792FFDE
:1024F00006B010BD0044004000100240704700BF0D
:10250000FEE7000070B50024FE48806920210840E5
:10251000002829D064240FE00020FB4908614862AC
:102520000846006801210843F749086000BFF648E3
:1025300000690028FBD0641E002CEDDCF248006826
:1025400040084000F0490860F048006810280BDAA5
:10255000EC48406849140843EA4948600846C069A5
:1025600020210843E749C861E8480068102811DACB
:10257000E6480068002801D101F030FAE448E34958
:102580000968405CDF498862E0480068401CDF4918
:102590000860E2E1DD4800681038030001F0C3F98B
:1025A0000E083D4D5D9ED5DEE7F6F4F3F2F1F03C0A
:1025B000D448C06920210843D249C8610846406810
:1025C000000A000248600846406890210843CD494F
:1025D000486001204004CF490860CA484068FF2194
:1025E00009048843C749486008464068C9490968E2
:1025F0000843C44948600846406809150843C14972
:1026000048600846406849140843BE494860BF48CE
:102610000068401CBD4908609EE1BA4880690421F9
:102620000840002808D0B748406ABB490860B7484E
:102630000068401CB54908608EE1B24880690421F9
:102640000840002808D0AF48406AB4490860AF4845
:102650000068401CAD4908607EE1AF480068000298
:10266000AD49086008460068AC4909684018400355
:10267000000CAB490880A021A9480088FDF74EFD59
:102680003030A8494871A021A5480088FDF746FDD3
:102690000D460A2169430846A021FDF73FFD303071
:1026A000A04988710A2169430846A021FDF720FD51
:1026B0000D460A2169430846A021FDF72FFD303061
:1026C00098490872084698490860092097490860A7
:1026D0008E480068401C8D4908603DE18948C0690A
:1026E000202108438749C861084640680915884386
:1026F0008449486008464068000A0002486008466D
:1027000040687C2108437F49486088480088C01C95
:102710000004804908607B484068FF210904884321
:1027200078494860084640687A490968084375490D
:102730004860084640684914084372494860734835
:102740000068401C7149086006E180206D4988627C
:102750006E480068401C6D490860FDE080206949B2
:1027600088626A480068401C68490860F4E04020BC
:102770006449886265480068401C64490860EBE071
:1027800094E08AE080E076E01BE0FFE768480068BC
:102790006649096888420CDA634800686449096838
:1027A000405C5849886262480068401C6049086083
:1027B00006E056480068401C5449086001F00EF9D4
:1027C000CAE001F00BF964240FE000204E490861D3
:1027D000486208460068012108434B49086000BF71
:1027E000494800690028FBD0641E002CEDDC4648F7
:1027F000006840084000444908604E480068303096
:102800004D4908714B4840683030887149488068AC
:102810003030C871202008720A20444908604648B8
:10282000414908600020424908603648C0692021BB
:1028300008433449C8613D480088C01C000435493C
:10284000086030484068FF21090488432D494860EA
:10285000084640682F49096808432A4948600846E5
:102860004068491408432749486028480068401CCC
:102870002649086070E08020224988622348006869
:10288000401C2249086067E0C0201E4988621F483A
:102890000068401C1D4908605EE0402019498862BC
:1028A0001A480068401C1949086055E02048006833
:1028B0001E49096888420CDA1B4800681C490968EF
:1028C000405C104988621A480068401C184908603A
:1028D00041E001F083F864240FE000200A49086118
:1028E000486208460068012108430749086000BFA4
:1028F000054800690028FBD0641E002CEDDC02486E
:1029000000681BE000540040001400405400002008
:102910001C0000202C0000204C0000205000002053
:102920004A00002040000020000000201800002085
:1029300010000020B40100200400002040084000E6
:102940000E4908600E488068042108430C498860DD
:1029500019200C49086000BF00BF0B48006880695F
:10296000072109020840002803D00748FEF7DDFBD5
:1029700002E00548FEF71FFC70BD00000014004097
:102980000024014054000020A800002070B5054636
:102990006C6A0020A16B4863E16B48634120005DD5
:1029A000602806D12021412001552046FEF7BBFBBF
:1029B00002E02046FEF70EFC70BD10B50246002076
:1029C000CB07DB0F002B09D04223184341239B5C2C
:1029D00028242340282B01D0B023184302230B4086
:1029E000022B09D14423184341239B5C2824234014
:1029F000282B01D0B023184304230B40042B01D112
:102A0000B823184311230B40112B01D190231843F5
:102A100012230B40122B01D12023184312230B4009
:102A2000122B01D14023184313681B688343146899
:102A3000236010BD016889690222114049080029FC
:102A400002D000210268916201688969C907C90F33
:102A5000012251405140002904D101688969114384
:102A6000026891617047F8B504464120005D282155
:102A70000840282854D120688069012109040840B1
:102A8000070C206880697F2149040840050C2068F4
:102A900080688605B60D2068C068FE210840009059
:102AA000E06802282DD106202840F11106221140AD
:102AB000884216D13546A06C401CA064A06C022848
:102AC00036D10020A06408202168C86100BF002121
:102AD0004020015500BF2A4639462046FEF724FB18
:102AE00026E0009D04212046FFF767FF00BF00217C
:102AF0004020015500BF2A4639462046FEF714FB08
:102B000016E004212046FFF758FF00BF00214020B7
:102B1000015500BF2A4639462046FEF705FB07E06F
:102B200008202168C86100BF00214020015500BF76
:102B3000F8BD000070B504460E464120055D002139
:102B4000422001553F48E06200206085606C3043C0
:102B50006064282D03D0292D01D02A2D0BD103210B
:102B60002046FFF72AFF282141200155002020633D
:102B7000354860630DE007212046FFF71EFF412026
:102B8000005D602802D020214120015500202063F3
:102B9000606320680068012189030840884218D1D9
:102BA00020680068884321680860A06B002848D02E
:102BB0002648A16B486300BF00214020015500BF9B
:102BC000A06BFEF70DF900283BD0A06B416B884746
:102BD00037E0206800680121C9030840884218D105
:102BE00020680068884321680860E06B002828D0CE
:102BF0001648E16B486300BF00214020015500BF2B
:102C0000E06BFEF7EDF800281BD0E06B416B8847C6
:102C100017E04120005D60280BD1202141200155A3
:102C200000BF00214020015500BF2046FEF77BFA7F
:102C300007E000BF00214020015500BF2046FEF7FD
:102C4000C9FA70BD0000FFFF712E00088D29000831
:102C500070B504460D461A48E0620020206320212A
:102C600041200155002142200155002060630420CD
:102C700028408008002813D02068406A616A0870E4
:102C8000606A401C6062208D002809D0208D401EA3
:102C90002085608D401E6085606C0421084360645F
:102CA00007212046FFF789FE10202168C86100BF78
:102CB00000214020015500BF2046FEF7F7FA70BD05
:102CC0000000FFFFF8B504460E4620680768354649
:102CD00020202168C86107212046FFF76EFE20688A
:102CE00040680121C90308432168486020684068A2
:102CF00044490840216848602046FFF79BFE0120B8
:102D000080033840800B002807D0A06B002811D02A
:102D1000A06B0068406860850CE00120C00338406B
:102D2000C00B002806D0E06B002803D0E06B0068E1
:102D300040686085042028408008002813D00421C2
:102D40002846884305462068406A616A0870606AC0
:102D5000401C6062208D002805D0208D401E2085FB
:102D6000608D401E6085608D002803D0606C04215A
:102D700008436064002020630021422001550020A8
:102D80006063606C00280CD0616C2046FFF7D2FEB7
:102D90004120005D282834D129462046FFF758FFFE
:102DA0002FE0E06A1849884210D0204600F02EF843
:102DB0001548E06220214120015500BF002140203C
:102DC000015500BF2046FEF771FA1AE04120005D70
:102DD00022280BD120214120015500BF0021402095
:102DE000015500BF2046FEF7ADFA0AE02021412040
:102DF000015500BF00214020015500BF2046FEF7CD
:102E0000A2FAF8BD00E800FE0000FFFF10B504467E
:102E10000021422001554120005D292811D128219F
:102E2000412001552120206301212046FFF7C5FDE7
:102E300000BF00214020015500BF2046FEF783FA65
:102E400014E04120005D2A2810D12821412001559D
:102E50002220206302212046FFF7AFFD00BF0021A2
:102E60004020015500BF2046FEF76CFA10BD00005F
:102E7000F7B504461646E56A019F00BF4020005D95
:102E8000012801D10220FEBD01214020015500BFD3
:102E9000202038404009002808D020203040400938
:102EA000002803D039462046FFF70CFF1020384099
:102EB000000900283AD0102030400009002835D001
:102EC000608D002821D14120005D282808D10120F3
:102ED0004006854204D139462046FFF7B9FE7CE022
:102EE0004120005D29280CD13F48854209D010209F
:102EF0002168C8612046FFF79DFD2046FFF786FF49
:102F00006BE010202168C86167E010202168C8616B
:102F1000606C042108436064002D02D0880585425E
:102F20005BD1616C2046FFF705FE56E00420384077
:102F3000800800281ED0042030408008002819D0C6
:102F4000608D00280CD02068406A616A0870606A51
:102F5000401C6062208D401E2085608D401E608573
:102F6000608D002839D12048854236D02046FFF7B1
:102F70004DFF32E008203840C008002809D0082062
:102F80003040C008002804D039462046FFF76BFDCA
:102F900023E002203840400800281ED002203040A4
:102FA0004008002819D0608D00280DD0606A007894
:102FB00021688862606A401C6062608D401E608586
:102FC000208D401E208508E001200006854201D0AA
:102FD000002D02D12046FFF719FF00BF002140203D
:102FE000015500BF00204EE70000FFFF0EB5002096
:102FF0000090019002901E481E4908600020486021
:1030000000211C488160C1600121016104214161EE
:103010000021017641768176C176FF21C231C161FE
:103020000021016224300170012124388162FDF702
:10303000B1FD002801D0FDF747FC002000900120E1
:10304000000301900004029069460A48FDF73EFC27
:10305000002801D0FDF738FC112000906946054892
:10306000FDF734FC002801D0FDF72EFC0EBD00005A
:10307000002401406800002000B587B0142102A898
:10308000FDF7A8F800BF314840690121C904084391
:103090002E494861084640690121C9040840019051
:1030A00000BF00BF00BF2948406989100843274975
:1030B000486108464069012149040840019000BF69
:1030C00000BF00BF21484069490008431F494861CB
:1030D00008464069012189040840019000BF00BFF3
:1030E000002209211A48FDF7A3FF002211214901FE
:1030F0000920C006FDF79CFF00220F211548FDF7AF
:1031000097FF092002900120039000200490059071
:1031100002A90F48FDF790FE112040010290012006
:10312000039000200490059002A90920C006FDF735
:1031300083FE0F2002900120039000200490059050
:1031400002A90448FDF778FE07B000BD0010024058
:10315000000800480004004810B5134813490860EF
:10316000134848600021114881600121C16000219D
:10317000016141618161C1610162FEF72DF80028A2
:1031800001D0FDF7A1FB00210848FDF75DFF0028F5
:1031900001D0FDF799FB00210448FDF78CFF0028C2
:1031A00001D0FDF791FB10BD00540040A8000020A5
:1031B0000E0900201CB50020009001900E480F4918
:1031C00008600020486000210C4881600C49C16003
:1031D00000218161FEF7E8FE002801D0FDF774FBB5
:1031E00000200090019069460448FEF797FE0028F1
:1031F00001D0FDF769FB1CBD00140040F400002065
:1032000080BB000010B50E480E4908604B20C0017D
:10321000486000210B488160C16001610C2141615F
:1032200000218161C16101620020064948620846AF
:10323000FFF7DEF8002801D0FDF746FB10BD0000C7
:10324000004400403401002070477047704710B5BB
:10325000FEF77AF810BD00B599B034210CA8FCF740
:10326000B9FF0020089009900A900B901C2101A83A
:10327000FCF7B0FF32200C9001200F9014901190B9
:10328000102010901290002015900CA8FEF70AFB59
:10329000002801D0FDF718FB0720089003200990B3
:1032A00000200A900B90012108A8FEF79DF9002844
:1032B00001D0FDF709FB2220019000200490059029
:1032C00001A8FEF7BFF8002801D0FDF7FDFA19B0FC
:1032D00000BD704710B50E48FEF7A5FE0D4800680A
:1032E00000280BDD0B480068401E0A4908600A48A8
:1032F0000068012108430849086008E000200749E8
:10330000086005480068400840000349086010BD97
:10331000F400002038000020001400403400002099
:1033200010B50268244B984206D001239B079842AF
:1033300002D0224B984205D170241346A3431A466B
:103340004B681A431C4B984212D001239B079842AA
:103350000ED01A4B98420BD0194B984208D0194BFB
:10336000984205D0184B984202D0184B984206D18B
:10337000032424021346A3431A46CB681A4380242D
:103380001346A3434C6923431A4602608B68C36209
:103390000B688362084B984208D00A4B984205D0CC
:1033A000094B984202D0094B984201D10B69036343
:1033B0000123436110BD0000002C014000040040C7
:1033C000002000400040014000440140004801400E
:1033D000818CC907C90F002908D0016849680122FA
:1033E00052049143826A1143026851600222416A89
:1033F0001140022907D101684968D2039143C26A8A
:103400001143026851600422416A1140042907D126
:103410000168496812049143026B114302685160CC
:103420000822416A1140082907D10168496812033E
:103430009143426B1143026851601022416A11406E
:10344000102907D10168896812029143826B1143E8
:10345000026891602022416A1140202907D1016849
:10346000896812029143C26B114302689160402245
:10347000416A1140402915D101684968920391437E
:10348000026C11430268516001221205016C9142E5
:1034900008D101684968032252059143426C1143E7
:1034A000026851608022416A1140802907D1016879
:1034B000496812039143826C11430268516070475E
:1034C00038B504460020E067FDF7B8FD05462068E2
:1034D00000680821084008280BD114482B46002218
:1034E00089040090204600F06BF9002801D00320E9
:1034F00038BD206800680421084004280BD10B481F
:103500002B46002209050090204600F059F90028BA
:1035100001D00320ECE720206067A06700BF0021F6
:103520007020015500BF0020E2E70000FFFFFF010F
:1035300070B505466C6A00215A2001535220015390
:103540002046FEF759FE70BD01680968FF2221324E
:10355000914302681160016889684908490002685E
:1035600091602021816700210166704710B50446F3
:103570002068006840218843216808602020606737
:10358000002060662046FEF7B9FF10BDFEB5044678
:103590000027002000902169A06808436169084362
:1035A000E16908430290206800687C49084002995C
:1035B00008432168086020684068032109038843A4
:1035C000E168084321684860A0690290206A029976
:1035D00008430290206880680B2109028843029901
:1035E00008432168886000BF6D492068884217D170
:1035F0006C48006B8007800F002806D0012808D097
:10360000022808D0032808D101E0002507E00225A0
:1036100005E0042503E0082501E0102500BF2BE0AC
:103620006149206888421AD15E48006B0321090471
:103630000840002808D001210904401A08D0401A87
:1036400008D0401A08D101E0002507E0022505E076
:10365000042503E0082501E0102500BF0CE05349D4
:103660002068884201D1002506E05149206888423F
:1036700001D1002500E0102500BF0121C903E06948
:1036800088424AD1002D06D0022D10D0042D16D02C
:10369000082D29D11FE0FEF76FF806467200636817
:1036A0005B08D0186168FCF723FD87B21FE06168F2
:1036B0004A08404BD018FCF71BFD87B217E0FEF715
:1036C0006DF80646720063685B08D0186168FCF705
:1036D0000FFD87B20BE061684A0801231B04D01874
:1036E000FCF706FD87B202E00120009000BF00BF9A
:1036F000102F0FD3304887420CD82F480F3838404E
:1037000001903807400F0199084301900198216802
:10371000C8603EE0012000903BE0002D06D0022D65
:103720000ED0042D14D0082D25D11BE0FEF724F86F
:10373000064661684A089019FCF7DAFC87B21DE07A
:1037400061684A081D4BD018FCF7D2FC87B215E01F
:10375000FEF724F8064661684A089019FCF7C8FC91
:1037600087B20BE061684A080123DB03D018FCF73D
:10377000BFFC87B202E00120009000BF00BF102F05
:1037800005D30D48874202D82068C76001E00120B8
:1037900000900020206660660098FEBDF369FFEF90
:1037A0000038014000100240004400400048004042
:1037B000004C00400024F400FFFF000000127A00DB
:1037C000FFB581B004460D4617460A9E4AE0701CBC
:1037D000002847D0FDF732FC0499401AB04201D8C6
:1037E000002E17D120680068FF21A131884321688D
:1037F00008602068806840084000216888602020B8
:103800006067A06700BF00217020015500BF032042
:1038100005B0F0BD2068006804210840002821D0D0
:103820002068C06949020840C00A00281AD008462A
:103830002168086220680068FF21A131884321685F
:103840000860206880684008400021688860202067
:103850006067A067E06700BF00217020015500BFCE
:103860000320D5E72068C0692840A84201D1012083
:1038700000E00020B842AAD00020C9E710B50F48E8
:10388000C0694021084040280AD10C48006A08431A
:103890000A49086200F0A8F900200949086010BD33
:1038A0000648C06920210840202802D100F09CF978
:1038B000F5E70448FEF7A2FC00BFF0E70044004033
:1038C00014000020340100202021020C01D010211E
:1038D0001046020A01D010460839020901D01046EC
:1038E000091F820801D01046891E420801D0881E97
:1038F0007047081A7047F8B582B28BB2040C0D0CF1
:1039000010465843002126465E43370C3604801982
:10391000794116466E43370C3604801979412646A4
:103920006E438919F8BD30B47446641E2578641C52
:10393000AB4204D3635D5B00E31830BC18471D46FF
:10394000F8E7000010B5002819DB1A4A03231B0210
:10395000D21883089B00D2588307DC0EFF23A340B4
:103960009A438B071B0E8407E40EA3401A43114BA6
:10397000032424021B198408A4001A5118E00E4ADB
:1039800003071B0F083B9B089B00D2588307DC0EE4
:10399000FF23A3409A438B071B0E8407E40EA3402A
:1039A0001A43054B0407240F083CA408A4001A512D
:1039B00010BD000000E100E01CED00E002E008C8DE
:1039C000121F08C1002AFAD170477047002001E099
:1039D00001C1121F002AFBD1704700001D4800687A
:1039E00000281BD11C484069012108431A4948613D
:1039F0000846406902210843174948610846406962
:103A000004210843144948610846406908210843D5
:103A10001149486101200F4908601AE00E484069C9
:103A2000400840000C49486108464069022188432B
:103A300009494861084640690421884306494861AC
:103A4000084640690821884303494861002001492C
:103A5000086070473C00002000040048FDF780FC2F
:103A6000FFF7F9FBFFF708FBFFF7C0FAFFF774FB5E
:103A7000FFF7A0FBFFF7C6FB002056490861084688
:103A8000C068012108435349C86053484068012178
:103A900008435149486008464068042108434E499C
:103AA000486008468068C007C00F002805D0084657
:103AB0008068022108434849886000BF4648806802
:103AC000C007C00F0028F9D1434880680121C90709
:103AD00008434149886000BF3F488068C00FC00765
:103AE0000121C9078842F7D03B480068C007C00FD2
:103AF000002805D03848006801210843364908608D
:103B00003548806A4008400033498862084680682A
:103B1000012108433049886001203049086000F0E5
:103B20007FF82D48806A0121490488432A49886228
:103B30000846806A01210843274988620846806850
:103B4000042108432449886064202449086000F067
:103B500067F80A202149086000F062F80920C006D1
:103B60004069202108430921C90648610A201B49F0
:103B7000086000F055F81A48006804210843184905
:103B80000860084600680221084315490860084695
:103B90004068012149060843114948600846006809
:103BA000202108430E490860084640680D4909680D
:103BB00008430B494860084640687C21084308498F
:103BC000486008464068491408430549486000BFFA
:103BD000FEE70000001400400024014038000020EF
:103BE000005400402C00002009480068401C08498F
:103BF00008600846006807490968884206DA0648EE
:103C0000006803490968405C044908817047000066
:103C10001000002018000020000000202044004078
:103C200010B5FFF7DBFE01200949086000200949B3
:103C30004862086108460068012108430549086098
:103C400000BF034800680028FBD1FFF7C7FE10BD86
:103C500034000020001400400000000000000000BC
:103C60000102030406070809000000000102030422
:103C7000903C00080000002068000000BC390008EB
:103C8000F83C00086800002068050000CC390008F6
:103C900000000000506F743A2E2E2E2E2E250000AC
:103CA00000000000000000000000000000380039A3
:103CB000001400740054006F000F000100000200A7
:103CC00000000000000000000000000000000000F4
:103CD00054656D703A2E2E2E2E000000000000005C
:103CE00000000000000000000000000004000000D0
:083CF0000100000000127A003F
:04000005080000C12E
:00000001FF
