:020000040800F2
:10000000F0050020D5000008E9260008831D00083F
:1000100000000000000000000000000000000000E0
:10002000000000000000000000000000ED260008B5
:100030000000000000000000EB260008EF2600088A
:10004000E7000008E7000008E7000008E7000008F4
:10005000E7000008E7000008E7000008F1020008D8
:10006000E7000008E7000008E7000008E7000008D4
:1000700031020008E7000008E7000008E700000878
:10008000E7000008E700000871270008E700000803
:10009000E7000008E7000008E7000008891D0008E5
:1000A000E7000008E7000008E7000008E700000894
:1000B000E7000008E7000008E7000008E700000884
:1000C0000348854600F0A2F800480047952C000838
:1000D000F00500200448804704480047FEE7FEE79B
:1000E000FEE7FEE7FEE7FEE76D270008C100000817
:1000F00030B50B46014600202022012409E00D46C0
:10010000D5409D4205D31D469540491B2546954047
:1001100040191546521E002DF1DC30BD70B500248B
:100120002546002801DA01244042002901DA012590
:100130004942FFF7DDFFAC4200D04042002C00D026
:10014000494270BDF0B51FB40646002082B0054696
:100150004024019100901BE0019922460F46304651
:1001600000F020F8049A059B801A994110D310469C
:100170001946224600F039F8361A8F410197224677
:1001800001200021009F00F030F838184D41009008
:100190002046641E0028DFDC019B00982946324679
:1001A00007B0F0BD10B5202A04DB0846203AD04045
:1001B000002110BD0B46D340D0402024A21A91400C
:1001C0000843194610BDD2B201E00270401C491E1E
:1001D000FBD270470022F6E710B513460A460446E4
:1001E0001946FFF7F0FF204610BD10B5202A04DBAA
:1001F0000146203A9140002010BD914020239C1AD6
:100200000346E3401943904010BD0000064C012511
:10021000064E05E0E36807CC2B430C3C98471034AE
:10022000B442F7D3FFF750FF3C3F00085C3F0008A3
:1002300070B528480068C007C00F00280BD02548BB
:1002400000680121084323490860084680680421AA
:100250000843204988601F4800680421084004289A
:1002600033D11C48403005681B480068002807D17E
:100270001A4C21462846FFF73BFF194908600BE05E
:1002800015480068012807D1FF24C83421462846B4
:10029000FFF72EFF13490860134800680421084344
:1002A0001149086008460068022108430E490860A9
:1002B000084640680121490608430B494860084642
:1002C00000682021084308490860084800F0A2F9A6
:1002D00070BD000000240140000100205505000011
:1002E000A0000020F8000020005400402001002061
:1002F00010B50120400300F06DFB4748006800285E
:1003000003D014204549086085E04548006800286E
:100310001CD001287ED10020414908604149086075
:1003200041490860102041490860002040490860A8
:100330004048414908600820404908600020404981
:100340000860404908604049086063E00120344982
:1003500008603E480068314908600020394908605B
:100360002E480068002804D0012830D003284FD13F
:1003700034E03748007E3030364908703448007F1A
:10038000303048703248007C3030C8703048007DD2
:10039000303008712E480078303088712C48007950
:1003A0003030C8712A48007A303008722848007B03
:1003B000303048720846204908600A201F4908600A
:1003C00010201A49086000201D49086020E0002024
:1003D0001B49086010201549086000BF0020114922
:1003E00008601149086010201049086000201A496F
:1003F00008601A4810490860012010490860002070
:100400000F4908600F49086001200F49086000BFCC
:1004100000BF00BF00BF10BDF40000209C00002002
:1004200098000020A8000020AC0000208C000020D4
:10043000A4000020B4000020600000206C00002018
:1004400090000020B000002000010020A00000204B
:100450000000002054000020FC00002004010020C7
:1004600070470000F8B504460D46002600200090B5
:1004700001210907E06A884215D0E06A012812D0FC
:10048000E06A02280FD0E06A03280CD0E06A042852
:1004900009D0E06A052806D0E06A062803D0E06AA1
:1004A000072800D000BF00BF3420005D012801D123
:1004B0000220F8BD01213420015500BF206880686A
:1004C00004210840800800287ED14D496868884290
:1004D00064D02068806A2A7801219140084321680D
:1004E000886201210907E06A884229D0E06A012870
:1004F00026D0E06A022823D0E06A032820D0E06AF0
:1005000004281DD0E06A05281AD0E06A062817D012
:10051000E06A072814D0A868216849694907490F8B
:1005200088420DD020684069C008C0002168486139
:1005300020684069297A4907490F084321684861C2
:100540002868102805D02868112802D028681228A9
:100550004FD12C4880682968102901D1C90407E0CF
:100560002968112902D10121890501E0012109062B
:10057000084324498860286810283AD12249234832
:100580000068FFF7B5FD0A214843009002E000989B
:10059000401E009000980028F9D12AE02068816A66
:1005A0002A780120904081432068816228681028C1
:1005B00005D02868112802D02868122819D11148BE
:1005C00080682968102900E00EE001D1C90407E025
:1005D0002968112902D10121890501E001210906BB
:1005E00088430849886004E0A06B20210843A06389
:1005F000012600BF00213420015500BF304658E7D6
:10060000011000000027014040420F001C010020A3
:100610007047704710B50446206800680421084000
:10062000042804D120684068084004280AD02068C3
:10063000006808210840082840D120684068084028
:1006400008283BD1A06B10210840002803D1A06BE3
:1006500049010843A0632068C0680321890208405B
:10066000002825D1A07E002822D12068006808211A
:10067000084008281CD120688068042108408008B0
:1006800000280DD1206840680C218843216848600B
:10069000A06BFF210131884301210843A06307E0DB
:1006A000A06B20210843A063E06B01210843E063B5
:1006B0002046FFF7ADFF0C20216808602068006825
:1006C0008021084080280ED120684068084080289A
:1006D00009D1A06B49020843A063204600F008F945
:1006E00080202168086020680068102108401028D8
:1006F0001AD1206840680840102815D1A06A012846
:1007000005D02068C068C007C00F002809D0E06B82
:1007100002210843E0631020216808602046FFF7AB
:1007200078FF10202168086010BD000070B50446F5
:1007300000260025002C01D1012070BDA06B0028EF
:1007400006D1E063002134200155204600F0D2F8A4
:10075000A06B1021084000287ED1002EFCD120681B
:1007600080680421084080080028F5D1A06B890129
:10077000884302210843A063206880688007800FB7
:1007800001280DD120680068C007C00F002805D1DE
:100790002068C06889030840884201D1012000E038
:1007A000002000280FD12068C06818218843A16864
:1007B00008432168C860206800698000800861687B
:1007C0000843216808612068C068474908402168DB
:1007D000C860207E8003617EC9030843A17E49036F
:1007E0000843A16A012902D00121090300E0002188
:1007F0000843E16808432169022901D1042100E08E
:10080000002108432421095D490008430543E07E97
:1008100001280ED1A07E002803D101200004054349
:1008200007E0A06B20210843A063E06B012108438F
:10083000E063FF21C231E069884203D0216AE069A8
:10084000084305432068C06828432168C860012127
:100850000907E06A884200E03EE014D0E06A01281F
:1008600011D0E06A02280ED0E06A03280BD0E06ABB
:10087000042808D0E06A052805D0E06A062802D0DE
:10088000E06A07280DD120684069C008C0002168CF
:10089000486120684069A18D4907490F08432168D4
:1008A00048612068C06811490840A84208D100206A
:1008B000E063A06B0221884301210843A06310E09C
:1008C000A06B0221884310210843A063E06B012143
:1008D0000843E063012604E0A06B10210843A063F5
:1008E0000126304629E700001902FEFFE7FF3F839B
:1008F0007047000010B586B00446142101A8FFF728
:1009000069FC1B49206888422FD100BF19488069C3
:100910004915084317498861084680694915084008
:10092000009000BF00BF00BF1248406909020843A1
:100930001049486108464069012149040840009077
:1009400000BF00BF0120019003200290002003900F
:1009500001A90920C00600F04DF8002211460C2024
:1009600000F044FB0C2000F033FB06B010BD00008B
:10097000002401400010024070B5044600252120EB
:10098000005D022803D00420A06301251EE020683A
:1009900000680E21884321680860206800684008CC
:1009A0004000216808600120216C8840E16B4860AC
:1009B00001212120015500BF00212020015500BF49
:1009C000606B002802D02046616B8847284670BDC6
:1009D0007047000010B504460548406920400028D3
:1009E00004D0034844612046FFF7F2FF10BD000029
:1009F0000004014078B503460022E2E0012696405B
:100A00000C683440002C7DD04D68022D02D04D681A
:100A1000122D15D1D508AE001D462035A859550711
:100A2000EE0E0F25B5400646AE4330465607F60E8D
:100A30000D69B5402843D508AD001E4620367051DB
:100A4000186856000325B5400646AE4330460D797A
:100A5000AD07AD0F5600B540284318604D68012D15
:100A600008D04D68022D05D04D68112D02D04D687B
:100A7000122D18D1986856000325B5400646AE439E
:100A800030465600CD68B540284398605868012527
:100A900095400646AE43304610264D6835402D0938
:100AA000954028435860D86856000325B54006464F
:100AB000AE43304656008D68B5402843D8600126C5
:100AC00036074D683540B5427AD100BF404DAD691B
:100AD000012635433E4EB5613546AD69ED07ED0F54
:100AE000009500BF00BF3B4D9608B600A85995077A
:100AF0002E0F0F25B5400646AE4330460925ED06BC
:100B0000AB4200E05CE001D1002514E0324DAB4285
:100B100001D101250FE0314DAB4201D102250AE0A0
:100B20002F4DAB4201D1032505E02E4DAB4201D143
:100B3000042500E005259607360FB5402843254DCE
:100B40009608B600A851284D28680546A5432846B2
:100B5000012636044D683540B54202D1054625438D
:100B60002846214D286068680546A5432846012689
:100B700076044D683540B54202D1054625432846E6
:100B8000194D6860A8680546A54328460126360524
:100B90004D683540B54202D1054625432846124DE1
:100BA000A860E8680546A5432846012676054D68F5
:100BB0003540B54202D10546254328460A4DE86036
:100BC000521C0D68D540002D00D017E778BD0000FD
:100BD00000100240080001400004004800080048DE
:100BE000000C00480010004800040140002A01D019
:100BF000816100E081627047014800687047000031
:100C00001001002002464120805C20282FD100BF27
:100C10004020805C012801D1022070470123402040
:100C2000835400BF24234120835410680068400887
:100C30004000136818601068006801231B03984384
:100C4000136818601068006808431368186010681B
:100C5000006801231843136818602023412083543F
:100C600000BF00234020835400BF0020D5E70220AE
:100C7000D3E710B502460B464120805C20282ED1D8
:100C800000BF4020805C012801D1022010BD01245A
:100C90004020845400BF24244120845410680068FC
:100CA0004008400014682060106801680F24240286
:100CB0000846A0430146180201431068016010680D
:100CC00000680124204314682060202441208454BB
:100CD00000BF00244020845400BF0020D6E702203B
:100CE000D4E770477047F8B50446206885692068E6
:100CF0000668FF2001302840000A00280BD0802021
:100D00003040C009002806D0606C012108436064AF
:100D100008022168C861012080022840800A00285A
:100D20000BD080203040C009002806D0606C08211C
:100D300008436064C8012168C8610120400228405E
:100D4000400A00280BD080203040C009002806D07F
:100D5000606C02210843606408022168C861676C06
:100D60000B203840002803D03946204601F048F9CE
:100D7000F8BD70B504462068856920680668606B18
:100D8000002804D0324629462046636B984770BD40
:100D90007047000010B50446002C01D1012010BDA1
:100DA0004120005D002805D100214020015520464A
:100DB00000F05CF8242141200155206800684008BB
:100DC0004000216808600F21090660688843216897
:100DD0000861206880680121C90388432168886010
:100DE000E068012806D10121C903A06808432168F1
:100DF000886005E021218902A06808432168886095
:100E0000E068022802D180022168486020684068BA
:100E100014490843216848602068C0680121C9035B
:100E200088432168C860616920690843A169090293
:100E300008432168C860216AE069084321680860A6
:100E40002068006801210843216808600020606470
:100E5000202141200155002020630021422001551E
:100E600000209CE7008000027047000010B586B0AB
:100E70000446142101A8FFF7ADF91E4920688842F5
:100E800036D100BF1C4840690121890408431A4932
:100E9000486108464069012189040840009000BF6C
:100EA00000BF032000020190122002900120039055
:100EB000032004900120059001A91048FFF79AFD36
:100EC00000BF0D48C0690121490508430A49C861AE
:100ED0000846C069012149050840009000BF00BFD5
:100EE00000221146172000F081F8172000F070F85A
:100EF00006B010BD0054004000100240000400483D
:100F00007047704703480068034909784018014951
:100F100008607047100100201801002010B5064835
:100F200000681021084304490860002000F006F81A
:100F300000F02EF8002010BD0020024070B50446DD
:100F4000104801787D20C000FFF7D2F806463146F0
:100F50000D480068FFF7CCF8054600F087FD002833
:100F600001D0012070BD042C07D200222146501E62
:100F700000F03CF80548046001E00120F2E70020A1
:100F8000F0E70000180100201C01002014010020DF
:100F900008B500BF0D488069012108430B498861ED
:100FA00008468069C007C00F009000BF00BF00BFA7
:100FB0000846C069090408430449C8610846C06975
:100FC00009040840009000BF00BF08BD00100240A7
:100FD0000146002905DBCB06DB0E01229A40024BBD
:100FE0001A6000BF7047000000E100E070B50446E1
:100FF0000D4616462946204601F05EFC70BD0000F5
:10100000F8B504460026002501210904206808409F
:1010100088427AD100276048C06909030840002847
:101020000DD100BF5C48C06908435B49C8610846F0
:10103000C06909040840009000BF00BF012757485D
:101040000068FF2101310840002816D1534800688C
:10105000084352490860FFF7CFFD064606E0FFF758
:10106000CBFD801B642801D90320F8BD4B480068E4
:10107000FF21013108400028F1D04748006A0321D0
:10108000090208400546002D2DD060680840A8429E
:1010900029D04148006A884305463F48006A01213B
:1010A000090408433C4908620846006A0121090412
:1010B00088433949086208460562E807C00F0028DE
:1010C00011D0FFF799FD064607E0FFF795FD801B5D
:1010D0003349884201D90320C7E72F48006A02211B
:1010E00008400028F1D02C48006A032109028843F7
:1010F0006168084328490862012F05D10846C06984
:10110000090488432449C86100BF2078C007C00F84
:10111000002807D02048006B80088000A1680843A1
:101120001D490863022120680840022808D11A4896
:10113000006B032109048843E168084316490863EA
:10114000202120680840202807D11348006B102177
:101150008843216908431049086301214904206834
:101160000840884207D10C48006B80218843A16960
:101170000843094908630121890220680840884220
:1011800007D10548006B4021884361690843024943
:101190000863002069E70000001002400070004072
:1011A0008813000070B504460D46002C01D10120C3
:1011B00070BD58480068C007C00FA8420ED25548FD
:1011C000006840084000284352490860084600680B
:1011D000C007C00FA84201D00120E9E70221206822
:1011E0000840022814D1042120680840042807D1AF
:1011F0004948406807210902884340184649486029
:1012000045484068F0218843A16808434249486046
:101210002078C007C00F002847D06068012808D197
:101220003D480068012149040840002821D10120DF
:10123000BEE76068022808D13748006801214906E6
:101240000840002815D10120B2E76068032808D1C2
:101250003148406B012109040840002809D10120D0
:10126000A6E72D48006802210840002801D101208E
:101270009EE7294840688008800061680843264945
:101280004860FFF7B9FC064607E0FFF7B5FC801B96
:101290002249884201D903208AE71F4840680C216F
:1012A0000840616889008842EFD11A480068C00789
:1012B000C00FA8420ED917480068400840002843D4
:1012C0001449086008460068C007C00FA84201D052
:1012D00001206DE7042120680840042808D10E4849
:1012E0004068072109028843E16808430A494860C9
:1012F00000F01AF808494968F02211400909084A23
:10130000515CC840074908600020FFF717FE002025
:101310004EE7000000200240001002408813000049
:10132000243F00081C010020F0B589B035A001461B
:101330000EC9C06805AC0EC4089036A001460EC99F
:10134000C06801AC0EC404900025002400270026CC
:1013500000200090334845680C202840002849D0E0
:10136000042804D0082805D00C2842D13EE02E489D
:10137000009042E00F2080042840800C05A90E5CFC
:101380002848C06A0007000F01A90C5C0320C003B5
:1013900028400121090488420AD12246002322481C
:1013A0001946FEF7CFFE314601F060FA07461BE012
:1013B0000320C00328400321C90388420AD12246E2
:1013C00000231A481946FEF7BDFE314601F04EFAD9
:1013D000074609E02246002313481946FEF7B2FEED
:1013E000314601F043FA0746009706E00F480090A7
:1013F00003E000BF0C48009000BF00BF009809B098
:10140000F0BD000002030405060708090A0B0C0DD5
:101410000E0F10100102030405060708090A0B0C41
:101420000D0E0F100010024000127A00006CDC025A
:10143000FEB50446002C01D10120FEBD2078C00776
:10144000C00F002872D0FC4840680C2108400428D6
:101450000CD0F94840680840082813D1F648406885
:10146000490308400121090488420BD1F248006871
:1014700001214904084000286BD06068002868D129
:101480000120DAE700BF6068012807D1EA48006858
:10149000012109040843E849086031E06068002838
:1014A0000ED1E5480068012109048843E24908603B
:1014B00008460068012189048843DF4908601FE06D
:1014C000606805280ED1DC480068012189040843C2
:1014D000D949086008460068012109040843D64933
:1014E00008600DE0D4480068012109048843D2490E
:1014F000086008460068012189048843CE490860D5
:1015000000BF6068002812D0FFF776FB054606E0B2
:10151000FFF772FB401B642801D903208DE7C64802
:1015200000680121490408400028F1D011E0FFF7CC
:1015300063FB054606E0FFF75FFB401B642801D90B
:1015400003207AE7BC4800680121490408400028CC
:10155000F1D1022120680840022862D1B6484068D3
:101560000C21084000280CD0B348406808400828E7
:101570001CD1B1484068490308400121C903884291
:1015800014D1AD48006802210840002804D0E0686A
:10159000012801D0012050E7A7480068F8218843BE
:1015A0002169C9000843A44908603AE0E0680028BE
:1015B00020D0A1480068012108439F490860FFF737
:1015C0001BFB054606E0FFF717FB401B022801D96D
:1015D000032032E798480068022108400028F2D032
:1015E00095480068F82188432169C9000843924959
:1015F000086016E090480068400840008E49086086
:10160000FFF7FAFA054606E0FFF7F6FA401B022854
:1016100001D9032011E7884800680221084000280A
:10162000F2D1082120680840082831D1E06900285B
:1016300017D08148406A012108437F494862FFF77B
:10164000DBFA054606E0FFF7D7FA401B022801D96E
:101650000320F2E67848406A022108400028F2D0D0
:1016600016E07548406A4008400073494862FFF739
:10167000C3FA054606E0FFF7BFFA401B022801D96E
:101680000320DAE66C48406A022108400028F2D1C3
:10169000042120680840042872D100200190664887
:1016A000C0698906084000280ED100BF6248C069A1
:1016B00008436149C8610846C069090408400090B0
:1016C00000BF00BF012001905C480068FF2101318C
:1016D0000840002816D15948006808435749086057
:1016E000FFF78AFA054606E0FFF786FA401B6428F2
:1016F00001D90320A1E651480068FF2101310840CB
:101700000028F1D000BFA068012806D14A48006A2D
:1017100001210843484908622AE0A06800280BD14B
:101720004548006A4108490043480162006A0421B3
:101730008843414908621BE0A06805280CD13E4857
:10174000006A042108433C4908620846006A0121F6
:101750000843394908620BE03748006A40084000F6
:10176000354908620846006A042188433249086204
:1017700000BFA068002813D0FFF73EFA054608E036
:101780002BE0FFF739FA401B2D49884201D903208D
:1017900053E62948006A022108400028F1D011E0F0
:1017A000FFF72AFA054607E0FFF726FA411B24480F
:1017B000814201D9032040E61F48006A0221084007
:1017C0000028F1D10198012806D11B48C0690121E8
:1017D000090788431849C86100BF102120680840E4
:1017E00010285FD1606901282CD11348406B042177
:1017F0000843114948630846406B012108430E49DC
:101800004863FFF7F9F9054606E0FFF7F5F9401BD5
:10181000022801D9032010E60748406B0221084046
:101820000028F2D00448406BF8218843A169C90020
:1018300008430149486335E0001002400070004051
:10184000881300006069401D00280FD18648406B56
:1018500004218843844948630846406BF821884343
:10186000A169C9000843804948631BE07E48406B7A
:10187000042108437C4948630846406B4008400007
:101880004863FFF7B9F9054606E0FFF7B5F9401BD5
:10189000022801D90320D0E57348406B022108409B
:1018A0000028F2D1202120680840202852D16E481B
:1018B00040680C2108400C280AD06B48406808405A
:1018C000082811D1684840684903084088420BD174
:1018D0006548406B01210904084000283AD0206A7D
:1018E000012837D00120A8E5206A002819D05E48D9
:1018F000406B0121090408435B494863FFF77CF909
:10190000054606E0FFF778F9401B022801D90320BD
:1019100093E55548406B0121090408400028F1D0A7
:1019200018E05148406B0121090488434E4948633F
:10193000FFF762F9054606E0FFF75EF9401B022853
:1019400001D9032079E54848406B0121090408408A
:101950000028F1D1606A00284FD0434840680C212C
:101960000840082864D0606A022847D13E480068D1
:101970000121090688433C490860FFF73DF9054607
:1019800006E0FFF739F9401B022801D9032054E58E
:10199000354800680121490608400028F1D100BF00
:1019A0003148C06A00090001216B08432E49C86212
:1019B000A16AE06A08432C4949687B22D20391431B
:1019C00008432949486000BF08460068012109060C
:1019D000084325490860FFF70FF9054606E0FFF7C1
:1019E0000BF9401B022801D9032026E51E48006898
:1019F0000121490608400028F1D033E01A48006868
:101A000001210906884318490860FFF7F5F80546E3
:101A100006E0FFF7F1F8401B022801D903200CE58E
:101A2000114800680121490608400028F1D119E059
:101A3000606A012800D100E50B484668C76A0320A8
:101A4000C0033040A16A88420AD13907090F206BD0
:101A5000814205D10F2080043040E16A884201D0E4
:101A60000120EAE40020E8E40010024070B50446DA
:101A70002546681E0949884201D901200CE0681EEC
:101A8000074948610321081F00F016FF00200449A0
:101A9000886107200861002070BD0000FFFFFF0083
:101AA00000E000E07047704730B502460B4600BFCB
:101AB0003C20805C012801D1022030BD01253C2062
:101AC000855400BF02253D20855410684468106885
:101AD000816870252046A8430446186804431068AE
:101AE0004460114D1068A8420CD00125AD07106864
:101AF000A84207D00D4D1068A84203D00C4D1068C5
:101B0000A84207D180250846A843014658680143EA
:101B10001068816001253D20855400BF00253C20D0
:101B2000855400BF0020C8E7002C0140000400409D
:101B30000040014010B50446002C01D1012010BD29
:101B40003D20005D002805D100213C2001552046A4
:101B500000F00CF802213D200155211D206800F005
:101B60002DFE01213D2001550020E8E738B504464F
:101B70000D492068884215D100BF0C48C06920215A
:101B800008430A49C8610846C069202108400090FE
:101B900000BF00BF002211461220FFF727FA1220D3
:101BA000FFF716FA38BD0000001400400010024094
:101BB000704710B5044620680069022108404008BB
:101BC00000281CD02068C06808404008002816D0B3
:101BD000481F2168086101202077206880698007FC
:101BE000800F002803D02046FFF7E2FF05E02046E3
:101BF00000F0C3F8204600F0C1F8002020772068EC
:101C0000006904210840800800281DD02068C068B1
:101C100008408008002817D0C843216808610220C6
:101C2000207720688069032109020840002803D03A
:101C30002046FFF7BDFF05E0204600F09EF8204655
:101C400000F09CF8002020772068006908210840F7
:101C5000C00800281CD02068C0680840C0080028C0
:101C600016D0C84321680861042020772068C06925
:101C70008007800F002803D02046FFF799FF05E07A
:101C8000204600F07AF8204600F078F8002020770F
:101C90002068006910210840000900281DD0206834
:101CA000C06808400009002817D0C84321680861AF
:101CB000082020772068C069032109020840002815
:101CC00003D02046FFF774FF05E0204600F055F8EA
:101CD000204600F053F80020207720680069C007F4
:101CE000C00F01214840484000280CD02068C0683F
:101CF000084048404840002805D0C81E21680861B7
:101D0000204600F03CF82068006980210840C009A6
:101D100000280BD02068C0680840C009002805D002
:101D2000C843216808612046FFF7BCFE20680069AF
:101D300040210840800900280BD02068C068084076
:101D40008009002805D0C84321680861204600F0BA
:101D500017F82068006920210840400900280BD0AE
:101D60002068C06808404009002805D0C8432168A1
:101D700008612046FFF797FE10BD70477047704717
:101D8000704700BFFEE7000010B52D488069202194
:101D90000840002831D00A202A49086013E00020BA
:101DA000294908614862084600680121084326491C
:101DB000086000BF244800690028FBD02148006863
:101DC000401E204908601F4800680028E7DC1E48C4
:101DD0000068400840001C4908601C480068102842
:101DE0000BDA17484068491408431549486008460B
:101DF000C069202108431249C861144800681028AE
:101E00000BDA134811490968405C0D4988620F4894
:101E10000068401C0D49086001E001F02DF80D48F4
:101E200000688069072109020840002803D009489A
:101E3000FEF759FF02E00748FEF79BFF10BD0000C8
:101E400000540040B0000020001400408C0000202E
:101E5000700000206001002070B505466C6A00200B
:101E6000A16B4863E16B48634120005D602806D1A7
:101E70002021412001552046FEF733FF02E0204695
:101E8000FEF786FF70BD10B502460020CB07DB0FC2
:101E9000002B09D04223184341239B5C2824234074
:101EA000282B01D0B023184302230B40022B09D169
:101EB0004423184341239B5C28242340282B01D032
:101EC000B023184304230B40042B01D1B82318433B
:101ED00011230B40112B01D19023184312230B40E7
:101EE000122B01D12023184312230B40122B01D1B6
:101EF0004023184313681B6883431468236010BD94
:101F000001688969022211404908002902D0002194
:101F10000268916201688969C907C90F01225140AD
:101F20005140002904D10168896911430268916117
:101F30007047F8B504464120005D28210840282854
:101F400054D120688069012109040840070C2068E9
:101F500080697F2149040840050C20688068860557
:101F6000B60D2068C068FE2108400090E068022895
:101F70002DD106202840F11106221140884216D1A9
:101F80003546A06C401CA064A06C022836D100200D
:101F9000A06408202168C86100BF002140200155CD
:101FA00000BF2A4639462046FEF79CFE26E0009DEB
:101FB00004212046FFF767FF00BF002140200155A4
:101FC00000BF2A4639462046FEF78CFE16E0042163
:101FD0002046FFF758FF00BF00214020015500BFF9
:101FE0002A4639462046FEF77DFE07E00820216894
:101FF000C86100BF00214020015500BFF8BD0000AE
:1020000070B504460E464120055D00214220015571
:102010003F48E06200206085606C30436064282D9A
:1020200003D0292D01D02A2D0BD103212046FFF703
:102030002AFF282141200155002020633548606394
:102040000DE007212046FFF71EFF4120005D6028BC
:1020500002D02021412001550020206360632068C8
:102060000068012189030840884218D1206800686F
:10207000884321680860A06B002848D02648A16BDF
:10208000486300BF00214020015500BFA06BFEF750
:1020900073FC00283BD0A06B416B884737E0206879
:1020A00000680121C9030840884218D120680068EF
:1020B000884321680860E06B002828D01648E16B4F
:1020C000486300BF00214020015500BFE06BFEF7D0
:1020D00053FC00281BD0E06B416B884717E0412080
:1020E000005D60280BD120214120015500BF002157
:1020F0004020015500BF2046FEF7F3FD07E000BF7A
:1021000000214020015500BF2046FEF741FE70BD72
:102110000000FFFF3D230008591E000870B504466B
:102120000D461A48E062002020632021412001551D
:1021300000214220015500206063042028408008CF
:10214000002813D02068406A616A0870606A401CE9
:102150006062208D002809D0208D401E2085608D72
:10216000401E6085606C042108436064072120469E
:10217000FFF789FE10202168C86100BF00214020C0
:10218000015500BF2046FEF76FFE70BD0000FFFF47
:10219000F8B504460E4620680768354620202168B9
:1021A000C86107212046FFF76EFE206840680121C4
:1021B000C9030843216848602068406844490840D2
:1021C000216848602046FFF79BFE012080033840CD
:1021D000800B002807D0A06B002811D0A06B0068EE
:1021E000406860850CE00120C0033840C00B002827
:1021F00006D0E06B002803D0E06B00684068608583
:10220000042028408008002813D004212846884351
:1022100005462068406A616A0870606A401C606216
:10222000208D002805D0208D401E2085608D401E09
:102230006085608D002803D0606C042108436064D1
:102240000020206300214220015500206063606C63
:1022500000280CD0616C2046FFF7D2FE4120005DC3
:10226000282834D129462046FFF758FF2FE0E06A9E
:102270001849884210D0204600F02EF81548E06238
:1022800020214120015500BF00214020015500BF01
:102290002046FEF7E9FD1AE04120005D22280BD11F
:1022A00020214120015500BF00214020015500BFE1
:1022B0002046FEF725FE0AE020214120015500BFFF
:1022C00000214020015500BF2046FEF71AFEF8BD50
:1022D00000E800FE0000FFFF10B504460021422088
:1022E00001554120005D292811D1282141200155A7
:1022F0002120206301212046FFF7C5FD00BF0021FA
:102300004020015500BF2046FEF7FBFD14E04120B0
:10231000005D2A2810D12821412001552220206368
:1023200002212046FFF7AFFD00BF002140200155EC
:1023300000BF2046FEF7E4FD10BD0000F7B50446DF
:102340001646E56A019F00BF4020005D012801D1CB
:102350000220FEBD01214020015500BF2020384051
:102360004009002808D0202030404009002803D030
:1023700039462046FFF70CFF10203840000900289E
:102380003AD0102030400009002835D0608D002858
:1023900021D14120005D282808D101204006854236
:1023A00004D139462046FFF7B9FE7CE04120005DAC
:1023B00029280CD13F48854209D010202168C861E6
:1023C0002046FFF79DFD2046FFF786FF6BE01020BB
:1023D0002168C86167E010202168C861606C042131
:1023E00008436064002D02D0880585425BD1616C92
:1023F0002046FFF705FE56E00420384080080028FC
:102400001ED0042030408008002819D0608D00289C
:102410000CD02068406A616A0870606A401C606283
:10242000208D401E2085608D401E6085608D0028B7
:1024300039D12048854236D02046FFF74DFF32E0A3
:1024400008203840C008002809D008203040C008C3
:10245000002804D039462046FFF76BFD23E0022018
:102460003840400800281ED0022030404008002894
:1024700019D0608D00280DD0606A007821688862CC
:10248000606A401C6062608D401E6085208D401E29
:10249000208508E001200006854201D0002D02D1F0
:1024A0002046FFF719FF00BF00214020015500BF63
:1024B00000204EE70000FFFF0EB5002000900190C5
:1024C0000290194819490860002048600021174807
:1024D0008160C16001210161042141610021017617
:1024E00041768176C176FF21C231C161002101624E
:1024F00024300170012124388162FEF717F9002889
:1025000001D0FDF7ADFF00200090012000030190F5
:102510000004029069460548FDF7A4FF002801D099
:10252000FDF79EFF0EBD00000024014020010020A9
:1025300000B587B0142102A8FDF74CFE00BF3B4850
:1025400040690121C9040843384948610846406987
:102550000121C9040840019000BF00BF00BF3348FB
:1025600040698910084331494861084640690121A2
:1025700049040840019000BF00BF00BF2B484069DC
:1025800049000843294948610846406901218904F6
:102590000840019000BF00BF002209212448FEF737
:1025A00025FB0022112149010920C006FEF71EFB70
:1025B00000220F211F48FEF719FB01204003029063
:1025C0001D4803900020049002A91948FEF712FA52
:1025D000092002900120039000200490059002A998
:1025E0001348FEF707FA11204001029001200390E2
:1025F00000200490059002A90920C006FEF7FAF910
:102600000F2002900120039000200490059002A961
:102610000848FEF7EFF9002211460720FEF7E6FC16
:102620000720FEF7D5FC07B000BD000000100240F7
:1026300000080048000400480000111010B51348BD
:102640001349086013484860002111488160012146
:10265000C1600021016141618161C1610162FEF7D8
:1026600099FB002801D0FDF7FBFE00210848FEF78A
:10267000C9FA002801D0FDF7F3FE00210448FEF757
:10268000F8FA002801D0FDF7EBFE10BD0054004021
:10269000600100200E0900201CB500200090019070
:1026A0000F48104908600020486000210D488160F3
:1026B0007D218901C16000218161FFF73BFA00287B
:1026C00001D0FDF7CDFE002000900190694605483D
:1026D000FFF7EAF9002801D0FDF7C2FE1CBD00009B
:1026E00000140040AC01002070477047704710B5DF
:1026F000FEF708FC10BD00B599B034210CA8FDF719
:1027000069FD0020089009900A900B901C2101A8F7
:10271000FDF760FD12200C9001200F901190102009
:1027200010901290002015900CA8FEF781FE002852
:1027300001D0FDF795FE07200890002009900A902F
:102740000B90002108A8FEF72DFD002801D0FDF711
:1027500087FE202001900020059001A8FEF750FC84
:10276000002801D0FDF77CFE19B000BD70470000C5
:1027700010B50E48FFF71DFA0D48006800280BDD64
:102780000B480068401E0A4908600A480068012199
:1027900008430849086008E0002007490860054828
:1027A0000068400840000349086010BDAC010020EB
:1027B00084000020001400408800002010B502684A
:1027C000244B984206D001239B07984202D0224B0B
:1027D000984205D170241346A3431A464B681A4306
:1027E0001C4B984212D001239B0798420ED01A4BE3
:1027F00098420BD0194B984208D0194B984205D0FB
:10280000184B984202D0184B984206D10324240258
:102810001346A3431A46CB681A4380241346A343A6
:102820004C6923431A4602608B68C3620B6883625B
:10283000084B984208D00A4B984205D0094B984261
:1028400002D0094B984201D10B6903630123436114
:1028500010BD0000002C014000040040002000409A
:10286000004001400044014000480140F8B582B2F8
:102870008BB2040C0D0C10465843002126465E43D3
:10288000370C36048019794116466E43370C3604EE
:102890008019794126466E438919F8BD30B47446D3
:1028A000641E2578641CAB4204D3635D5B00E318AF
:1028B00030BC18471D46F8E710B5002819DB1A4A46
:1028C00003231B02D21883089B00D2588307DC0E17
:1028D000FF23A3409A438B071B0E8407E40EA340FB
:1028E0001A43114B032424021B198408A4001A5113
:1028F00018E00E4A03071B0F083B9B089B00D258A9
:102900008307DC0EFF23A3409A438B071B0E84072B
:10291000E40EA3401A43054B0407240F083CA40807
:10292000A4001A5110BD000000E100E01CED00E021
:1029300002E008C8121F08C1002AFAD17047704788
:10294000002001E001C1121F002AFBD170470000E6
:1029500010B5C848406B09287ED10020C54948639E
:102960000846006B052878D1002008630846C06A35
:10297000092873D10020C8620846806A05286ED1F4
:10298000002088620846416A006A0A2250430818FB
:10299000B94908600846006817287DD10020B5496C
:1029A000486208620120B5490860B248C16980697F
:1029B00050430818B2490860AE4841690069504365
:1029C0000818B0490860AB4800687D21C900484339
:1029D000A8494968642251434118A64880680A22E0
:1029E00050430818A349C9684018A74908606421E2
:1029F000A5480068FDF792FB002907D1FF2191311E
:102A0000A1480068FDF78AFB00290FD064219E4889
:102A10000068FDF783FB00290BD09B480468E01792
:102A2000800F001980108000201A02D101209749E0
:102A30000860934800681F2820D192480068012848
:102A40004AD090480068032846D08E480068052880
:102A500042D08C48006803E006E1FFE0F8E0F1E0D6
:102A6000072839D087480068082835D0854800688D
:102A70000A2831D0834800680C282DD0804800688F
:102A80001E2811D17F480068042825D07D480068A1
:102A9000062821D07B4800E0B6E0006809281BD05A
:102AA000784800680B2817D0754800681C2807D1A3
:102AB00074480068022803D17448006800280BD0CD
:102AC0006F4800681D287DD16E48006802287DD1BE
:102AD0006E480068002879D000206649886101208E
:102AE000C861684800680C2850D1002008610120A6
:102AF000486165480068401C634908607D21C90041
:102B000061480068FDF70AFB5A4908607D21C90049
:102B10005D480068FDF702FB5D48016001460968F9
:102B20000A22514308467D21C900FDF7F7FA5149B1
:102B30004860574909680A22514308467D21C90067
:102B4000FDF7ECFA52480160014609680A22514338
:102B500008467D21C900FDF7E1FA464988604C49E5
:102B600009680A22514308467D21C900FDF7D6FABB
:102B700047480160014609680A22514308467D2101
:102B8000C900FDF7CBFA3B49C86072E03D480068D8
:102B9000401C3C4908600A213A480068FDF7BEFA2B
:102BA000344908610A2137480068FDF7B7FA384808
:102BB0000160014609680A22514308461146FDF7A3
:102BC000ADFA00E002E02B49486152E02C48006871
:102BD000401C2B4908600A2129480068FDF79EFA2D
:102BE000244988610A2126480068FDF797FA284899
:102BF0000160014609680A22514308461146FDF763
:102C00008DFA1C49C86134E01B480068401C1A4911
:102C100008600A2118480068FDF780FA1549086223
:102C20000A2115480068FDF779FA19480160014644
:102C300009680A22514308461146FDF76FFA0D490B
:102C4000486216E00B48806A401C0A49886210E01E
:102C50000848C06A401C0749C8620AE00548006B82
:102C6000401C0449086304E00248406B401C0149D1
:102C7000486310BD000000203800002064000020E0
:102C80004000002044000020480000206800002090
:102C90003C000020FEF742F9FFF72DFDFFF748FC4E
:102CA000FFF70AFCFFF7CAFCFFF7F6FC00206949B2
:102CB000086169484068012108436749486008463F
:102CC0008068C007C00F002805D008468068022130
:102CD00008436149886000BF5F488068C007C00F33
:102CE0000028F9D15C4880680121C90708435A4986
:102CF000886000BF58488068C00FC0070121C9071D
:102D00008842F7D054480068C007C00F002805D09B
:102D100051480068012108434F4908604E488068C7
:102D2000012108434C4988600A204C49086013E09F
:102D300000204849486208610846006801210843AC
:102D40004449086000BF434800690028FBD043485D
:102D50000068401E41490860404800680028E7DCE0
:102D60000920C0064069202108430921C90648619D
:102D70000A203A49086013E0002036494862086199
:102D800008460068012108433249086000BF314805
:102D900000690028FBD031480068401E2F490860B8
:102DA0002E4800680028E7DC2D48007E30302D4991
:102DB00008702B48007F303048702948007C303044
:102DC000C8702748007D30300871254800783030C1
:102DD0008871234800793030C8712148007A30303A
:102DE00008721F48007B3030487208461E49086050
:102DF0000A201E4908601E480068042108431C4937
:102E0000086008460068022108431949086008461E
:102E10004068012149060843154948600846006892
:102E20002021084312490860084640681149096892
:102E300008430F494860084640687C2108430C4914
:102E4000486008464068491408430949486000BF83
:102E5000FEE7000000140040002401408400002030
:102E60000000002054000020600000206C000020C2
:102E7000005400408000002010B5FE480068002883
:102E800078D1FD480068002875D10A20FB49086008
:102E900013E00020FA4908614862084600680121F1
:102EA0000843F749086000BFF54800690028FBD0D7
:102EB000F2480068401EF1490860F04800680028A8
:102EC000E7DCEF48006840084000ED490860ED4845
:102ED000006810380300FFF7E1FC0B073F4F5D78F7
:102EE0008694D0DEECFB4C00E748C0692021084303
:102EF000E549C8610846406809158843E2494860C9
:102F000008464068000A00024860084640687C2184
:102F10000843DD49486001204004DC490860022084
:102F2000DB490860D8484068FF2109048843D64936
:102F3000486008464068D54909680843D249486056
:102F40000846406849140843CF494860CD480068A6
:102F5000401CCC49086000BF0020CB498862C948AA
:102F60000068401CC7490860C9480068401EC8493D
:102F70000860CEE042E1CDE00120C3498862C1484B
:102F80000068401CBF490860C1480068401EC04935
:102F90000860BEE0BC48806920210840002813D0AA
:102FA0000220BB490860B848C06920210843B649DF
:102FB000C8610846406849140843B3494860B148AD
:102FC0000068401CAF490860A3E00020AE49886259
:102FD000AC480068401CAB490860AD480068401E22
:102FE000AB49086095E00220A7498862A5480068BF
:102FF000401CA4490860A6480068401EA449086017
:1030000087E0A148C069202108439F49C86108465C
:103010004068091588439C49486008464068000A92
:1030200000024860084640687C2108439649486091
:1030300098480088C01C00049449086095480068BE
:10304000C01C9349086090484068FF2109048843E8
:103050008D494860084640688C49096808438A4998
:1030600048600846406849140843874948608548D5
:103070000068401C834908604BE0802082498862D8
:1030800080480068401C7F49086081480068401EF5
:103090007F4908603DE080207B498862794800686C
:1030A000401C784908607A480068401E78490860EA
:1030B0002FE040207449886272480068401C7149C2
:1030C000086073480068401E7149086021E0FFE70E
:1030D000714800686F490968884211DA6F480068D2
:1030E0006D490968405C684988626B480068401C0B
:1030F0006949086066480068401E6549086007E045
:1031000060480068401C5F49086001205A49086017
:1031100000BFF0E3584800680028FAD06048006813
:1031200001283ED15F4800685F490968884234D071
:103130005C480068002806D001280BD0022810D077
:1031400003281CD114E0594854490860082051490B
:10315000086014E05648514908600B204D4908604A
:103160000DE054484D4908600A204A49086006E0CD
:1031700051484A4908600C204649086000BF00BF1A
:1031800000204549086010203E49086000203A4967
:1031900008604448006844490860002040490860CD
:1031A000B7E73F4800680028B3D1374800680421DA
:1031B000884335490860084600680221884332493F
:1031C0000860084640680121490688432E49486046
:1031D00008460068202188432B490860374840682A
:1031E00004210843354948600846806804210843A3
:1031F0003249886001202A4908608AE71D48006832
:1032000001287DD12E4800680028FAD11D480068A9
:1032100010380300FFF742FB10096A7A88A2B0BE9B
:10322000FEFDFCFBFAF9F8F7F6791748C069202192
:1032300008431549C8610846406809158843124982
:10324000486008464068000A000248600846406836
:103250007C2108430C494860012040040B49086068
:1032600002200B49086008484068FF210904884390
:10327000054927E098000020AC000020B0000020A5
:10328000001400408C00002000540040800000200A
:10329000F40000206C00002090000020600000205E
:1032A000A8000020A0000020A4000020B4000020FE
:1032B000BC000020C7000020D100002000240140F5
:1032C0009C000020486008464068FE4909680843A1
:1032D000FD4948600846406849140843FA49486077
:1032E000FA480068401CF949086000BF0020F64910
:1032F0008862F6480068401CF4490860F44800E021
:10330000FAE10068401EF2490860DAE10120EE4966
:103310008862EE480068401CEC490860EC48006890
:10332000401EEB490860CCE1E74880692021084055
:10333000002812D0E448C0690843E349C861084640
:10334000406849140843E04948600220E0490860A9
:10335000DE480068401CDD490860B2E10020DA491F
:103360008862DA480068401CD8490860D84800687C
:10337000401ED7490860A4E10220D3498862D3489F
:103380000068401CD1490860D1480068401ED049FF
:10339000086096E1CC48C06920210843CA49C86149
:1033A0000846406809158843C74948600846406890
:1033B000000A00024860084640687C210843C24970
:1033C0004860C4480088C01C0004BE490860C14869
:1033D0000068C01CBE490860BB484068FF21090462
:1033E0008843B949486008464068B64909680843B7
:1033F000B54948600846406849140843B2494860E6
:10340000B24808E0C3E0B4E0A5E096E059E031E05E
:1034100022E013E004E00068401CAC49086050E181
:103420008020A9498862A9480068401CA749086013
:10343000A7480068401EA649086042E18020A249D2
:103440008862A2480068401CA0490860A048006843
:10345000401E9F49086034E140209B4988629C4897
:103460000068401E9A49086098480068401C9749C7
:10347000086026E19848006896490968884211DA90
:103480009648006894490968405C8F498862924870
:103490000068401C904908608D480068401E8C49B7
:1034A00008600DE089480068401C884908600020D9
:1034B000894908608A488949086008208549086068
:1034C000FFE08148C069202108437F49C861084660
:1034D0004068091588437C49486008464068000AEE
:1034E00000024860084640687C21084376494860ED
:1034F00078480088C01C000472490860754800685C
:10350000C01C7349086070484068FF210904884363
:103510006D494860084640686A49096808436A4935
:10352000486008464068491408436749486067484E
:103530000068401C65490860C3E0802062498862D9
:1035400062480068401C6149086061480068401E8C
:103550005F490860B5E0C0205B4988625B4800684D
:10356000401C5A4908605A480068401E5849086083
:10357000A7E040205449886254480068401C5349E1
:10358000086053480068401E5149086099E052485D
:10359000006850490968884211DA504800684E496D
:1035A0000968405C484988624B480068401C4A49A9
:1035B000086047480068401E4549086080E043486D
:1035C0000068401C41490860F520800045490860BA
:1035D00013E0002044490861486208460068012160
:1035E00008434149086000BF3F4800690028FBD0FC
:1035F0003C480068401E3B4908603A480068002883
:10360000E7DC394800684008400037490860FFF7A8
:103610009FF93648006800282DD03548007E3030AC
:10362000344908703248007F303048703048007CA0
:103630003030C8702E48007D303008712C4800783A
:10364000303088712A4800793030C8712848007AB3
:10365000303008722648007B3030487216201B49F3
:10366000086024481D4908600A201A4908600020A3
:103670001E49086008E01A481849086008201549E2
:1036800008601B20114908601948008C303014492B
:1036900008701748808C303048701548008D3030E5
:1036A000C8701348808D303008711148008E30305A
:1036B00088710F48808E3030C8710020064908603C
:1036C00000BF26E580000020005400408C00002050
:1036D000F40000206C00002090000020600000201A
:1036E0004C000020B00000200014004064000020C6
:1036F0000000002054000020FD48006801287DD112
:10370000FC4800680128FAD1FB4800681038030023
:10371000FFF7C4F80F09414F5D7A8896CBDBF2EFD3
:10372000EEEDECEB4E00F548C06920210843F3496B
:10373000C8610846406809158843F0494860084652
:103740004068000A00024860084640687C2108433F
:10375000EA49486001204004E94908600220E9493B
:103760000860E6484068FF2109048843E34948604F
:1037700008464068E24909680843E049486008464D
:10378000406849140843DD494860DB480068401C34
:10379000D949086000BF0020D8498862D64800682F
:1037A000401CD5490860D7480068401ED5490860CC
:1037B0006AE10120D1498862CF480068401CCE49A7
:1037C0000860D0480068401ECE4908605CE1CB48E4
:1037D000806920210840002815D0C848C0690843E6
:1037E000C649C8610220C7490860C4484068012131
:1037F00049030843C1494860BF4800E045E100680B
:10380000401CBD4908603FE10020BC498862BA48BD
:103810000068401CB8490860BA480068401EB949B1
:10382000086031E10220B5498862B3480068401C55
:10383000B1490860B3480068401EB249086023E1FE
:10384000AE48C06920210843AC49C86108464068B9
:10385000000A000248600846406890210843A749D2
:10386000486001204004A6490860A4484068FF2140
:1038700009048843A149486008464068A04909688E
:1038800008439E49486008464068091508439B491B
:10389000486008464068491408439849486096487B
:1038A0000068401C94490860EEE094488069042157
:1038B0000840002808D09148406A934908608E4823
:1038C0000068401C8C490860DEE08C488069042157
:1038D0000840002808D08948406A8C49086086481A
:1038E0000068401C84490860CEE0AFE0A0E091E0B1
:1038F00082E045E000E03BE2834800680002824944
:103900000860084600688149096840184003000CB7
:103910007F490880A0217E480088FCF7FFFB3030FB
:103920007C494871A0217A480088FCF7F7FB0C46D7
:103930000A2161430846A021FCF7F0FB30307549AD
:1039400088710A2161430846A021FCF7D1FB0C468F
:103950000A2161430846A021FCF7E0FB30306D49A5
:10396000087208466C49086009206C49086000200C
:103970006B49086060480068401C5F49086083E04C
:103980005E48C069202108435C49C8610846406818
:10399000091588435949486008464068000A0002F2
:1039A0004860084640687C210843544948605B48A9
:1039B0000088C01C00045249086058480068C01CB8
:1039C000504908604D484068FF21090488434B492D
:1039D0004860084640684A490968084347494860C2
:1039E0000846406849140843444948604248006812
:1039F000401C4149086047E08020404988623E48B9
:103A00000068401C3C4908603E480068401E3D4933
:103A1000086039E080203949886237480068401CD6
:103A20003549086037480068401E364908602BE079
:103A300040203249886230480068401C2E490860A6
:103A400030480068401E2F4908601DE03448006877
:103A500032490968884211DA2F48006830490968FC
:103A6000405C264988622E480068401C2C4908604A
:103A700024480068401E2349086004E01E4800688E
:103A8000401C1D49086000BF2EE21948006801284B
:103A90007ED1184800680328FAD12248006800281F
:103AA00077D10A202049086013E000201F490861EF
:103AB000486208460068012108431C49086000BFAD
:103AC0001A4800690028FBD017480068401E1649B4
:103AD0000860154800680028E7DC144800684008C2
:103AE00040001249086004480068103820E00000D7
:103AF000980000209C0000208C0000200054004012
:103B000080000020F4000020EC000020F0000020E5
:103B1000EA000020DD000020600000206C00002092
:103B200090000020AC000020B000002000140040F5
:103B30000300FEF7B3FE0B0742505E798795D1DF95
:103B4000EDFC4F00E948C06920210843E749C861FE
:103B50000846406809158843E449486008464068BB
:103B6000000A00024860084640687C210843DF499B
:103B7000486001204004DE4908600220DD490860F9
:103B8000DA484068FF2109048843D849486001E0C9
:103B900097E1EEE008464068D54909680843D349F3
:103BA00048600846406849140843D0494860D248F4
:103BB0000068401CD049086000BF0020CB498862E3
:103BC000CD480068401CCC490860CA480068401EC7
:103BD000C8490860CCE00120C4498862C648006832
:103BE000401CC5490860C3480068401EC1490860C0
:103BF000BEE0BE48806920210840002813D0022082
:103C0000BC490860B948C06920210843B749C86168
:103C10000846406849140843B4494860B6480068FB
:103C2000401CB5490860A3E00020B0498862B24852
:103C30000068401CB0490860AE480068401EAD49AD
:103C4000086095E00220A9498862AB480068401CE2
:103C5000A9490860A7480068401EA649086087E097
:103C6000A248C06920210843A049C86108464068AD
:103C7000091588439D49486008464068000A0002CB
:103C80004860084640687C210843984948609B4842
:103C90000088C01C00049649086098480068C01C51
:103CA0009449086091484068FF21090488438F497E
:103CB0004860084640688E49096808438B49486057
:103CC0000846406849140843884948608A480068A3
:103CD000401C894908604BE08020844988628648FE
:103CE0000068401C8449086082480068401E814981
:103CF00008603DE080207D4988627F480068401C64
:103D00007D4908607B480068401E7A4908602FE0C2
:103D100040207649886278480068401C76490860EF
:103D200074480068401E7349086021E0FFE774484A
:103D3000006872490968884211DA7248006870495F
:103D40000968405C694988626D480068401C6C499C
:103D5000086068480068401E6649086007E06648D9
:103D60000068401C6449086001206749086000BF82
:103D7000BAE065480068002874D0644800680128EB
:103D800072D16348006863490968884267D0604817
:103D900000680300FEF782FD0A060D151D252D356E
:103DA0003D454D555C48574908600120534908601E
:103DB00047E05948401C5349086001204F490860BA
:103DC0003FE05548801C4F49086001204B4908607E
:103DD00037E05148C01C4B49086001204749086042
:103DE0002FE04D48001D4749086001204349086005
:103DF00027E04948401D4349086001203F490860C9
:103E00001FE04548801D3F49086001203B4908608C
:103E100017E04148C01D3B49086001203749086050
:103E20000FE03D48083037490860012033490860F9
:103E300007E0394809303349086001202F490860FC
:103E400000BF00BF00202E49086010202A490860EA
:103E500000202D4908602E4800682E490860002087
:103E60002A49086040E0FFE72848006800283BD165
:103E70001E480068042188431C4908600846006801
:103E80000221884319490860084640680121490613
:103E90008843164948600846006820218843134932
:103EA00008601E484068042108431C4948600846D1
:103EB000806804210843194988600120134908607B
:103EC00012E01748006814280ED10A48006800283C
:103ED00008DDC0200549886206480068401E054983
:103EE000086001E0FCF704FA10BD00000054004037
:103EF00080000020F40000208C0000206C000020D6
:103F00009000002060000020AC000020A8000020ED
:103F1000F8000020FC0000200401002000240140E3
:103F20009C000020000000000000000001020304CB
:103F30000607080900000000010203045C3F0008B6
:103F40000000002020010000302900087C4000080B
:103F500020010020D00400004029000802000000D9
:103F60000000000001000000090000000100000046
:103F7000010000000200000003000000010000003A
:103F8000090000000200000008000000000000001E
:103F90000000000000000000000000000000000021
:103FA00000000000000000002E2E3A2E2E3A2E2E89
:103FB0002E2E2F2E2E2F2E2E2E2E00000000000033
:103FC0000000000000000000000000000038003980
:103FD000001400740054006F000F00010000020084
:103FE00000000000000000000000000000000000D1
:103FF00001000000010000000000000000000000BF
:1040000000000000000000000000000000000000B0
:104010004F726F6C6F67696F54656D706572617414
:1040200075726143726F6E6F6D6574726F496D70FA
:104030006F7374617A696F6E6954656D703A2E2E74
:104040002E2E000100020000000000000000000011
:104050000000000000000000000000000000000060
:104060003031323334353637383900000000000043
:0C407000040000000100000000127A00B3
:04000005080000C12E
:00000001FF
