:020000040800F2
:10000000C8080020D5000008CD1F00080B1E0008FE
:1000100000000000000000000000000000000000E0
:10002000000000000000000000000000D11F0008D8
:100030000000000000000000CF1F0008D31F0008D0
:10004000E7000008E7000008E7000008E7000008F4
:10005000E7000008E7000008E7000008E7000008E4
:10006000E7000008E7000008E7000008E7000008D4
:1000700031020008E7000008E7000008E700000878
:10008000E7000008E700000855200008E700000826
:10009000E7000008E7000008E7000008E7000008A4
:1000A000E7000008E7000008E7000008E700000894
:1000B00059260008E7000008E7000008E7000008EC
:1000C0000348854600F0A2F8004800478929000847
:1000D000C80800200448804704480047FEE7FEE7C0
:1000E000FEE7FEE7FEE7FEE751200008C10000083A
:1000F00030B50B46014600202022012409E00D46C0
:10010000D5409D4205D31D469540491B2546954047
:1001100040191546521E002DF1DC30BD70B500248B
:100120002546002801DA01244042002901DA012590
:100130004942FFF7DDFFAC4200D04042002C00D026
:10014000494270BDF0B51FB40646002082B0054696
:100150004024019100901BE0019922460F46304651
:1001600000F020F8049A059B801A994110D310469C
:100170001946224600F039F8361A8F410197224677
:1001800001200021009F00F030F838184D41009008
:100190002046641E0028DFDC019B00982946324679
:1001A00007B0F0BD10B5202A04DB0846203AD04045
:1001B000002110BD0B46D340D0402024A21A91400C
:1001C0000843194610BDD2B201E00270401C491E1E
:1001D000FBD270470022F6E710B513460A460446E4
:1001E0001946FFF7F0FF204610BD10B5202A04DBAA
:1001F0000146203A9140002010BD914020239C1AD6
:100200000346E3401943904010BD0000064C012511
:10021000064E05E0E36807CC2B430C3C98471034AE
:10022000B442F7D3FFF750FF7C2C00089C2C000849
:1002300010B550480068C007C00F00280BD04D48CB
:100240000068012108434B49086008468068042182
:10025000084348498860474800680421084004284A
:1002600075D14448806AC007C00F002857D0414864
:10027000403004684048006800284CD13F4800687E
:10028000002835D13E48006880003E490C503E4869
:100290000068401E3A490968884206D10020384962
:1002A00008600120394908600DE035480068401CAD
:1002B0003349086035480068002804D03348006896
:1002C000401C324908603248006884423FD901200E
:1002D0002A4908602D480068002804D12848006891
:1002E0002C49086033E0284800682A4908602EE05D
:1002F0002848006864280ADA2648006880002149F6
:100300000C5024480068401C224908601FE001206E
:100310002149086010BD00201749086017E0154802
:10032000403000681D4908601248806A0121490474
:100330008843104988620846806A012108430D49B4
:10034000886208468068042108430A498860144886
:1003500000684008400012490860002048620846D2
:100360000068012108430E4908600E4800F0F6F8C5
:1003700000BFCFE70024014054000020040000200B
:100380000800002068000020000000200C00002071
:10039000100000201C00002020000020440000204D
:1003A000002C01408803002070470000F8B5044687
:1003B0000D4600260020009001210907E06A8842CE
:1003C00015D0E06A012812D0E06A02280FD0E06A56
:1003D00003280CD0E06A042809D0E06A052806D07A
:1003E000E06A062803D0E06A072800D000BF00BFFB
:1003F0003420005D012801D10220F8BD0121342004
:10040000015500BF2068806804210840800800284A
:100410007ED14D496868884264D02068806A2A7815
:100420000121914008432168886201210907E06A9F
:10043000884229D0E06A012826D0E06A022823D029
:10044000E06A032820D0E06A04281DD0E06A05286D
:100450001AD0E06A062817D0E06A072814D0A868E6
:10046000216849694907490F88420DD020684069D1
:10047000C008C0002168486120684069297A49079E
:10048000490F0843216848612868102805D028686A
:10049000112802D0286812284FD12C48806829687A
:1004A000102901D1C90407E02968112902D10121CD
:1004B000890501E00121090608432449886028686C
:1004C00010283AD1224923480068FFF711FE0A217B
:1004D0004843009002E00098401E009000980028D9
:1004E000F9D12AE02068816A2A780120904081436E
:1004F000206881622868102805D02868112802D059
:100500002868122819D1114880682968102900E04C
:100510000EE001D1C90407E02968112902D10121A7
:10052000890501E00121090688430849886004E043
:10053000A06B20210843A063012600BF00213420C6
:10054000015500BF304658E7011000000027014068
:1005500040420F00640000207047704710B5044609
:100560002068006804210840042804D120684068FD
:10057000084004280AD0206800680821084008289C
:1005800040D120684068084008283BD1A06B10216A
:100590000840002803D1A06B49010843A0632068EC
:1005A000C068032189020840002825D1A07E0028C8
:1005B00022D1206800680821084008281CD1206842
:1005C000806804210840800800280DD12068406818
:1005D0000C21884321684860A06BFF2101318843CA
:1005E00001210843A06307E0A06B20210843A0631A
:1005F000E06B01210843E0632046FFF7ADFF0C20CC
:1006000021680860206800688021084080280ED199
:10061000206840680840802809D1A06B490208433F
:10062000A063204600F008F9802021680860206857
:1006300000681021084010281AD12068406808403E
:10064000102815D1A06A012805D02068C068C0070D
:10065000C00F002809D0E06B02210843E06310209E
:10066000216808602046FFF778FF102021680860A5
:1006700010BD000070B5044600260025002C01D1F5
:10068000012070BDA06B002806D1E063002134205A
:100690000155204600F0D2F8A06B10210840002838
:1006A0007ED1002EFCD1206880680421084080089B
:1006B0000028F5D1A06B8901884302210843A0637B
:1006C000206880688007800F01280DD120680068AD
:1006D000C007C00F002805D12068C0688903084002
:1006E000884201D1012000E0002000280FD12068BD
:1006F000C06818218843A16808432168C860206841
:1007000000698000800861680843216808612068EA
:10071000C068474908402168C860207E8003617E28
:10072000C9030843A17E49030843A16A012902D0F5
:100730000121090300E000210843E1680843216921
:10074000022901D1042100E0002108432421095D90
:10075000490008430543E07E01280ED1A07E002811
:1007600003D101200004054307E0A06B20210843CA
:10077000A063E06B01210843E063FF21C231E0691F
:10078000884203D0216AE069084305432068C068B5
:1007900028432168C86001210907E06A884200E017
:1007A0003EE014D0E06A012811D0E06A02280ED0A1
:1007B000E06A03280BD0E06A042808D0E06A052824
:1007C00005D0E06A062802D0E06A07280DD120682B
:1007D0004069C008C0002168486120684069A18D57
:1007E0004907490F0843216848612068C0681149DA
:1007F0000840A84208D10020E063A06B0221884392
:1008000001210843A06310E0A06B0221884310215E
:100810000843A063E06B01210843E063012604E084
:10082000A06B10210843A0630126304629E7000091
:100830001902FEFFE7FF3F837047000010B586B046
:100840000446142101A8FFF7C5FC1B492068884213
:100850002FD100BF1948806949150843174988619D
:100860000846806949150840009000BF00BF00BFDE
:100870001248406909020843104948610846406926
:10088000012149040840009000BF00BF01200190F1
:10089000032002900020039001A90920C00600F067
:1008A0003BF8002211460C2000F0ACF90C2000F0BF
:1008B0009BF906B010BD000000240140001002406A
:1008C00070B5044600252120005D022803D00420D5
:1008D000A06301251EE0206800680E21884321687E
:1008E0000860206800684008400021680860012016
:1008F000216C8840E16B486001212120015500BF37
:1009000000212020015500BF606B002802D0204646
:10091000616B8847284670BD78B503460022E2E047
:10092000012696400C683440002C7DD04D68022D85
:1009300002D04D68122D15D1D508AE001D462035C8
:10094000A8595507EE0E0F25B5400646AE43304672
:100950005607F60E0D69B5402843D508AD001E4672
:1009600020367051186856000325B5400646AE4340
:1009700030460D79AD07AD0F5600B54028431860DD
:100980004D68012D08D04D68022D05D04D68112D00
:1009900002D04D68122D18D1986856000325B54035
:1009A0000646AE4330465600CD68B54028439860B1
:1009B0005868012595400646AE43304610264D68DE
:1009C00035402D09954028435860D86856000325C6
:1009D000B5400646AE43304656008D68B5402843C4
:1009E000D860012636074D683540B5427AD100BF40
:1009F000404DAD69012635433E4EB5613546AD6982
:100A0000ED07ED0F009500BF00BF3B4D9608B60007
:100A1000A85995072E0F0F25B5400646AE43304620
:100A20000925ED06AB4200E05CE001D1002514E0B1
:100A3000324DAB4201D101250FE0314DAB4201D126
:100A400002250AE02F4DAB4201D1032505E02E4DD2
:100A5000AB4201D1042500E005259607360FB540CD
:100A60002843254D9608B600A851284D286805460C
:100A7000A5432846012636044D683540B54202D1CB
:100A8000054625432846214D286068680546A5434C
:100A90002846012676044D683540B54202D1054608
:100AA00025432846194D6860A8680546A543284691
:100AB000012636054D683540B54202D1054625432D
:100AC0002846124DA860E8680546A5432846012639
:100AD00076054D683540B54202D105462543284686
:100AE0000A4DE860521C0D68D540002D00D017E774
:100AF00078BD0000001002400800014000040048DA
:100B000000080048000C00480010004800040140A4
:100B10000148006870470000580000200348006842
:100B200003490978401801490860704758000020BF
:100B30006000002010B506480068102108430449F1
:100B40000860002000F006F800F02EF8002010BD2C
:100B50000020024070B50446104801787D20C00096
:100B6000FFF7C6FA064631460D480068FFF7C0FA9F
:100B7000054600F09FFD002801D0012070BD042C27
:100B800007D200222146501E00F03CF805480460C0
:100B900001E00120F2E70020F0E700006000002003
:100BA000640000205C00002008B500BF0D4880698B
:100BB000012108430B49886108468069C007C00FBE
:100BC000009000BF00BF00BF0846C0690904084389
:100BD0000449C8610846C06909040840009000BF84
:100BE00000BF08BD001002400146002905DBCB060E
:100BF000DB0E01229A40024B1A6000BF70470000D2
:100C000000E100E070B504460D4616462946204630
:100C100001F06EFE70BD0000F8B504460026002508
:100C2000012109042068084088427AD100276048E1
:100C3000C0690903084000280DD100BF5C48C069A5
:100C400008435B49C8610846C06909040840009030
:100C500000BF00BF012757480068FF21013108404D
:100C6000002816D153480068084352490860FFF72E
:100C70004FFF064606E0FFF74BFF801B642801D9B3
:100C80000320F8BD4B480068FF21013108400028CF
:100C9000F1D04748006A0321090208400546002DAB
:100CA0002DD060680840A84229D04148006A884396
:100CB00005463F48006A0121090408433C4908628F
:100CC0000846006A01210904884339490862084638
:100CD0000562E807C00F002811D0FFF719FF06468C
:100CE00007E0FFF715FF801B3349884201D9032035
:100CF000C7E72F48006A022108400028F1D02C489D
:100D0000006A032109028843616808432849086290
:100D1000012F05D10846C069090488432449C861E8
:100D200000BF2078C007C00F002807D02048006B04
:100D300080088000A16808431D49086302212068DB
:100D40000840022808D11A48006B0321090488438F
:100D5000E1680843164908632021206808402028DC
:100D600007D11348006B10218843216908431049BB
:100D700008630121490420680840884207D10C48D3
:100D8000006B80218843A169084309490863012158
:100D9000890220680840884207D10548006B40213D
:100DA00088436169084302490863002069E700003D
:100DB00000100240007000408813000070B5044627
:100DC0000D46002C01D1012070BD58480068C007B5
:100DD000C00FA8420ED25548006840084000284382
:100DE0005249086008460068C007C00FA84201D0F9
:100DF0000120E9E7022120680840022814D10421DB
:100E000020680840042807D14948406807210902A2
:100E1000884340184649486045484068F021884367
:100E2000A1680843424948602078C007C00F0028E5
:100E300047D06068012808D13D4800680121490475
:100E40000840002821D10120BEE76068022808D1AF
:100E500037480068012149060840002815D10120C3
:100E6000B2E76068032808D13148406B01210904CA
:100E70000840002809D10120A6E72D48006802217A
:100E80000840002801D101209EE7294840688008D9
:100E900080006168084326494860FFF739FE06462E
:100EA00007E0FFF735FE801B2249884201D9032065
:100EB0008AE71F4840680C21084061688900884221
:100EC000EFD11A480068C007C00FA8420ED91748D2
:100ED000006840084000284314490860084600683C
:100EE000C007C00FA84201D001206DE7042120688F
:100EF0000840042808D10E484068072109028843A9
:100F0000E16808430A49486000F032F80849496836
:100F1000F02211400909084A515CC840074908609D
:100F20000020FFF717FE00204EE7000000200240DF
:100F30000010024088130000642C000864000020A8
:100F400001480068704700006400002000B5FFF70A
:100F5000F7FF05494968072212021140090A034AAE
:100F6000515CC84000BD000000100240742C000815
:100F7000F0B589B035A001460EC9C06805AC0EC4F5
:100F8000089036A001460EC9C06801AC0EC404909A
:100F900000250024002700260020009033484568E3
:100FA0000C202840002849D0042804D0082805D067
:100FB0000C2842D13EE02E48009042E00F208004F1
:100FC0002840800C05A90E5C2848C06A0007000F65
:100FD00001A90C5C0320C0032840012109048842B8
:100FE0000AD12246002322481946FFF7ABF83146C2
:100FF00001F066FC07461BE00320C00328400321E4
:10100000C90388420AD1224600231A481946FFF72D
:1010100099F8314601F054FC074609E022460023C6
:1010200013481946FFF78EF8314601F049FC074690
:10103000009706E00F48009003E000BF0C480090C6
:1010400000BF00BF009809B0F0BD00000203040516
:10105000060708090A0B0C0D0E0F101001020304FD
:1010600005060708090A0B0C0D0E0F1000100240B0
:1010700000127A00006CDC02FEB50446002C01D19F
:101080000120FEBD2078C007C00F002872D0FC48A8
:1010900040680C21084004280CD0F94840680840FA
:1010A000082813D1F6484068490308400121090483
:1010B00088420BD1F2480068012149040840002809
:1010C0006BD06068002868D10120DAE700BF606853
:1010D000012807D1EA480068012109040843E849CA
:1010E000086031E0606800280ED1E5480068012101
:1010F00009048843E2490860084600680121890420
:101100008843DF4908601FE0606805280ED1DC488D
:101110000068012189040843D9490860084600682D
:10112000012109040843D64908600DE0D44800684D
:10113000012109048843D24908600846006801215A
:1011400089048843CE49086000BF6068002812D037
:10115000FFF7DEFC054606E0FFF7DAFC401B6428DB
:1011600001D903208DE7C6480068012149040840E1
:101170000028F1D011E0FFF7CBFC054606E0FFF7B1
:10118000C7FC401B642801D903207AE7BC480068EB
:101190000121490408400028F1D1022120680840BB
:1011A000022862D1B64840680C21084000280CD0C3
:1011B000B3484068084008281CD1B148406849033A
:1011C00008400121C903884214D1AD4800680221BA
:1011D0000840002804D0E068012801D0012050E731
:1011E000A7480068F82188432169C9000843A44939
:1011F00008603AE0E068002820D0A148006801219A
:1012000008439F490860FFF783FC054606E0FFF7A7
:101210007FFC401B022801D9032032E79848006870
:10122000022108400028F2D095480068F821884340
:101230002169C90008439249086016E09048006897
:10124000400840008E490860FFF762FC054606E052
:10125000FFF75EFC401B022801D9032011E78848F4
:101260000068022108400028F2D1082120680840C7
:10127000082831D1E069002817D08148406A01214F
:1012800008437F494862FFF743FC054606E0FFF745
:101290003FFC401B022801D90320F2E67848406A4F
:1012A000022108400028F2D016E07548406A400844
:1012B000400073494862FFF72BFC054606E0FFF744
:1012C00027FC401B022801D90320DAE66C48406A5B
:1012D000022108400028F2D1042120680840042897
:1012E00072D1002001906648C06989060840002834
:1012F0000ED100BF6248C06908436149C861084611
:10130000C06909040840009000BF00BF012001909F
:101310005C480068FF2101310840002816D1594877
:101320000068084357490860FFF7F2FB054606E0EE
:10133000FFF7EEFB401B642801D90320A1E65148CA
:101340000068FF21013108400028F1D000BFA068EB
:10135000012806D14A48006A012108434849086229
:101360002AE0A06800280BD14548006A41084900DE
:1013700043480162006A04218843414908621BE036
:10138000A06805280CD13E48006A042108433C4966
:1013900008620846006A01210843394908620BE0E7
:1013A0003748006A40084000354908620846006A2C
:1013B000042188433249086200BFA068002813D086
:1013C000FFF7A6FB054608E02BE0FFF7A1FB401B5B
:1013D0002D49884201D9032053E62948006A022199
:1013E00008400028F1D011E0FFF792FB054607E026
:1013F000FFF78EFB411B2448814201D9032040E6C0
:101400001F48006A022108400028F1D101980128F4
:1014100006D11B48C0690121090788431849C861E2
:1014200000BF10212068084010285FD160690128A2
:101430002CD11348406B04210843114948630846E6
:10144000406B012108430E494863FFF761FB0546E5
:1014500006E0FFF75DFB401B022801D9032010E6E0
:101460000748406B022108400028F2D00448406B36
:10147000F8218843A169C90008430149486335E060
:101480000010024000700040881300006069401D99
:1014900000280FD18648406B042188438449486363
:1014A0000846406BF8218843A169C9000843804978
:1014B00048631BE07E48406B042108437C49486335
:1014C0000846406B400840004863FFF721FB054693
:1014D00006E0FFF71DFB401B022801D90320D0E5E1
:1014E0007348406B022108400028F2D12021206877
:1014F0000840202852D16E4840680C2108400C2832
:101500000AD06B4840680840082811D168484068F4
:101510004903084088420BD16548406B012109040A
:10152000084000283AD0206A012837D00120A8E5D9
:10153000206A002819D05E48406B01210904084345
:101540005B494863FFF7E4FA054606E0FFF7E0FA77
:10155000401B022801D9032093E55548406B012127
:10156000090408400028F1D018E05148406B0121DF
:10157000090488434E494863FFF7CAFA054606E066
:10158000FFF7C6FA401B022801D9032079E5484835
:10159000406B0121090408400028F1D1606A00284D
:1015A0004FD0434840680C210840082864D0606A46
:1015B000022847D13E4800680121090688433C497A
:1015C0000860FFF7A5FA054606E0FFF7A1FA401B01
:1015D000022801D9032054E5354800680121490655
:1015E00008400028F1D100BF3148C06A000900015D
:1015F000216B08432E49C862A16AE06A08432C495E
:1016000049687B22D203914308432949486000BFBF
:101610000846006801210906084325490860FFF7CC
:1016200077FA054606E0FFF773FA401B022801D956
:10163000032026E51E4800680121490608400028CD
:10164000F1D033E01A48006801210906884318499F
:101650000860FFF75DFA054606E0FFF759FA401B00
:10166000022801D903200CE5114800680121490630
:1016700008400028F1D119E0606A012800D100E596
:101680000B484668C76A0320C0033040A16A8842FD
:101690000AD13907090F206B814205D10F20800440
:1016A0003040E16A884201D00120EAE40020E8E409
:1016B0000010024070B504462546681E094988425C
:1016C00001D901200CE0681E074948610321081F69
:1016D00001F00EF90020044988610720086100200C
:1016E00070BD0000FFFFFF0000E000E070477047A2
:1016F00030B502460B4600BF3C20805C012801D17A
:10170000022030BD01253C20855400BF02253D202C
:101710008554106844681068816870252046A84385
:1017200004461868044310684460114D1068A842CC
:101730000CD00125AD071068A84207D00D4D1068E8
:10174000A84203D00C4D1068A84207D18025084656
:10175000A8430146586801431068816001253D2077
:10176000855400BF00253C20855400BF0020C8E7F9
:10177000002C0140000400400040014010B5044628
:10178000002C01D1012010BD3D20005D002805D1B5
:1017900000213C200155204600F00CF802213D209C
:1017A0000155211D206800F05DFC01213D200155FF
:1017B0000020E8E738B504461649206888420DD174
:1017C00000BF15488069C914084313498861084659
:1017D0008069C9140840009000BF19E00F492068D3
:1017E000884215D100BF0C48C069202108430A492E
:1017F000C8610846C06920210840009000BF00BFB2
:10180000002211461220FFF7FDF91220FFF7ECF934
:1018100038BD0000002C01400010024000140040C0
:10182000F8B504460D4600BF3C20005D012801D1FB
:101830000220F8BD01213C20015500BF02213D20BE
:101840000155206886687721304688430646FF2187
:10185000090230468843064620688660286850287A
:1018600034D00CDC202851D004DC00284CD01028C7
:1018700052D14AE030284AD040284DD13AE0602881
:101880002ED0702807D001210903401A02D0401A37
:1018900042D10DE041E0EB686A68A968206800F079
:1018A00039FC20688668772006432068866034E02B
:1018B000EB686A68A968206800F02CFC20688068E2
:1018C0000121890308432168886026E0EA68696885
:1018D000206800F039FC5021206800F029FC1CE051
:1018E000EA686968206800F048FC6021206800F020
:1018F0001FFC12E0EA686968206800F025FC4021BE
:10190000206800F015FC08E000BF00BF00BF296898
:10191000206800F00DFC00E000BF00BF01213D2069
:10192000015500BF00213C20015500BF002080E789
:10193000704710B50446206800690221084040083D
:1019400000281CD02068C06808404008002816D035
:10195000481F21680861012020772068806980077E
:10196000800F002803D02046FFF7E2FF05E0204665
:1019700000F0C3F8204600F0C1F80020207720686E
:10198000006904210840800800281DD02068C06834
:1019900008408008002817D0C84321680861022049
:1019A000207720688069032109020840002803D0BD
:1019B0002046FFF7BDFF05E0204600F09EF82046D8
:1019C00000F09CF80020207720680069082108407A
:1019D000C00800281CD02068C0680840C008002843
:1019E00016D0C84321680861042020772068C069A8
:1019F0008007800F002803D02046FFF799FF05E0FD
:101A0000204600F07AF8204600F078F80020207791
:101A10002068006910210840000900281DD02068B6
:101A2000C06808400009002817D0C8432168086131
:101A3000082020772068C069032109020840002897
:101A400003D02046FFF774FF05E0204600F055F86C
:101A5000204600F053F80020207720680069C00776
:101A6000C00F01214840484000280CD02068C068C1
:101A7000084048404840002805D0C81E2168086139
:101A8000204600F03CF82068006980210840C00929
:101A900000280BD02068C0680840C009002805D085
:101AA000C843216808612046FFF720FE20680069CE
:101AB00040210840800900280BD02068C0680840F9
:101AC0008009002805D0C84321680861204600F03D
:101AD00017F82068006920210840400900280BD031
:101AE0002068C06808404009002805D0C843216824
:101AF00008612046FFF7FBFD10BD70477047704737
:101B00007047704770470000FEB504462068C569FD
:101B10002068066820688768764828400190019808
:101B200000280ED12020284000280AD02020304054
:101B3000002806D0206E002802D02046216E88475B
:101B4000FEBD019800287DD0F807C00F002804D101
:101B5000FF20213030400028F5D0E807C00F0028D2
:101B60000BD0FF2001303040002806D00120216832
:101B70000862E06F01210843E06702202840002846
:101B80000AD0F807C00F002806D00220216808629A
:101B9000E06F04210843E0670420284000280AD0B1
:101BA000F807C00F002806D0042021680862E06F03
:101BB00002210843E0670820284000280ED020209A
:101BC0003040002803D1F807C00F002806D00820B5
:101BD00021680862E06F08210843E0670120C00225
:101BE000284000280CD0012080063040002807D073
:101BF0000120C00221680862E06F20210843E067ED
:101C0000E06F002846D020202840002809D020205E
:101C10003040002805D0206E002802D02046216EDA
:101C20008847E06F00902068806840210840402885
:101C300004D0282100980840002826D0204600F033
:101C400071FB00E027E020688068402108404028C0
:101C500017D120688068884321688860E06E00287A
:101C60000BD02548E16E4863E06EFEF729FE0028A0
:101C700010D0E06E416B88470CE02046FFF742FF32
:101C800008E02046FFF73EFF04E02046FFF73AFF5A
:101C90000020E06754E701200005284000280CD010
:101CA000012080053840002807D001200005216868
:101CB00008622046FFF725FF42E7802028400028E1
:101CC0000AD080203040002806D0606E002802D064
:101CD0002046616E884733E740202840002807D01F
:101CE00040203040002803D0204600F02DFB27E79D
:101CF00000BF25E70F0800000D23000810B50446BB
:101D0000002C01D1012010BDA069002800D000E006
:101D100000BF606F002805D10021702001552046CA
:101D200000F02CF82420606720680068400840001C
:101D300021680860204600F017FB012800D1E2E787
:101D4000606A002802D0204600F030FA206840681F
:101D50000921C902884321684860206880682A21D7
:101D60008843216888602068006801210843216851
:101D70000860204600F092FAC5E7000010B586B072
:101D80000446142101A8FEF725FA1D49206888425F
:101D900034D100BF1B48C0690121490408431949D7
:101DA000C8610846C069012149040840009000BF8D
:101DB00000BF00BF13484069084312494861084604
:101DC0004069012149040840009000BF00BF0C2079
:101DD0000190022002900020039003200490012033
:101DE000059001A90920C006FEF796FD00221146C4
:101DF0001C20FEF707FF1C20FEF7F6FE06B010BD04
:101E00000044004000100240704700BFFEE70000A1
:101E10000EB500200090019002901E481E490860F7
:101E20000020486000211C488160C16001210161DF
:101E3000042141610021017641768176C176C1613C
:101E4000012189020162002124300170012124381E
:101E50008162FEF70FFC002801D0FEF7A5FA0020F2
:101E600000900120000301900004029069460A4896
:101E7000FEF79CFA002801D0FEF796FA1120009098
:101E800069460548FEF792FA002801D0FEF78CFA61
:101E90000EBD0000002401408803002008B500BFEB
:101EA000074840690121490408430549486108463B
:101EB0004069012149040840009000BF00BF08BDEF
:101EC0000010024000B587B00020039004900590F8
:101ED000069001900290164816490860002048605C
:101EE0000021144881601449C160002101614161F1
:101EF0008161FFF743FC002801D0FEF755FA01206D
:101F00000003039003A90B48FFF78AFC002801D0C7
:101F1000FEF74AFA102001900020029001A905481E
:101F2000FFF7E6FB002801D0FEF73EFA07B000BD40
:101F3000002C0140C803002080BB00001CB500201D
:101F4000009001900E480F49086001204860002170
:101F50000C4881603021C16000218161FFF70EFCD7
:101F6000002801D0FEF720FA002000900190694679
:101F70000448FFF7BDFB002801D0FEF715FA1CBD91
:101F8000001400400804002010B50E480E490860F7
:101F90004B20C001486000210B488160C160016195
:101FA0000C21416100218161C1610162002006496B
:101FB00048620846FFF7A2FE002801D0FEF7F4F9B8
:101FC00010BD0000004400404804002070477047E6
:101FD000704710B5FEF7A2FD10BD00B599B03421D1
:101FE0000CA8FEF7F7F80020089009900A900B90D3
:101FF0001C2101A8FEF7EEF830200C90012014906F
:10200000119010201290002015900CA8FFF734F8C2
:10201000002801D0FEF7C8F9072008900320099096
:1020200000200A900B90012108A8FEF7C7FE0028A7
:1020300001D0FEF7B9F9022001900020049001A818
:10204000FEF7EAFD002801D0FEF7AEF919B000BD99
:102050007047000010B50248FFF76BFC10BD000090
:102060000804002010B50268244B984206D00123D2
:102070009B07984202D0224B984205D17024134608
:10208000A3431A464B681A431C4B984212D00123B3
:102090009B0798420ED01A4B98420BD0194B98428E
:1020A00008D0194B984205D0184B984202D0184BD3
:1020B000984206D1032424021346A3431A46CB6850
:1020C0001A4380241346A3434C6923431A460260F3
:1020D0008B68C3620B688362084B984208D00A4B36
:1020E000984205D0094B984202D0094B984201D141
:1020F0000B6903630123436110BD0000002C014004
:102100000004004000200040004001400044014025
:102110000048014070B50C468168FF2636020D4626
:10212000B54329461D02154325432943816070BDEF
:1021300010B50A46816870240B46A343194607234D
:1021400013431943816010BD70B50B461446026AF3
:10215000056A6D086D0005628169F0260D46B5437C
:102160002946250129430A261546B5432A46154620
:102170001D432A468161026270BD70B50B4614464C
:10218000056A1026B54305628169026A0F26360387
:102190000D46B543294625032943A0261546B543D8
:1021A0002A461D012A438161026270BD818CC907E4
:1021B000C90F002908D001684968012252049143DF
:1021C000826A1143026851600222416A1140022969
:1021D00007D101684968D2039143C26A114302687A
:1021E00051600422416A1140042907D101684968FD
:1021F00012049143026B1143026851600822416A44
:102200001140082907D10168496812039143426BC4
:102210001143026851601022416A1140102907D110
:102220000168896812029143826B114302689160D0
:102230002022416A1140202907D1016889681202D1
:102240009143C26B1143026891604022416A114080
:10225000402915D10168496892039143026C1143EA
:102260000268516001221205016C914208D1016897
:102270004968032252059143426C11430268516040
:102280008022416A1140802907D101684968120300
:102290009143826C114302685160704738B504461F
:1022A0000020E067FEF734FC05462068006808213E
:1022B000084008280BD114482B46002289040090BE
:1022C000204600F06BF9002801D0032038BD2068BB
:1022D00000680421084004280BD10B482B4600223B
:1022E00009050090204600F059F9002801D003208C
:1022F000ECE720206067A06700BF00217020015537
:1023000000BF0020E2E70000FFFFFF0170B50546B7
:102310006C6A00215A200153522001532046FFF7D6
:10232000F1FB70BD01680968FF2221329143026808
:10233000116001688968490849000268916020219C
:10234000816700210166704710B504462068006867
:102350004021884321680860202060670020606673
:102360002046FFF751FD10BDFEB5044600270020B2
:1023700000902169A068084361690843E169084346
:102380000290206800687C4908400299084321684F
:10239000086020684068032109038843E168084316
:1023A00021684860A0690290206A0299084302905F
:1023B000206880680B21090288430299084321683C
:1023C000886000BF6D492068884217D16C48006B57
:1023D0008007800F002806D0012808D0022808D0E6
:1023E000032808D101E0002507E0022505E00425C7
:1023F00003E0082501E0102500BF2BE061492068BB
:1024000088421AD15E48006B032109040840002865
:1024100008D001210904401A08D0401A08D0401AF7
:1024200008D101E0002507E0022505E0042503E0CE
:10243000082501E0102500BF0CE0534920688842C0
:1024400001D1002506E051492068884201D10025CC
:1024500000E0102500BF0121C903E06988424AD18C
:10246000002D06D0022D10D0042D16D0082D29D114
:102470001FE0FEF76BFD0646720063685B08D0182C
:102480006168FDF735FE87B21FE061684A08404B7E
:10249000D018FDF72DFE87B217E0FEF769FD06465E
:1024A000720063685B08D0186168FDF721FE87B28F
:1024B0000BE061684A0801231B04D018FDF718FEE1
:1024C00087B202E00120009000BF00BF102F0FD3A1
:1024D000304887420CD82F480F38384001903807D1
:1024E000400F01990843019001982168C8603EE0BF
:1024F000012000903BE0002D06D0022D0ED0042DCF
:1025000014D0082D25D11BE0FEF720FD064661689A
:102510004A089019FDF7ECFD87B21DE061684A0892
:102520001D4BD018FDF7E4FD87B215E0FEF720FD46
:10253000064661684A089019FDF7DAFD87B20BE09C
:1025400061684A080123DB03D018FDF7D1FD87B28B
:1025500002E00120009000BF00BF102F05D30D48FE
:10256000874202D82068C76001E001200090002067
:10257000206660660098FEBDF369FFEF00380140F9
:10258000001002400044004000480040004C004061
:102590000024F400FFFF000000127A00FFB581B0B4
:1025A00004460D4617460A9E4AE0701C002847D094
:1025B000FEF7AEFA0499401AB04201D8002E17D1A6
:1025C00020680068FF21A1318843216808602068E5
:1025D0008068400840002168886020206067A0670C
:1025E00000BF00217020015500BF032005B0F0BDE1
:1025F0002068006804210840002821D02068C069B4
:1026000049020840C00A00281AD00846216808621A
:1026100020680068FF21A131884321680860206894
:102620008068400840002168886020206067A067BB
:10263000E06700BF00217020015500BF0320D5E7EF
:102640002068C0692840A84201D1012000E0002094
:10265000B842AAD00020C9E710B58C48C069402113
:102660000840402817D18948006A08438749086212
:1026700087480068401C864908600846006885490C
:102680000968884208DA8448006881490968405C22
:102690007E4920310881F4E080480068801C0028D1
:1026A00064D17E480068401C7C4908607C48006812
:1026B0007C4908607D20C0007B49086008460168AD
:1026C00078480068FDF72AFD303078490870764870
:1026D000016874480068FDF721FD754801600146F6
:1026E00009680A22514308466F490968FDF716FD3B
:1026F00030306E4948706E4909680A2251430846D5
:1027000069490968FDF70AFD6948016001460968E1
:102710000A225143084664490968FDF7FFFC30303E
:1027200062498870624909680A22514308465E4935
:102730000968FDF7F3FC5E480160014609680A225A
:102740005143084658490968FDF7E8FC30305749BD
:10275000C8700846504908600846006800784B4930
:102760002031088100204A4908608AE04B4800680F
:10277000632867DA49480068401C484908600846F1
:10278000006880004B490858464908607D20C00019
:10279000454908600846016842480068FDF7BEFCEC
:1027A000303042490870404801683E480068FDF7F3
:1027B000B5FC3F480160014609680A2251430846BA
:1027C00039490968FDF7AAFC303038494870384962
:1027D00009680A225143084633490968FDF79EFCFF
:1027E00033480160014609680A22514308462E49D0
:1027F0000968FDF793FC30302C4988702C49096832
:102800000A225143084628490968FDF787FC2848F1
:102810000160014609680A225143084622490968B5
:10282000FDF77CFC30302149C87008461A49086021
:1028300008460068007815492031088100201449B5
:1028400008601EE01C480068002816D123201749A4
:102850000870202048708870C87008460E490860CB
:10286000084600680078094920310881002008499D
:10287000086001201049086003E000200449086056
:1028800010BD0E48FFF740F900BFF9E700440040D3
:1028900018000020400000203C0000201C00002008
:1028A00044000020340000203800002028000020D0
:1028B000300000206800002048000020480400206C
:1028C000F8B582B28BB2040C0D0C104658430021AF
:1028D00026465E43370C36048019794116466E430E
:1028E000370C36048019794126466E438919F8BDA4
:1028F00010B5002819DB1A4A03231B02D2188308DB
:102900009B00D2588307DC0EFF23A3409A438B071A
:102910001B0E8407E40EA3401A43114B0324240228
:102920001B198408A4001A5118E00E4A03071B0F54
:10293000083B9B089B00D2588307DC0EFF23A34073
:102940009A438B071B0E8407E40EA3401A43054BE2
:102950000407240F083CA408A4001A5110BD00006D
:1029600000E100E01CED00E002E008C8121F08C111
:10297000002AFAD170477047002001E001C1121F00
:10298000002AFBD170470000FEF7D4F8FFF725FBC3
:10299000FFF784FAFFF73CFAFFF7F6FAFFF7CEFAF3
:1029A000FFF790FA9B484068012108439949486025
:1029B00008464068042108439649486008468068F4
:1029C000C007C00F002805D00846806802210843D0
:1029D0009049886000BF8F488068C007C00F0028FA
:1029E000F9D18C4880680121C9070843894988606A
:1029F00000BF88488068C00FC0070121C90788420E
:102A0000F7D084480068C007C00F002805D081486F
:102A10000068012108437F4908607E48806A4008B9
:102A200040007C4988620846806801210843794952
:102A300088600846806804210843764988607648A3
:102A40000068012108437449086000BF73480068AA
:102A50000028FBD072480068002859D070480068F0
:102A60007049086011E06F48006880006E4908589E
:102A70006C4909686A4A1268891A89006B4A505081
:102A800068480068401C67490860664800686849F3
:102A900009688842E7D100206649086016E0654869
:102AA00000688000604908585E4909685C4A1268FD
:102AB000891A89005D4A50505A480068401C59499B
:102AC00008605C480068401C5A4908605848006823
:102AD000534909684018534909688842DFD10020EA
:102AE000504908600EE04F48006880004F49085880
:102AF0004C49096889004C4A50504A480068401CBB
:102B00004849086047480068494909688842EAD14D
:102B10004948408B494908600846006848490860B0
:102B20007D20C000474908600846016844480068A5
:102B3000FDF7F4FA303044490870424801684048D3
:102B40000068FDF7EBFA41480160014609680A2276
:102B5000514308463B490968FDF7E0FA30303A49ED
:102B600048703A4909680A225143084635490968BC
:102B7000FDF7D4FA35480160014609680A2251433D
:102B8000084630490968FDF7C9FA30302E49887087
:102B90002E4909680A22514308462A490968FDF767
:102BA000BDFA2A480160014609680A2251430846D5
:102BB00024490968FDF7B2FA30302349C870244827
:102BC000006A402108432249086208460068402103
:102BD00008431F49086008460068202108431C4933
:102BE000086000201B490860801E1B4908600A20FD
:102BF000154908710D2048710620184908601248CF
:102C0000174908600846006800781149203108819A
:102C100000BFFEE700240140002C014020000020FE
:102C20000C0000204C00002068000020F80100206B
:102C30000000002050000020A0F7FF1F240000200B
:102C40003400002038000020280000203000002040
:102C500000440040180000201C000020400000201C
:102C60003C000020000000000000000001020304FE
:102C70000607080900000000010203049C2C00085C
:102C8000000000206800000068290008042D0008EA
:102C9000680000206008000078290008500000004B
:102CA000000000000000000000000000E803000039
:102CB0000000000000000000000000000000000014
:102CC0000000000000000000000000000000000004
:102CD00000000000000000000000000000000000F4
:102CE00000000000000000000000000000000000E4
:102CF00001000000000000000400000001000000CE
:042D000000127A0043
:04000005080000C12E
:00000001FF
